{
  "contractName": "PolicyFlow",
  "abi": [
    {
      "inputs": [
        {
          "internalType": "contract IInsurancePool",
          "name": "_insurancePool",
          "type": "address"
        },
        {
          "internalType": "contract IPolicyToken",
          "name": "_policyToken",
          "type": "address"
        },
        {
          "internalType": "address",
          "name": "_oracleAddress",
          "type": "address"
        }
      ],
      "stateMutability": "nonpayable",
      "type": "constructor"
    },
    {
      "anonymous": false,
      "inputs": [
        {
          "indexed": true,
          "internalType": "bytes32",
          "name": "id",
          "type": "bytes32"
        }
      ],
      "name": "ChainlinkCancelled",
      "type": "event"
    },
    {
      "anonymous": false,
      "inputs": [
        {
          "indexed": true,
          "internalType": "bytes32",
          "name": "id",
          "type": "bytes32"
        }
      ],
      "name": "ChainlinkFulfilled",
      "type": "event"
    },
    {
      "anonymous": false,
      "inputs": [
        {
          "indexed": true,
          "internalType": "bytes32",
          "name": "id",
          "type": "bytes32"
        }
      ],
      "name": "ChainlinkRequested",
      "type": "event"
    },
    {
      "anonymous": false,
      "inputs": [
        {
          "indexed": false,
          "internalType": "bytes32",
          "name": "_policyId",
          "type": "bytes32"
        },
        {
          "indexed": false,
          "internalType": "bytes32",
          "name": "_requestId",
          "type": "bytes32"
        }
      ],
      "name": "FulfilledOracleRequest",
      "type": "event"
    },
    {
      "anonymous": false,
      "inputs": [
        {
          "indexed": false,
          "internalType": "bytes32",
          "name": "_policyID",
          "type": "bytes32"
        },
        {
          "indexed": true,
          "internalType": "address",
          "name": "_userAddress",
          "type": "address"
        }
      ],
      "name": "PolicyClaimed",
      "type": "event"
    },
    {
      "anonymous": false,
      "inputs": [
        {
          "indexed": false,
          "internalType": "bytes32",
          "name": "_policyID",
          "type": "bytes32"
        },
        {
          "indexed": true,
          "internalType": "address",
          "name": "_userAddress",
          "type": "address"
        }
      ],
      "name": "PolicyDeclined",
      "type": "event"
    },
    {
      "anonymous": false,
      "inputs": [
        {
          "indexed": false,
          "internalType": "bytes32",
          "name": "_policyID",
          "type": "bytes32"
        },
        {
          "indexed": true,
          "internalType": "address",
          "name": "_userAddress",
          "type": "address"
        }
      ],
      "name": "PolicyExpired",
      "type": "event"
    },
    {
      "anonymous": false,
      "inputs": [
        {
          "indexed": true,
          "internalType": "uint256",
          "name": "_tokenId",
          "type": "uint256"
        },
        {
          "indexed": false,
          "internalType": "address",
          "name": "_newOwner",
          "type": "address"
        }
      ],
      "name": "PolicyOwnerTransfer",
      "type": "event"
    },
    {
      "anonymous": false,
      "inputs": [
        {
          "indexed": false,
          "internalType": "bytes32",
          "name": "_policyID",
          "type": "bytes32"
        },
        {
          "indexed": true,
          "internalType": "address",
          "name": "_userAddress",
          "type": "address"
        }
      ],
      "name": "PolicySold",
      "type": "event"
    },
    {
      "anonymous": false,
      "inputs": [
        {
          "indexed": false,
          "internalType": "bytes32",
          "name": "_policyID",
          "type": "bytes32"
        },
        {
          "indexed": true,
          "internalType": "address",
          "name": "_userAddress",
          "type": "address"
        }
      ],
      "name": "newPolicyApplication",
      "type": "event"
    },
    {
      "inputs": [],
      "name": "DELAY_THRESHOLD",
      "outputs": [
        {
          "internalType": "uint256",
          "name": "",
          "type": "uint256"
        }
      ],
      "stateMutability": "view",
      "type": "function"
    },
    {
      "inputs": [],
      "name": "MIN_TIME_BEFORE_DEPARTURE",
      "outputs": [
        {
          "internalType": "uint256",
          "name": "",
          "type": "uint256"
        }
      ],
      "stateMutability": "view",
      "type": "function"
    },
    {
      "inputs": [],
      "name": "Total_Policies",
      "outputs": [
        {
          "internalType": "uint256",
          "name": "",
          "type": "uint256"
        }
      ],
      "stateMutability": "view",
      "type": "function"
    },
    {
      "inputs": [
        {
          "internalType": "address",
          "name": "_addr",
          "type": "address"
        }
      ],
      "name": "addressToString",
      "outputs": [
        {
          "internalType": "string",
          "name": "",
          "type": "string"
        }
      ],
      "stateMutability": "pure",
      "type": "function"
    },
    {
      "inputs": [
        {
          "internalType": "bytes32",
          "name": "_bytes",
          "type": "bytes32"
        }
      ],
      "name": "bytes32ToHumanString",
      "outputs": [
        {
          "internalType": "string",
          "name": "",
          "type": "string"
        }
      ],
      "stateMutability": "pure",
      "type": "function"
    },
    {
      "inputs": [
        {
          "internalType": "bytes32",
          "name": "_bytes",
          "type": "bytes32"
        }
      ],
      "name": "bytes32ToString",
      "outputs": [
        {
          "internalType": "string",
          "name": "",
          "type": "string"
        }
      ],
      "stateMutability": "pure",
      "type": "function"
    },
    {
      "inputs": [
        {
          "internalType": "bytes32",
          "name": "s",
          "type": "bytes32"
        }
      ],
      "name": "bytesToUint",
      "outputs": [
        {
          "internalType": "uint256",
          "name": "",
          "type": "uint256"
        }
      ],
      "stateMutability": "pure",
      "type": "function"
    },
    {
      "inputs": [],
      "name": "oracleResponse",
      "outputs": [
        {
          "internalType": "uint256",
          "name": "",
          "type": "uint256"
        }
      ],
      "stateMutability": "view",
      "type": "function"
    },
    {
      "inputs": [],
      "name": "owner",
      "outputs": [
        {
          "internalType": "address",
          "name": "",
          "type": "address"
        }
      ],
      "stateMutability": "view",
      "type": "function"
    },
    {
      "inputs": [],
      "name": "getChainlinkToken",
      "outputs": [
        {
          "internalType": "address",
          "name": "",
          "type": "address"
        }
      ],
      "stateMutability": "view",
      "type": "function"
    },
    {
      "inputs": [
        {
          "internalType": "address",
          "name": "_userAddress",
          "type": "address"
        }
      ],
      "name": "viewPolicy",
      "outputs": [
        {
          "internalType": "string",
          "name": "",
          "type": "string"
        }
      ],
      "stateMutability": "view",
      "type": "function"
    },
    {
      "inputs": [
        {
          "internalType": "uint256",
          "name": "_count",
          "type": "uint256"
        }
      ],
      "name": "getPolicyIdByCount",
      "outputs": [
        {
          "internalType": "bytes32",
          "name": "",
          "type": "bytes32"
        }
      ],
      "stateMutability": "view",
      "type": "function"
    },
    {
      "inputs": [
        {
          "internalType": "uint256",
          "name": "_count",
          "type": "uint256"
        }
      ],
      "name": "getPolicyInfoByCount",
      "outputs": [
        {
          "internalType": "string",
          "name": "_flightNumber",
          "type": "string"
        },
        {
          "internalType": "bytes32",
          "name": "_policyId",
          "type": "bytes32"
        },
        {
          "internalType": "uint256",
          "name": "_productId",
          "type": "uint256"
        },
        {
          "internalType": "address",
          "name": "_owner",
          "type": "address"
        },
        {
          "internalType": "uint256",
          "name": "_premium",
          "type": "uint256"
        },
        {
          "internalType": "uint256",
          "name": "_payoff",
          "type": "uint256"
        },
        {
          "internalType": "uint256",
          "name": "_purchaseDate",
          "type": "uint256"
        },
        {
          "internalType": "uint256",
          "name": "_departureDate",
          "type": "uint256"
        },
        {
          "internalType": "uint256",
          "name": "_landingDate",
          "type": "uint256"
        },
        {
          "internalType": "uint256",
          "name": "_policyStatus",
          "type": "uint256"
        }
      ],
      "stateMutability": "view",
      "type": "function"
    },
    {
      "inputs": [
        {
          "internalType": "address",
          "name": "_userAddress",
          "type": "address"
        }
      ],
      "name": "getUserPolicyCount",
      "outputs": [
        {
          "internalType": "uint256",
          "name": "",
          "type": "uint256"
        }
      ],
      "stateMutability": "view",
      "type": "function"
    },
    {
      "inputs": [
        {
          "internalType": "bytes32",
          "name": "_policyId",
          "type": "bytes32"
        }
      ],
      "name": "findPolicyBuyerById",
      "outputs": [
        {
          "internalType": "address",
          "name": "",
          "type": "address"
        }
      ],
      "stateMutability": "view",
      "type": "function"
    },
    {
      "inputs": [
        {
          "internalType": "bytes32",
          "name": "_jobId",
          "type": "bytes32"
        }
      ],
      "name": "changeJobId",
      "outputs": [],
      "stateMutability": "nonpayable",
      "type": "function"
    },
    {
      "inputs": [
        {
          "internalType": "uint256",
          "name": "_fee",
          "type": "uint256"
        }
      ],
      "name": "changeFee",
      "outputs": [],
      "stateMutability": "nonpayable",
      "type": "function"
    },
    {
      "inputs": [
        {
          "internalType": "uint256",
          "name": "_newTime",
          "type": "uint256"
        }
      ],
      "name": "changeMinTimeBeforeDeparture",
      "outputs": [],
      "stateMutability": "nonpayable",
      "type": "function"
    },
    {
      "inputs": [
        {
          "internalType": "address",
          "name": "_oracleAddress",
          "type": "address"
        }
      ],
      "name": "changeOrcaleAddress",
      "outputs": [],
      "stateMutability": "nonpayable",
      "type": "function"
    },
    {
      "inputs": [
        {
          "internalType": "uint256",
          "name": "_threshold",
          "type": "uint256"
        }
      ],
      "name": "setDelayThreshold",
      "outputs": [],
      "stateMutability": "nonpayable",
      "type": "function"
    },
    {
      "inputs": [
        {
          "internalType": "address",
          "name": "_userAddress",
          "type": "address"
        },
        {
          "internalType": "uint256",
          "name": "_productId",
          "type": "uint256"
        },
        {
          "internalType": "string",
          "name": "_flightNumber",
          "type": "string"
        },
        {
          "internalType": "uint256",
          "name": "_premium",
          "type": "uint256"
        },
        {
          "internalType": "uint256",
          "name": "_payoff",
          "type": "uint256"
        },
        {
          "internalType": "uint256",
          "name": "_departureDate",
          "type": "uint256"
        },
        {
          "internalType": "uint256",
          "name": "_landingDate",
          "type": "uint256"
        }
      ],
      "name": "newApplication",
      "outputs": [
        {
          "internalType": "bytes32",
          "name": "_policyId",
          "type": "bytes32"
        }
      ],
      "stateMutability": "nonpayable",
      "type": "function"
    },
    {
      "inputs": [
        {
          "internalType": "uint256",
          "name": "_policyOrder",
          "type": "uint256"
        },
        {
          "internalType": "string",
          "name": "_flightNumber",
          "type": "string"
        },
        {
          "internalType": "string",
          "name": "_date",
          "type": "string"
        },
        {
          "internalType": "string",
          "name": "_path",
          "type": "string"
        },
        {
          "internalType": "bool",
          "name": "_forceUpdate",
          "type": "bool"
        }
      ],
      "name": "newClaimRequest",
      "outputs": [],
      "stateMutability": "nonpayable",
      "type": "function"
    },
    {
      "inputs": [
        {
          "internalType": "bytes32",
          "name": "_requestId",
          "type": "bytes32"
        },
        {
          "internalType": "uint256",
          "name": "_data",
          "type": "uint256"
        }
      ],
      "name": "fulfill",
      "outputs": [],
      "stateMutability": "nonpayable",
      "type": "function"
    },
    {
      "inputs": [
        {
          "internalType": "uint256",
          "name": "_tokenId",
          "type": "uint256"
        },
        {
          "internalType": "address",
          "name": "_oldOwner",
          "type": "address"
        },
        {
          "internalType": "address",
          "name": "_newOwner",
          "type": "address"
        }
      ],
      "name": "policyOwnerTransfer",
      "outputs": [],
      "stateMutability": "nonpayable",
      "type": "function"
    }
  ],
  "bytecode": "0x608060405260016004556040518060400160405280602081526020017f687474703a2f2f33392e3130312e3133322e3232383a383030302f6c6976652f8152506008908051906020019062000056929190620002dd565b506201518060105560f06011553480156200007057600080fd5b50604051620057fa380380620057fa833981810160405281019062000096919062000404565b33600d60006101000a81548173ffffffffffffffffffffffffffffffffffffffff021916908373ffffffffffffffffffffffffffffffffffffffff16021790555082600e60006101000a81548173ffffffffffffffffffffffffffffffffffffffff021916908373ffffffffffffffffffffffffffffffffffffffff16021790555081600f60006101000a81548173ffffffffffffffffffffffffffffffffffffffff021916908373ffffffffffffffffffffffffffffffffffffffff16021790555080600960006101000a81548173ffffffffffffffffffffffffffffffffffffffff021916908373ffffffffffffffffffffffffffffffffffffffff1602179055507f6365663734613766663765613431393461623937663030633839616265663662600a81905550620001d1620001f160201b60201c565b670de0b6b3a7640000600781905550600060128190555050505062000574565b6200029773c89bd4e1632d3a43cb03aaad5262cbe4038bc57173ffffffffffffffffffffffffffffffffffffffff166338cc48316040518163ffffffff1660e01b815260040160206040518083038186803b1580156200025057600080fd5b505afa15801562000265573d6000803e3d6000fd5b505050506040513d601f19601f820116820180604052508101906200028b9190620003d2565b6200029960201b60201c565b565b80600260006101000a81548173ffffffffffffffffffffffffffffffffffffffff021916908373ffffffffffffffffffffffffffffffffffffffff16021790555050565b828054620002eb90620004bc565b90600052602060002090601f0160209004810192826200030f57600085556200035b565b82601f106200032a57805160ff19168380011785556200035b565b828001600101855582156200035b579182015b828111156200035a5782518255916020019190600101906200033d565b5b5090506200036a91906200036e565b5090565b5b80821115620003895760008160009055506001016200036f565b5090565b6000815190506200039e8162000526565b92915050565b600081519050620003b58162000540565b92915050565b600081519050620003cc816200055a565b92915050565b600060208284031215620003eb57620003ea62000521565b5b6000620003fb848285016200038d565b91505092915050565b60008060006060848603121562000420576200041f62000521565b5b60006200043086828701620003a4565b93505060206200044386828701620003bb565b925050604062000456868287016200038d565b9150509250925092565b60006200046d826200049c565b9050919050565b6000620004818262000460565b9050919050565b6000620004958262000460565b9050919050565b600073ffffffffffffffffffffffffffffffffffffffff82169050919050565b60006002820490506001821680620004d557607f821691505b60208210811415620004ec57620004eb620004f2565b5b50919050565b7f4e487b7100000000000000000000000000000000000000000000000000000000600052602260045260246000fd5b600080fd5b620005318162000460565b81146200053d57600080fd5b50565b6200054b8162000474565b81146200055757600080fd5b50565b620005658162000488565b81146200057157600080fd5b50565b61527680620005846000396000f3fe608060405234801561001057600080fd5b50600436106101585760003560e01c80636a1db1bf116100c3578063aed0acee1161007c578063aed0acee146103f0578063b7b357ac1461040e578063be6b82481461042c578063cfc5a9691461044a578063ddf9d6171461047a578063e25f3fc8146104aa57610158565b80636a1db1bf1461031e5780636d0be9971461033a5780638d8ccfce146103565780638da5cb5b146103865780638e34ce35146103a45780639201de55146103c057610158565b80633da21def116101155780633da21def1461024e5780634357855e1461026a5780635a9274ad146102865780635e57966d146102a2578063624c5223146102d257806369099ee71461030257610158565b8063081c29a81461015d5780630f42fd0b1461018d578063165d35e1146101a9578063214a64a9146101c757806330dbc6c4146101e55780633d21a7d11461021e575b600080fd5b610177600480360381019061017291906137eb565b6104da565b60405161018491906141d8565b60405180910390f35b6101a760048036038101906101a2919061386b565b6104f7565b005b6101b1610813565b6040516101be91906140fa565b60405180910390f35b6101cf610822565b6040516101dc9190614461565b60405180910390f35b6101ff60048036038101906101fa91906137eb565b610828565b6040516102159a9998979695949392919061423e565b60405180910390f35b61023860048036038101906102339190613666565b610a0b565b6040516102459190614461565b60405180910390f35b6102686004803603810190610263919061377e565b610a54565b005b610284600480360381019061027f91906137ab565b610aee565b005b6102a0600480360381019061029b91906137eb565b610ef5565b005b6102bc60048036038101906102b79190613666565b610f8f565b6040516102c9919061421c565b60405180910390f35b6102ec60048036038101906102e79190613693565b610fc2565b6040516102f991906141d8565b60405180910390f35b61031c60048036038101906103179190613666565b61135a565b005b610338600480360381019061033391906137eb565b61142e565b005b610354600480360381019061034f91906137eb565b6114c8565b005b610370600480360381019061036b919061377e565b611562565b60405161037d91906140fa565b60405180910390f35b61038e6115a2565b60405161039b91906140fa565b60405180910390f35b6103be60048036038101906103b99190613818565b6115c8565b005b6103da60048036038101906103d5919061377e565b6117a7565b6040516103e7919061421c565b60405180910390f35b6103f86117c7565b6040516104059190614461565b60405180910390f35b6104166117cd565b6040516104239190614461565b60405180910390f35b6104346117d3565b6040516104419190614461565b60405180910390f35b610464600480360381019061045f919061377e565b6117d9565b6040516104719190614461565b60405180910390f35b610494600480360381019061048f9190613666565b611977565b6040516104a1919061421c565b60405180910390f35b6104c460048036038101906104bf919061377e565b611dab565b6040516104d1919061421c565b60405180910390f35b600060146000838152602001908152602001600020549050919050565b600d60009054906101000a900473ffffffffffffffffffffffffffffffffffffffff1673ffffffffffffffffffffffffffffffffffffffff163373ffffffffffffffffffffffffffffffffffffffff1614610587576040517f08c379a000000000000000000000000000000000000000000000000000000000815260040161057e906143e1565b60405180910390fd5b60006014600087815260200190815260200160002054905060136000828152602001908152602001600020600901544210156105f8576040517f08c379a00000000000000000000000000000000000000000000000000000000081526004016105ef906143c1565b60405180910390fd5b60136000828152602001908152602001600020600a0160019054906101000a900460ff16158061067e575081801561067d5750600d60009054906101000a900473ffffffffffffffffffffffffffffffffffffffff1673ffffffffffffffffffffffffffffffffffffffff163373ffffffffffffffffffffffffffffffffffffffff16145b5b6106bd576040517f08c379a00000000000000000000000000000000000000000000000000000000081526004016106b490614401565b60405180910390fd5b601360008281526020019081526020016000206003016040516020016106e39190613f50565b604051602081830303815290604052805190602001208560405160200161070a9190613f08565b6040516020818303038152906040528051906020012014610760576040517f08c379a000000000000000000000000000000000000000000000000000000000815260040161075790614321565b60405180910390fd5b60006008868660405160200161077893929190613f67565b604051602081830303815290604052905060006107c0600960009054906101000a900473ffffffffffffffffffffffffffffffffffffffff16600a5460075485896001611e81565b905087600b600083815260200190815260200160002081905550600160136000858152602001908152602001600020600a0160016101000a81548160ff0219169083151502179055505050505050505050565b600061081d611f8e565b905090565b60065481565b6060600080600080600080600080600080601460008d8152602001908152602001600020549050601360008281526020019081526020016000206003018160136000848152602001908152602001600020600001546013600085815260200190815260200160002060010160009054906101000a900473ffffffffffffffffffffffffffffffffffffffff166013600086815260200190815260200160002060050154601360008781526020019081526020016000206006015460136000888152602001908152602001600020600701546013600089815260200190815260200160002060080154601360008a815260200190815260200160002060090154601360008b8152602001908152602001600020600a0160009054906101000a900460ff16600481111561095d5761095c614b66565b5b898054610969906149fd565b80601f0160208091040260200160405190810160405280929190818152602001828054610995906149fd565b80156109e25780601f106109b7576101008083540402835291602001916109e2565b820191906000526020600020905b8154815290600101906020018083116109c557829003601f168201915b505050505099509a509a509a509a509a509a509a509a509a509a50509193959799509193959799565b6000601660008373ffffffffffffffffffffffffffffffffffffffff1673ffffffffffffffffffffffffffffffffffffffff168152602001908152602001600020549050919050565b600d60009054906101000a900473ffffffffffffffffffffffffffffffffffffffff1673ffffffffffffffffffffffffffffffffffffffff163373ffffffffffffffffffffffffffffffffffffffff1614610ae4576040517f08c379a0000000000000000000000000000000000000000000000000000000008152600401610adb906143e1565b60405180910390fd5b80600a8190555050565b816005600082815260200190815260200160002060009054906101000a900473ffffffffffffffffffffffffffffffffffffffff1673ffffffffffffffffffffffffffffffffffffffff163373ffffffffffffffffffffffffffffffffffffffff1614610b90576040517f08c379a0000000000000000000000000000000000000000000000000000000008152600401610b8790614421565b60405180910390fd5b6005600082815260200190815260200160002060006101000a81549073ffffffffffffffffffffffffffffffffffffffff0219169055807f7cc135e0cebb02c3480ae5d74d377283180a2601f8f644edf7987b009316c63a60405160405180910390a2816006819055506000600b60008581526020019081526020016000205490506000601460008381526020019081526020016000205490508360136000838152602001908152602001600020600b01819055506000841415610cc157610cbc601360008381526020019081526020016000206005015460136000848152602001908152602001600020600601546013600085815260200190815260200160002060010160009054906101000a900473ffffffffffffffffffffffffffffffffffffffff1684611fb8565b610eb5565b6011548411610dc7576000610cd5856120da565b90506013600083815260200190815260200160002060060154811015610d5257610d4d6013600084815260200190815260200160002060050154826013600086815260200190815260200160002060010160009054906101000a900473ffffffffffffffffffffffffffffffffffffffff1685612192565b610dc1565b610dc0601360008481526020019081526020016000206005015460136000858152602001908152602001600020600601546013600086815260200190815260200160002060010160009054906101000a900473ffffffffffffffffffffffffffffffffffffffff1685612192565b5b50610eb4565b610190841415610e4457610e3f601360008381526020019081526020016000206005015460136000848152602001908152602001600020600601546013600085815260200190815260200160002060010160009054906101000a900473ffffffffffffffffffffffffffffffffffffffff1684612192565b610eb3565b610eb2601360008381526020019081526020016000206005015460136000848152602001908152602001600020600601546013600085815260200190815260200160002060010160009054906101000a900473ffffffffffffffffffffffffffffffffffffffff1684611fb8565b5b5b5b7fa9ddea9ab39eadd77698a6649216466253039b513895fe0e268e695809f28f3d8186604051610ee69291906141f3565b60405180910390a15050505050565b600d60009054906101000a900473ffffffffffffffffffffffffffffffffffffffff1673ffffffffffffffffffffffffffffffffffffffff163373ffffffffffffffffffffffffffffffffffffffff1614610f85576040517f08c379a0000000000000000000000000000000000000000000000000000000008152600401610f7c906143e1565b60405180910390fd5b8060108190555050565b6060610fbb60148373ffffffffffffffffffffffffffffffffffffffff166122b690919063ffffffff16565b9050919050565b600060105442610fd2919061458a565b831015611014576040517f08c379a000000000000000000000000000000000000000000000000000000000815260040161100b90614381565b60405180910390fd5b600088888560125460405160200161102f9493929190613e8e565b60405160208183030381529060405280519060200120905061105386868b846124f2565b6000429050604051806101a001604052808a81526020018b73ffffffffffffffffffffffffffffffffffffffff1681526020016012548152602001898152602001838152602001888152602001878152602001828152602001868152602001858152602001600060048111156110cc576110cb614b66565b5b8152602001600015158152602001610194815250601360008481526020019081526020016000206000820151816000015560208201518160010160006101000a81548173ffffffffffffffffffffffffffffffffffffffff021916908373ffffffffffffffffffffffffffffffffffffffff16021790555060408201518160020155606082015181600301908051906020019061116a929190613463565b506080820151816004015560a0820151816005015560c0820151816006015560e082015181600701556101008201518160080155610120820151816009015561014082015181600a0160006101000a81548160ff021916908360048111156111d5576111d4614b66565b5b021790555061016082015181600a0160016101000a81548160ff02191690831515021790555061018082015181600b0155905050601560008b73ffffffffffffffffffffffffffffffffffffffff1673ffffffffffffffffffffffffffffffffffffffff16815260200190815260200160002060125490806001815401808255809150506001900390600052602060002001600090919091909150556001601660008c73ffffffffffffffffffffffffffffffffffffffff1673ffffffffffffffffffffffffffffffffffffffff16815260200190815260200160002060008282546112c1919061458a565b9250508190555081601460006012548152602001908152602001600020819055506001601260008282546112f5919061458a565b925050819055508973ffffffffffffffffffffffffffffffffffffffff167fea7d153d9403b2cbdaa11045591904450ef979d8225ec92d7f2bd664b4a7d79b8360405161134291906141d8565b60405180910390a28192505050979650505050505050565b600d60009054906101000a900473ffffffffffffffffffffffffffffffffffffffff1673ffffffffffffffffffffffffffffffffffffffff163373ffffffffffffffffffffffffffffffffffffffff16146113ea576040517f08c379a00000000000000000000000000000000000000000000000000000000081526004016113e1906143e1565b60405180910390fd5b80600960006101000a81548173ffffffffffffffffffffffffffffffffffffffff021916908373ffffffffffffffffffffffffffffffffffffffff16021790555050565b600d60009054906101000a900473ffffffffffffffffffffffffffffffffffffffff1673ffffffffffffffffffffffffffffffffffffffff163373ffffffffffffffffffffffffffffffffffffffff16146114be576040517f08c379a00000000000000000000000000000000000000000000000000000000081526004016114b5906143e1565b60405180910390fd5b8060078190555050565b600d60009054906101000a900473ffffffffffffffffffffffffffffffffffffffff1673ffffffffffffffffffffffffffffffffffffffff163373ffffffffffffffffffffffffffffffffffffffff1614611558576040517f08c379a000000000000000000000000000000000000000000000000000000000815260040161154f906143e1565b60405180910390fd5b8060118190555050565b60006013600083815260200190815260200160002060010160009054906101000a900473ffffffffffffffffffffffffffffffffffffffff169050919050565b600d60009054906101000a900473ffffffffffffffffffffffffffffffffffffffff1681565b600f60009054906101000a900473ffffffffffffffffffffffffffffffffffffffff1673ffffffffffffffffffffffffffffffffffffffff163373ffffffffffffffffffffffffffffffffffffffff1614611658576040517f08c379a000000000000000000000000000000000000000000000000000000000815260040161164f90614361565b60405180910390fd5b6000601460008581526020019081526020016000205490506013600082815260200190815260200160002060010160009054906101000a900473ffffffffffffffffffffffffffffffffffffffff1673ffffffffffffffffffffffffffffffffffffffff168373ffffffffffffffffffffffffffffffffffffffff1614611714576040517f08c379a000000000000000000000000000000000000000000000000000000000815260040161170b90614301565b60405180910390fd5b816013600083815260200190815260200160002060010160006101000a81548173ffffffffffffffffffffffffffffffffffffffff021916908373ffffffffffffffffffffffffffffffffffffffff160217905550837f131013c706ffe7a58a15c6576c2affbfee4aa57a8fc2c179fff9da687da631e68360405161179991906140fa565b60405180910390a250505050565b60606117c060208360001c6122b690919063ffffffff16565b9050919050565b60115481565b60105481565b60125481565b600080602067ffffffffffffffff8111156117f7576117f6614bf3565b5b6040519080825280601f01601f1916602001820160405280156118295781602001600182028036833780820191505090505b50905060005b60208110156118a45783816020811061184b5761184a614bc4565b5b1a60f81b82828151811061186257611861614bc4565b5b60200101907effffffffffffffffffffffffffffffffffffffffffffffffffffffffffffff1916908160001a905350808061189c90614a60565b91505061182f565b506000805b825181101561196c5760308382815181106118c7576118c6614bc4565b5b602001015160f81c60f81b60f81c60ff161015801561190a575060398382815181106118f6576118f5614bc4565b5b602001015160f81c60f81b60f81c60ff1611155b1561195957603083828151811061192457611923614bc4565b5b602001015160f81c60f81b60f81c61193c91906148a4565b60ff16600a8361194c9190614782565b611956919061458a565b91505b808061196490614a60565b9150506118a9565b508092505050919050565b60606000601660008473ffffffffffffffffffffffffffffffffffffffff1673ffffffffffffffffffffffffffffffffffffffff16815260200190815260200160002054116119fb576040517f08c379a00000000000000000000000000000000000000000000000000000000081526004016119f2906143a1565b60405180910390fd5b6000601660008473ffffffffffffffffffffffffffffffffffffffff1673ffffffffffffffffffffffffffffffffffffffff16815260200190815260200160002054905060006040518060400160405280600181526020017f2000000000000000000000000000000000000000000000000000000000000000815250905060005b82811015611da0576000601560008773ffffffffffffffffffffffffffffffffffffffff1673ffffffffffffffffffffffffffffffffffffffff1681526020019081526020016000208281548110611ad757611ad6614bc4565b5b90600052602060002001549050600060146000838152602001908152602001600020549050600060136000838152602001908152602001600020600a0160019054906101000a900460ff16611b61576040518060400160405280600881526020017f6e6f742075736564000000000000000000000000000000000000000000000000815250611b98565b6040518060400160405280600481526020017f75736564000000000000000000000000000000000000000000000000000000008152505b90506000611c9385601360008681526020019081526020016000206003018054611bc1906149fd565b80601f0160208091040260200160405190810160405280929190818152602001828054611bed906149fd565b8015611c3a5780601f10611c0f57610100808354040283529160200191611c3a565b820191906000526020600020905b815481529060010190602001808311611c1d57829003601f168201915b50505050508560136000888152602001908152602001600020600001546013600089815260200190815260200160002060010160009054906101000a900473ffffffffffffffffffffffffffffffffffffffff16612846565b90506000611d606013600086815260200190815260200160002060050154601360008781526020019081526020016000206006015460136000888152602001908152602001600020600701546013600089815260200190815260200160002060080154601360008a815260200190815260200160002060090154601360008b8152602001908152602001600020600a0160009054906101000a900460ff166004811115611d4357611d42614b66565b5b89601360008d8152602001908152602001600020600b015461289b565b9050868282604051602001611d7793929190613f1f565b604051602081830303815290604052965050505050508080611d9890614a60565b915050611a7c565b508092505050919050565b60606000602067ffffffffffffffff811115611dca57611dc9614bf3565b5b6040519080825280601f01601f191660200182016040528015611dfc5781602001600182028036833780820191505090505b50905060005b6020811015611e7757838160208110611e1e57611e1d614bc4565b5b1a60f81b828281518110611e3557611e34614bc4565b5b60200101907effffffffffffffffffffffffffffffffffffffffffffffffffffffffffffff1916908160001a9053508080611e6f90614a60565b915050611e02565b5080915050919050565b600080611e968730634357855e60e01b612937565b9050611ee26040518060400160405280600381526020017f75726c000000000000000000000000000000000000000000000000000000000081525086836129689092919063ffffffff16565b611f2c6040518060400160405280600481526020017f706174680000000000000000000000000000000000000000000000000000000081525085836129689092919063ffffffff16565b611f766040518060400160405280600581526020017f74696d6573000000000000000000000000000000000000000000000000000000815250848361299b9092919063ffffffff16565b611f818882886129ce565b9150509695505050505050565b6000600260009054906101000a900473ffffffffffffffffffffffffffffffffffffffff16905090565b600e60009054906101000a900473ffffffffffffffffffffffffffffffffffffffff1673ffffffffffffffffffffffffffffffffffffffff16638f6987a285856040518363ffffffff1660e01b815260040161201592919061447c565b600060405180830381600087803b15801561202f57600080fd5b505af1158015612043573d6000803e3d6000fd5b50505050600360136000838152602001908152602001600020600a0160006101000a81548160ff0219169083600481111561208157612080614b66565b5b02179055508173ffffffffffffffffffffffffffffffffffffffff167f8629ba1a018e1397c942e8dcf53afb2cfd0f250c02bc785e041010dfe6bbe002826040516120cc91906141d8565b60405180910390a250505050565b60008060009050603c83116120f157829050612173565b603c83118015612102575060788311155b15612133576002603c846121169190614870565b6121209190614782565b603c61212c919061458a565b9050612172565b607883118015612144575060f08311155b156121715760036078846121589190614870565b6121629190614782565b60b461216e919061458a565b90505b5b5b670de0b6b3a7640000816121879190614782565b905080915050919050565b600e60009054906101000a900473ffffffffffffffffffffffffffffffffffffffff1673ffffffffffffffffffffffffffffffffffffffff166347fea81e8585856040518463ffffffff1660e01b81526004016121f1939291906144a5565b600060405180830381600087803b15801561220b57600080fd5b505af115801561221f573d6000803e3d6000fd5b50505050600460136000838152602001908152602001600020600a0160006101000a81548160ff0219169083600481111561225d5761225c614b66565b5b02179055508173ffffffffffffffffffffffffffffffffffffffff167f5f9c763688279c7782f685a70462a053a838f3453a1b3a1bdc3c782d12670d61826040516122a891906141d8565b60405180910390a250505050565b6060600060028360026122c99190614782565b6122d3919061458a565b67ffffffffffffffff8111156122ec576122eb614bf3565b5b6040519080825280601f01601f19166020018201604052801561231e5781602001600182028036833780820191505090505b5090507f30000000000000000000000000000000000000000000000000000000000000008160008151811061235657612355614bc4565b5b60200101907effffffffffffffffffffffffffffffffffffffffffffffffffffffffffffff1916908160001a9053507f7800000000000000000000000000000000000000000000000000000000000000816001815181106123ba576123b9614bc4565b5b60200101907effffffffffffffffffffffffffffffffffffffffffffffffffffffffffffff1916908160001a905350600060018460026123fa9190614782565b612404919061458a565b90505b60018111156124a4577f3031323334353637383961626364656600000000000000000000000000000000600f86166010811061244657612445614bc4565b5b1a60f81b82828151811061245d5761245c614bc4565b5b60200101907effffffffffffffffffffffffffffffffffffffffffffffffffffffffffffff1916908160001a905350600485901c94508061249d906149d3565b9050612407565b50600084146124e8576040517f08c379a00000000000000000000000000000000000000000000000000000000081526004016124df906142e1565b60405180910390fd5b8091505092915050565b6000600e60009054906101000a900473ffffffffffffffffffffffffffffffffffffffff1673ffffffffffffffffffffffffffffffffffffffff166216bd78856040518263ffffffff1660e01b815260040161254e9190614461565b60206040518083038186803b15801561256657600080fd5b505afa15801561257a573d6000803e3d6000fd5b505050506040513d601f19601f8201168201806040525081019061259e9190613751565b9050801561277757600e60009054906101000a900473ffffffffffffffffffffffffffffffffffffffff1673ffffffffffffffffffffffffffffffffffffffff1663bf131f4b8686866040518463ffffffff1660e01b8152600401612605939291906144a5565b602060405180830381600087803b15801561261f57600080fd5b505af1158015612633573d6000803e3d6000fd5b505050506040513d601f19601f820116820180604052508101906126579190613751565b50600160136000848152602001908152602001600020600a0160006101000a81548160ff0219169083600481111561269257612691614b66565b5b02179055508273ffffffffffffffffffffffffffffffffffffffff167fe2b215a9cb677e3aed3f981858d4991d0fa674cac07f691ae9e55285cd21e650836040516126dd91906141d8565b60405180910390a2600f60009054906101000a900473ffffffffffffffffffffffffffffffffffffffff1673ffffffffffffffffffffffffffffffffffffffff1663b918e5e2846040518263ffffffff1660e01b815260040161274091906140fa565b600060405180830381600087803b15801561275a57600080fd5b505af115801561276e573d6000803e3d6000fd5b5050505061283f565b600260136000848152602001908152602001600020600a0160006101000a81548160ff021916908360048111156127b1576127b0614b66565b5b02179055508273ffffffffffffffffffffffffffffffffffffffff167fdf516e73760083066a1382f39eddf56faec71fab4e9b20387809572f49285730836040516127fc91906141d8565b60405180910390a26040517f08c379a000000000000000000000000000000000000000000000000000000000815260040161283690614441565b60405180910390fd5b5050505050565b6060612851866129ee565b8561285b866117a7565b612864866129ee565b61286d86610f8f565b604051602001612881959493929190613fa3565b604051602081830303815290604052905095945050505050565b60606128b9670de0b6b3a76400008a6128b491906145e0565b6129ee565b6128d5670de0b6b3a76400008a6128d091906145e0565b6129ee565b6128de896129ee565b6128e7896129ee565b6128f0896129ee565b6128f9896129ee565b88612903896129ee565b60405160200161291a989796959493929190614025565b604051602081830303815290604052905098975050505050505050565b61293f6134e9565b6129476134e9565b61295e85858584612b4f909392919063ffffffff16565b9150509392505050565b61297f828460800151612bff90919063ffffffff16565b612996818460800151612bff90919063ffffffff16565b505050565b6129b2828460800151612bff90919063ffffffff16565b6129c9818460800151612c2490919063ffffffff16565b505050565b60006129e58484846001634042994660e01b612cd1565b90509392505050565b60606000821415612a36576040518060400160405280600181526020017f30000000000000000000000000000000000000000000000000000000000000008152509050612b4a565b600082905060005b60008214612a68578080612a5190614a60565b915050600a82612a6191906145e0565b9150612a3e565b60008167ffffffffffffffff811115612a8457612a83614bf3565b5b6040519080825280601f01601f191660200182016040528015612ab65781602001600182028036833780820191505090505b5090505b60008514612b4357600182612acf9190614870565b9150600a85612ade9190614ad7565b6030612aea919061458a565b60f81b818381518110612b0057612aff614bc4565b5b60200101907effffffffffffffffffffffffffffffffffffffffffffffffffffffffffffff1916908160001a905350600a85612b3c91906145e0565b9450612aba565b8093505050505b919050565b612b576134e9565b612b678560800151610100612f39565b508385600001818152505082856020019073ffffffffffffffffffffffffffffffffffffffff16908173ffffffffffffffffffffffffffffffffffffffff16815250508185604001907bffffffffffffffffffffffffffffffffffffffffffffffffffffffff191690817bffffffffffffffffffffffffffffffffffffffffffffffffffffffff191681525050849050949350505050565b612c0c8260038351612fa3565b612c1f81836130e890919063ffffffff16565b505050565b7fffffffffffffffffffffffffffffffffffffffffffffffff0000000000000000811215612c5b57612c56828261310a565b612ccd565b67ffffffffffffffff811315612c7a57612c758282613181565b612ccc565b60008112612c9357612c8e82600083612fa3565b612ccb565b612cca826001837fffffffffffffffffffffffffffffffffffffffffffffffffffffffffffffffff612cc591906147dc565b612fa3565b5b5b5b5050565b600030600454604051602001612ce8929190613edc565b604051602081830303815290604052805190602001209050600454856060018181525050856005600083815260200190815260200160002060006101000a81548173ffffffffffffffffffffffffffffffffffffffff021916908373ffffffffffffffffffffffffffffffffffffffff160217905550807fb5e6e01e79f91267dc17b4e6314d5d4d03593d2ceee0fbb452b750bd70ea5af960405160405180910390a2600082600080886000015189602001518a604001518b606001518a8d6080015160000151604051602401612dc6989796959493929190614115565b604051602081830303815290604052907bffffffffffffffffffffffffffffffffffffffffffffffffffffffff19166020820180517bffffffffffffffffffffffffffffffffffffffffffffffffffffffff83818316178352505050509050600260009054906101000a900473ffffffffffffffffffffffffffffffffffffffff1673ffffffffffffffffffffffffffffffffffffffff16634000aea08887846040518463ffffffff1660e01b8152600401612e849392919061419a565b602060405180830381600087803b158015612e9e57600080fd5b505af1158015612eb2573d6000803e3d6000fd5b505050506040513d601f19601f82011682018060405250810190612ed69190613751565b612f15576040517f08c379a0000000000000000000000000000000000000000000000000000000008152600401612f0c90614341565b60405180910390fd5b600160046000828254612f28919061458a565b925050819055505095945050505050565b612f41613556565b6000602083612f509190614ad7565b14612f7c57602082612f629190614ad7565b6020612f6e9190614870565b82612f79919061458a565b91505b81836020018181525050604051808452600081528281016020016040525082905092915050565b60178111612fd057612fca8160058460ff16901b60ff1617846131cd90919063ffffffff16565b506130e3565b60ff811161301257612ff5601860058460ff16901b17846131cd90919063ffffffff16565b5061300c816001856131ed9092919063ffffffff16565b506130e2565b61ffff811161305557613038601960058460ff16901b17846131cd90919063ffffffff16565b5061304f816002856131ed9092919063ffffffff16565b506130e1565b63ffffffff811161309a5761307d601a60058460ff16901b17846131cd90919063ffffffff16565b50613094816004856131ed9092919063ffffffff16565b506130e0565b67ffffffffffffffff81116130df576130c6601b60058460ff16901b17846131cd90919063ffffffff16565b506130dd816008856131ed9092919063ffffffff16565b505b5b5b5b5b505050565b6130f0613556565b6131028384600001515184855161320f565b905092915050565b61312860036005600660ff16901b17836131cd90919063ffffffff16565b5061317d82827fffffffffffffffffffffffffffffffffffffffffffffffffffffffffffffffff61315991906147dc565b6040516020016131699190614461565b604051602081830303815290604052613319565b5050565b61319f60026005600660ff16901b17836131cd90919063ffffffff16565b506131c982826040516020016131b59190614461565b604051602081830303815290604052613319565b5050565b6131d5613556565b6131e5838460000151518461333e565b905092915050565b6131f5613556565b613206848560000151518585613395565b90509392505050565b613217613556565b825182111561322557600080fd5b84602001518285613236919061458a565b111561326b5761326a85600261325b88602001518887613256919061458a565b613423565b6132659190614782565b61343f565b5b60008086518051876020830101935080888701111561328a5787860182525b60208701925050505b602084106132d157805182526020826132ac919061458a565b91506020816132bb919061458a565b90506020846132ca9190614870565b9350613293565b600060018560206132e29190614870565b6101006132ef9190614664565b6132f99190614870565b905080198251168184511681811785525050879350505050949350505050565b6133268260028351612fa3565b61333981836130e890919063ffffffff16565b505050565b613346613556565b8360200151831061336c5761336b84600286602001516133669190614782565b61343f565b5b8351805160208583010184815381861415613388576001820183525b5050508390509392505050565b61339d613556565b846020015184836133ae919061458a565b11156133d6576133d585600286856133c6919061458a565b6133d09190614782565b61343f565b5b60006001836101006133e89190614664565b6133f29190614870565b905085518386820101858319825116178152815185880111156134155784870182525b505085915050949350505050565b60008183111561343557829050613439565b8190505b92915050565b6000826000015190506134528383612f39565b5061345d83826130e8565b50505050565b82805461346f906149fd565b90600052602060002090601f01602090048101928261349157600085556134d8565b82601f106134aa57805160ff19168380011785556134d8565b828001600101855582156134d8579182015b828111156134d75782518255916020019190600101906134bc565b5b5090506134e59190613570565b5090565b6040518060a0016040528060008019168152602001600073ffffffffffffffffffffffffffffffffffffffff16815260200160007bffffffffffffffffffffffffffffffffffffffffffffffffffffffff1916815260200160008152602001613550613556565b81525090565b604051806040016040528060608152602001600081525090565b5b80821115613589576000816000905550600101613571565b5090565b60006135a061359b84614501565b6144dc565b9050828152602081018484840111156135bc576135bb614c27565b5b6135c7848285614991565b509392505050565b6000813590506135de816151e4565b92915050565b6000813590506135f3816151fb565b92915050565b600081519050613608816151fb565b92915050565b60008135905061361d81615212565b92915050565b600082601f83011261363857613637614c22565b5b813561364884826020860161358d565b91505092915050565b60008135905061366081615229565b92915050565b60006020828403121561367c5761367b614c31565b5b600061368a848285016135cf565b91505092915050565b600080600080600080600060e0888a0312156136b2576136b1614c31565b5b60006136c08a828b016135cf565b97505060206136d18a828b01613651565b965050604088013567ffffffffffffffff8111156136f2576136f1614c2c565b5b6136fe8a828b01613623565b955050606061370f8a828b01613651565b94505060806137208a828b01613651565b93505060a06137318a828b01613651565b92505060c06137428a828b01613651565b91505092959891949750929550565b60006020828403121561376757613766614c31565b5b6000613775848285016135f9565b91505092915050565b60006020828403121561379457613793614c31565b5b60006137a28482850161360e565b91505092915050565b600080604083850312156137c2576137c1614c31565b5b60006137d08582860161360e565b92505060206137e185828601613651565b9150509250929050565b60006020828403121561380157613800614c31565b5b600061380f84828501613651565b91505092915050565b60008060006060848603121561383157613830614c31565b5b600061383f86828701613651565b9350506020613850868287016135cf565b9250506040613861868287016135cf565b9150509250925092565b600080600080600060a0868803121561388757613886614c31565b5b600061389588828901613651565b955050602086013567ffffffffffffffff8111156138b6576138b5614c2c565b5b6138c288828901613623565b945050604086013567ffffffffffffffff8111156138e3576138e2614c2c565b5b6138ef88828901613623565b935050606086013567ffffffffffffffff8111156139105761390f614c2c565b5b61391c88828901613623565b925050608061392d888289016135e4565b9150509295509295909350565b613943816148d8565b82525050565b61395a613955826148d8565b614aa9565b82525050565b613969816148f6565b82525050565b61397881614900565b82525050565b600061398982614547565b613993818561455d565b93506139a38185602086016149a0565b6139ac81614c36565b840191505092915050565b6139c86139c38261496d565b614aa9565b82525050565b60006139d982614552565b6139e3818561456e565b93506139f38185602086016149a0565b6139fc81614c36565b840191505092915050565b6000613a1282614552565b613a1c818561457f565b9350613a2c8185602086016149a0565b80840191505092915050565b60008154613a45816149fd565b613a4f818661457f565b94506001821660008114613a6a5760018114613a7b57613aae565b60ff19831686528186019350613aae565b613a8485614532565b60005b83811015613aa657815481890152600182019150602081019050613a87565b838801955050505b50505092915050565b6000613ac4600d8361457f565b9150613acf82614c61565b600d82019050919050565b6000613ae760208361456e565b9150613af282614c8a565b602082019050919050565b6000613b0a601b8361456e565b9150613b1582614cb3565b602082019050919050565b6000613b2d600b8361457f565b9150613b3882614cdc565b600b82019050919050565b6000613b5060118361457f565b9150613b5b82614d05565b601182019050919050565b6000613b73601c8361456e565b9150613b7e82614d2e565b602082019050919050565b6000613b9660078361457f565b9150613ba182614d57565b600782019050919050565b6000613bb960238361456e565b9150613bc482614d80565b604082019050919050565b6000613bdc600e8361457f565b9150613be782614dcf565b600e82019050919050565b6000613bff60128361457f565b9150613c0a82614df8565b601282019050919050565b6000613c22602a8361456e565b9150613c2d82614e21565b604082019050919050565b6000613c4560128361457f565b9150613c5082614e70565b601282019050919050565b6000613c6860228361456e565b9150613c7382614e99565b604082019050919050565b6000613c8b600b8361457f565b9150613c9682614ee8565b600b82019050919050565b6000613cae600b8361457f565b9150613cb982614f11565b600b82019050919050565b6000613cd160178361456e565b9150613cdc82614f3a565b602082019050919050565b6000613cf460018361457f565b9150613cff82614f63565b600182019050919050565b6000613d17600b8361457f565b9150613d2282614f8c565b600b82019050919050565b6000613d3a60128361457f565b9150613d4582614fb5565b601282019050919050565b6000613d5d60118361457f565b9150613d6882614fde565b601182019050919050565b6000613d8060298361456e565b9150613d8b82615007565b604082019050919050565b6000613da3600c8361457f565b9150613dae82615056565b600c82019050919050565b6000613dc660258361456e565b9150613dd18261507f565b604082019050919050565b6000613de960108361457f565b9150613df4826150ce565b601082019050919050565b6000613e0c603e8361456e565b9150613e17826150f7565b604082019050919050565b6000613e2f60288361456e565b9150613e3a82615146565b604082019050919050565b6000613e52602d8361456e565b9150613e5d82615195565b604082019050919050565b613e7181614956565b82525050565b613e88613e8382614956565b614acd565b82525050565b6000613e9a8287613949565b601482019150613eaa8286613e77565b602082019150613eba8285613e77565b602082019150613eca8284613e77565b60208201915081905095945050505050565b6000613ee882856139b7565b601482019150613ef88284613e77565b6020820191508190509392505050565b6000613f148284613a07565b915081905092915050565b6000613f2b8286613a07565b9150613f378285613a07565b9150613f438284613a07565b9150819050949350505050565b6000613f5c8284613a38565b915081905092915050565b6000613f738286613a38565b9150613f7f8285613a07565b9150613f8a82613d0a565b9150613f968284613a07565b9150819050949350505050565b6000613fae82613b89565b9150613fba8288613a07565b9150613fc582613c38565b9150613fd18287613a07565b9150613fdc82613ab7565b9150613fe88286613a07565b9150613ff382613bcf565b9150613fff8285613a07565b915061400a82613b43565b91506140168284613a07565b91508190509695505050505050565b600061403082613d96565b915061403c828b613a07565b915061404782613b20565b9150614053828a613a07565b915061405e82613d50565b915061406a8289613a07565b915061407582613d2d565b91506140818288613a07565b915061408c82613ddc565b91506140988287613a07565b91506140a382613ca1565b91506140af8286613a07565b91506140ba82613c7e565b91506140c68285613a07565b91506140d182613bf2565b91506140dd8284613a07565b91506140e882613ce7565b91508190509998505050505050505050565b600060208201905061410f600083018461393a565b92915050565b60006101008201905061412b600083018b61393a565b614138602083018a613e68565b6141456040830189613960565b614152606083018861393a565b61415f608083018761396f565b61416c60a0830186613e68565b61417960c0830185613e68565b81810360e083015261418b818461397e565b90509998505050505050505050565b60006060820190506141af600083018661393a565b6141bc6020830185613e68565b81810360408301526141ce818461397e565b9050949350505050565b60006020820190506141ed6000830184613960565b92915050565b60006040820190506142086000830185613960565b6142156020830184613960565b9392505050565b6000602082019050818103600083015261423681846139ce565b905092915050565b6000610140820190508181036000830152614259818d6139ce565b9050614268602083018c613960565b614275604083018b613e68565b614282606083018a61393a565b61428f6080830189613e68565b61429c60a0830188613e68565b6142a960c0830187613e68565b6142b660e0830186613e68565b6142c4610100830185613e68565b6142d2610120830184613e68565b9b9a5050505050505050505050565b600060208201905081810360008301526142fa81613ada565b9050919050565b6000602082019050818103600083015261431a81613afd565b9050919050565b6000602082019050818103600083015261433a81613b66565b9050919050565b6000602082019050818103600083015261435a81613bac565b9050919050565b6000602082019050818103600083015261437a81613c15565b9050919050565b6000602082019050818103600083015261439a81613c5b565b9050919050565b600060208201905081810360008301526143ba81613cc4565b9050919050565b600060208201905081810360008301526143da81613d73565b9050919050565b600060208201905081810360008301526143fa81613db9565b9050919050565b6000602082019050818103600083015261441a81613dff565b9050919050565b6000602082019050818103600083015261443a81613e22565b9050919050565b6000602082019050818103600083015261445a81613e45565b9050919050565b60006020820190506144766000830184613e68565b92915050565b60006040820190506144916000830185613e68565b61449e6020830184613e68565b9392505050565b60006060820190506144ba6000830186613e68565b6144c76020830185613e68565b6144d4604083018461393a565b949350505050565b60006144e66144f7565b90506144f28282614a2f565b919050565b6000604051905090565b600067ffffffffffffffff82111561451c5761451b614bf3565b5b61452582614c36565b9050602081019050919050565b60008190508160005260206000209050919050565b600081519050919050565b600081519050919050565b600082825260208201905092915050565b600082825260208201905092915050565b600081905092915050565b600061459582614956565b91506145a083614956565b9250827fffffffffffffffffffffffffffffffffffffffffffffffffffffffffffffffff038211156145d5576145d4614b08565b5b828201905092915050565b60006145eb82614956565b91506145f683614956565b92508261460657614605614b37565b5b828204905092915050565b6000808291508390505b600185111561465b5780860481111561463757614636614b08565b5b60018516156146465780820291505b808102905061465485614c54565b945061461b565b94509492505050565b600061466f82614956565b915061467a83614956565b92506146a77fffffffffffffffffffffffffffffffffffffffffffffffffffffffffffffffff84846146af565b905092915050565b6000826146bf576001905061477b565b816146cd576000905061477b565b81600181146146e357600281146146ed5761471c565b600191505061477b565b60ff8411156146ff576146fe614b08565b5b8360020a91508482111561471657614715614b08565b5b5061477b565b5060208310610133831016604e8410600b84101617156147515782820a90508381111561474c5761474b614b08565b5b61477b565b61475e8484846001614611565b9250905081840481111561477557614774614b08565b5b81810290505b9392505050565b600061478d82614956565b915061479883614956565b9250817fffffffffffffffffffffffffffffffffffffffffffffffffffffffffffffffff04831182151516156147d1576147d0614b08565b5b828202905092915050565b60006147e78261492c565b91506147f28361492c565b9250827f80000000000000000000000000000000000000000000000000000000000000000182126000841215161561482d5761482c614b08565b5b827f7fffffffffffffffffffffffffffffffffffffffffffffffffffffffffffffff01821360008412161561486557614864614b08565b5b828203905092915050565b600061487b82614956565b915061488683614956565b92508282101561489957614898614b08565b5b828203905092915050565b60006148af82614960565b91506148ba83614960565b9250828210156148cd576148cc614b08565b5b828203905092915050565b60006148e382614936565b9050919050565b60008115159050919050565b6000819050919050565b60007fffffffff0000000000000000000000000000000000000000000000000000000082169050919050565b6000819050919050565b600073ffffffffffffffffffffffffffffffffffffffff82169050919050565b6000819050919050565b600060ff82169050919050565b60006149788261497f565b9050919050565b600061498a82614936565b9050919050565b82818337600083830152505050565b60005b838110156149be5780820151818401526020810190506149a3565b838111156149cd576000848401525b50505050565b60006149de82614956565b915060008214156149f2576149f1614b08565b5b600182039050919050565b60006002820490506001821680614a1557607f821691505b60208210811415614a2957614a28614b95565b5b50919050565b614a3882614c36565b810181811067ffffffffffffffff82111715614a5757614a56614bf3565b5b80604052505050565b6000614a6b82614956565b91507fffffffffffffffffffffffffffffffffffffffffffffffffffffffffffffffff821415614a9e57614a9d614b08565b5b600182019050919050565b6000614ab482614abb565b9050919050565b6000614ac682614c47565b9050919050565b6000819050919050565b6000614ae282614956565b9150614aed83614956565b925082614afd57614afc614b37565b5b828206905092915050565b7f4e487b7100000000000000000000000000000000000000000000000000000000600052601160045260246000fd5b7f4e487b7100000000000000000000000000000000000000000000000000000000600052601260045260246000fd5b7f4e487b7100000000000000000000000000000000000000000000000000000000600052602160045260246000fd5b7f4e487b7100000000000000000000000000000000000000000000000000000000600052602260045260246000fd5b7f4e487b7100000000000000000000000000000000000000000000000000000000600052603260045260246000fd5b7f4e487b7100000000000000000000000000000000000000000000000000000000600052604160045260246000fd5b600080fd5b600080fd5b600080fd5b600080fd5b6000601f19601f8301169050919050565b60008160601b9050919050565b60008160011c9050919050565b7f3a200a506f6c69637949643a2000000000000000000000000000000000000000600082015250565b7f537472696e67733a20686578206c656e67746820696e73756666696369656e74600082015250565b7f7468652070726576696f7573206f776e65722069732077726f6e670000000000600082015250565b7f2c200a5061796f66663a20000000000000000000000000000000000000000000600082015250565b7f2c200a4275796572416464726573733a20000000000000000000000000000000600082015250565b7f77726f6e6720666c69676874206e756d6265722070726f766964656400000000600082015250565b7f0a506f6c69637900000000000000000000000000000000000000000000000000600082015250565b7f756e61626c6520746f207472616e73666572416e6443616c6c20746f206f726160008201527f636c650000000000000000000000000000000000000000000000000000000000602082015250565b7f2c200a50726f6475637449643a20000000000000000000000000000000000000600082015250565b7f2c200a44656c617920526573756c74733a200000000000000000000000000000600082015250565b7f6f6e6c792063616c6c65642066726f6d2074686520706f6c69637920746f6b6560008201527f6e20636f6e747261637400000000000000000000000000000000000000000000602082015250565b7f3a200a7b466c696768744e756d6265723a200000000000000000000000000000600082015250565b7f4552524f523a3a54494d455f544f5f4445504152545552455f544f4f5f534d4160008201527f4c4c000000000000000000000000000000000000000000000000000000000000602082015250565b7f2c200a4973557365643a20000000000000000000000000000000000000000000600082015250565b7f2c200a5374617475733a20000000000000000000000000000000000000000000600082015250565b7f6e6f20706f6c69637920666f7220746869732075736572000000000000000000600082015250565b7f7d00000000000000000000000000000000000000000000000000000000000000600082015250565b7f2f74696d657374616d703d000000000000000000000000000000000000000000600082015250565b7f2c200a446570617274757265446174653a200000000000000000000000000000600082015250565b7f2c200a5075726368617365446174653a20000000000000000000000000000000600082015250565b7f63616e206f6e6c7920636c61696d206120706f6c69637920616674657220697460008201527f73206c616e64696e670000000000000000000000000000000000000000000000602082015250565b7f2c200a5072656d69756d3a200000000000000000000000000000000000000000600082015250565b7f6f6e6c7920746865206f776e65722063616e2063616c6c20746869732066756e60008201527f6374696f6e000000000000000000000000000000000000000000000000000000602082015250565b7f2c200a4c616e64696e67446174653a2000000000000000000000000000000000600082015250565b7f54686520706f6c69637920686173206265656e2066696e616c20636865636b6560008201527f642c206f7220796f75206e65656420746f20666f726365207570646174650000602082015250565b7f536f75726365206d75737420626520746865206f7261636c65206f662074686560008201527f2072657175657374000000000000000000000000000000000000000000000000602082015250565b7f6e6f742073756666696369656e7420636170616369747920696e20746865206960008201527f6e737572616e636520706f6f6c00000000000000000000000000000000000000602082015250565b6151ed816148d8565b81146151f857600080fd5b50565b615204816148ea565b811461520f57600080fd5b50565b61521b816148f6565b811461522657600080fd5b50565b61523281614956565b811461523d57600080fd5b5056fea2646970667358221220ca0f99c313311757749b055e673538e71135fdee6e2bc8952a3e21d955903d4164736f6c63430008050033",
  "immutableReferences": {},
  "source": "// SPDX-License-Identifier: MIT\npragma solidity ^0.8.0;\n\nimport \"./libraries/PolicyTypes.sol\";\nimport \"./libraries/ToStrings.sol\";\nimport \"./interfaces/IInsurancePool.sol\";\nimport \"@chainlink/contracts/src/v0.8/ChainlinkClient.sol\";\nimport \"@openzeppelin/contracts/utils/Strings.sol\";\nimport \"./interfaces/IPolicyToken.sol\";\n\ncontract PolicyFlow is ChainlinkClient, PolicyTypes, ToStrings {\n    using Chainlink for Chainlink.Request;\n    using Strings for uint256;\n\n    uint256 public oracleResponse; // A test variable to store the oracle address\n    uint256 fee;\n    string private FLIGHT_STATUS_URL = \"http://39.101.132.228:8000/live/\";\n    address private oracleAddress;\n    bytes32 private jobId;\n\n    mapping(bytes32 => uint256) requestList; // requestId => total order\n    mapping(uint256 => uint256) resultList; // total order => delay result\n\n    address public owner;\n    IInsurancePool insurancePool;\n    IPolicyToken policyToken;\n\n    // Minimum time before departure for applying\n    uint256 public MIN_TIME_BEFORE_DEPARTURE = 24 hours;\n    uint256 public DELAY_THRESHOLD = 240;\n    uint256 public Total_Policies;\n\n    // Mappings\n    mapping(bytes32 => PolicyInfo) policyList; // policyId => policyInfo\n    mapping(uint256 => bytes32) policyOrderList; // total order => policyId\n\n    mapping(address => uint256[]) userPolicy; // uint256[]: those totalOrders of a user\n    mapping(address => uint256) userPolicyCount; // userAddress => user policy amount\n\n    // Constructor Function\n    constructor(\n        IInsurancePool _insurancePool,\n        IPolicyToken _policyToken,\n        address _oracleAddress\n    ) {\n        // Set owner address\n        owner = msg.sender;\n\n        // Set two interfaces' addresses\n        insurancePool = _insurancePool;\n        policyToken = _policyToken;\n\n        // Set oracle address\n        oracleAddress = _oracleAddress;\n        jobId = \"cef74a7ff7ea4194ab97f00c89abef6b\";\n\n        setPublicChainlinkToken();\n        fee = 1 * 10**18; // 1 LINK\n\n        // Initialize the count (actually do not need to initialize)\n        Total_Policies = 0;\n    }\n\n    // ************************************ Modifiers ************************************ //\n\n    modifier onlyOracle() {\n        require(\n            msg.sender == oracleAddress,\n            \"only the oracle can call this function\"\n        );\n        _;\n    }\n    modifier onlyOwner() {\n        require(msg.sender == owner, \"only the owner can call this function\");\n        _;\n    }\n\n    // ************************************ View Functions ************************************ //\n\n    /**\n     * @notice Returns the address of the LINK token\n     * @dev This is the public implementation for chainlinkTokenAddress, which is\n     * an internal method of the ChainlinkClient contract\n     */\n    function getChainlinkToken() public view returns (address) {\n        return chainlinkTokenAddress();\n    }\n\n    /**\n     * @notice show a user's policies (all)\n     * @param _userAddress: user's address (buyer)\n     * @return user's policy details\n     */\n    function viewPolicy(address _userAddress)\n        public\n        view\n        returns (string memory)\n    {\n        require(userPolicyCount[_userAddress] > 0, \"no policy for this user\");\n\n        uint256 policyCount = userPolicyCount[_userAddress];\n        string memory result = \" \";\n        for (uint256 i = 0; i < policyCount; i++) {\n            uint256 policyOrder = userPolicy[_userAddress][i];\n\n            bytes32 policyid = policyOrderList[policyOrder];\n\n            string memory isUsed = policyList[policyid].isUsed\n                ? \"used\"\n                : \"not used\";\n\n            string memory result1 = encodePack1(\n                i,\n                policyList[policyid].flightNumber,\n                policyid,\n                policyList[policyid].productId,\n                policyList[policyid].buyerAddress\n            );\n            string memory result2 = encodePack2(\n                policyList[policyid].premium,\n                policyList[policyid].payoff,\n                policyList[policyid].purchaseDate,\n                policyList[policyid].departureDate,\n                policyList[policyid].landingDate,\n                uint256(policyList[policyid].status),\n                isUsed,\n                policyList[policyid].delayResult\n            );\n\n            result = string(abi.encodePacked(result, result1, result2));\n\n            // result = string(\n            //     abi.encodePacked(\n            //         result,\n            //         string(\n            //             abi.encodePacked(\n            //                 \"\\nPolicy\",\n            //                 i.toString(),\n            //                 \": \\n{PolicyId: \",\n            //                 bytes32ToString(policyid),\n            //                 \", \\nProductId: \",\n            //                 policyList[policyid].productId.toString(),\n            //                 \", \\nBuyerAddress: \",\n            //                 addressToString(policyList[policyid].buyerAddress),\n            //                 \", \\nPremium: \",\n            //                 (policyList[policyid].premium / 10**18).toString(),\n            //                 \", \\nPayoff: \",\n            //                 (policyList[policyid].payoff / 10**18).toString(),\n            //                 \", \\nPurchaseDate: \",\n            //                 (policyList[policyid].purchaseDate).toString(),\n            //                 \", \\nDepartureDate: \",\n            //                 (policyList[policyid].departureDate).toString(),\n            //                 \", \\nLandingDate: \",\n            //                 (policyList[policyid].landingDate).toString(),\n            //                 \", \\nStatus: \",\n            //                 uint256(policyList[policyid].status).toString(),\n            //                 \", \\nIsUsed: \",\n            //                 isUsed,\n            //                 \", \\nDelay Results: \",\n            //                 policyList[policyid].delayResult.toString(),\n            //                 \"}\"\n            //             )\n            //         )\n            //     )\n            // );\n        }\n        return result;\n    }\n\n    /**\n     * @notice get the policyId (bytes32) from its count/order\n     * @param _count: total count\n     * @return policyId (bytes32)\n     */\n    function getPolicyIdByCount(uint256 _count) public view returns (bytes32) {\n        return policyOrderList[_count];\n    }\n\n    /**\n     * @notice get the policyInfo from its count/order\n     * @param _count: total count\n     */\n    function getPolicyInfoByCount(uint256 _count)\n        public\n        view\n        returns (\n            string memory _flightNumber,\n            bytes32 _policyId,\n            uint256 _productId,\n            address _owner,\n            uint256 _premium,\n            uint256 _payoff,\n            uint256 _purchaseDate,\n            uint256 _departureDate,\n            uint256 _landingDate,\n            uint256 _policyStatus\n        )\n    {\n        bytes32 policyId = policyOrderList[_count];\n        return (\n            policyList[policyId].flightNumber,\n            policyId,\n            policyList[policyId].productId,\n            policyList[policyId].buyerAddress,\n            policyList[policyId].premium,\n            policyList[policyId].payoff,\n            policyList[policyId].purchaseDate,\n            policyList[policyId].departureDate,\n            policyList[policyId].landingDate,\n            uint256(policyList[policyId].status)\n        );\n    }\n\n    /**\n     * @notice get a user's policy amount\n     * @param _userAddress: user's address\n     */\n    function getUserPolicyCount(address _userAddress)\n        public\n        view\n        returns (uint256)\n    {\n        return userPolicyCount[_userAddress];\n    }\n\n    /**\n     * @notice get the policy buyer by policyId\n     */\n    function findPolicyBuyerById(bytes32 _policyId)\n        public\n        view\n        returns (address)\n    {\n        return policyList[_policyId].buyerAddress;\n    }\n\n    // ************************************ Helper Functions ************************************ //\n\n    /**\n     * @notice change the job id\n     * @param _jobId: new job Id\n     */\n    function changeJobId(bytes32 _jobId) public onlyOwner {\n        jobId = _jobId;\n    }\n\n    /**\n     * @notice change the oracle fee\n     * @param _fee: new fee\n     */\n    function changeFee(uint256 _fee) public onlyOwner {\n        fee = _fee;\n    }\n\n    function changeMinTimeBeforeDeparture(uint256 _newTime) public onlyOwner {\n        MIN_TIME_BEFORE_DEPARTURE = _newTime;\n    }\n\n    /**\n     * @notice change the oracle address\n     * @param _oracleAddress: new oracle address\n     */\n    function changeOrcaleAddress(address _oracleAddress) public onlyOwner {\n        oracleAddress = _oracleAddress;\n    }\n\n    /**\n     * @notice set the new delay threshold\n     */\n    function setDelayThreshold(uint256 _threshold) public onlyOwner {\n        DELAY_THRESHOLD = _threshold;\n    }\n\n    // ************************************ Main Functions ************************************ //\n\n    /**\n     * @notice start a new policy application\n     * @param _userAddress: user's address (buyer)\n     * @param _productId: ID of the purchased product (0: flightdelay; 1,2,3...: others) (different products)\n     * @param _premium: premium of this policy (decimal 18)\n     * @param _payoff: payoff of this policy (decimal 18)\n     * @param _departureDate: expiry date of this policy (unix timestamp)\n     */\n    function newApplication(\n        address _userAddress,\n        uint256 _productId,\n        string memory _flightNumber,\n        uint256 _premium,\n        uint256 _payoff,\n        uint256 _departureDate,\n        uint256 _landingDate\n    ) public returns (bytes32 _policyId) {\n        // Check the buying time not too close to the departure time\n        require(\n            _departureDate >= block.timestamp + MIN_TIME_BEFORE_DEPARTURE,\n            \"ERROR::TIME_TO_DEPARTURE_TOO_SMALL\"\n        );\n\n        // Generate the unique policyId\n        bytes32 policyId = keccak256(\n            abi.encodePacked(\n                _userAddress,\n                _productId,\n                _departureDate,\n                Total_Policies\n            )\n        );\n\n        // Check the policy with the insurance pool status\n        // May be accepted or rejected\n        policyCheck(_premium, _payoff, _userAddress, policyId);\n\n        uint256 TEMP_purchaseDate = block.timestamp;\n\n        // Generate the policy\n        policyList[policyId] = PolicyInfo(\n            _productId,\n            _userAddress,\n            Total_Policies,\n            _flightNumber,\n            policyId,\n            _premium,\n            _payoff,\n            TEMP_purchaseDate,\n            _departureDate,\n            _landingDate,\n            PolicyStatus.INI,\n            false,\n            404\n        );\n\n        // Store the policy's total order with userAddress\n        userPolicy[_userAddress].push(Total_Policies);\n        // Update the user's policy amount\n        userPolicyCount[_userAddress] += 1;\n        // Update the policyOrderList\n        policyOrderList[Total_Policies] = policyId;\n        // Update total policies\n        Total_Policies += 1;\n\n        emit newPolicyApplication(policyId, _userAddress);\n\n        return policyId;\n    }\n\n    /** @notice calculate the flight status\n     *  @param _policyOrder The total order of the policy\n     *  @param _flightNumber The flight number\n     *  @param _date The flight date\n     *  @param _path Which data in json needs to get\n     *  @param _forceUpdate Owner can force to update\n     */\n    function newClaimRequest(\n        uint256 _policyOrder,\n        string memory _flightNumber,\n        string memory _date,\n        string memory _path,\n        bool _forceUpdate\n    ) public onlyOwner {\n        bytes32 _policyId = policyOrderList[_policyOrder];\n        require(\n            block.timestamp >= policyList[_policyId].landingDate,\n            \"can only claim a policy after its landing\"\n        );\n        require(\n            (!policyList[_policyId].isUsed) ||\n                (_forceUpdate && (msg.sender == owner)),\n            \"The policy has been final checked, or you need to force update\"\n        );\n        require(\n            keccak256(abi.encodePacked(_flightNumber)) ==\n                keccak256(abi.encodePacked(policyList[_policyId].flightNumber)),\n            \"wrong flight number provided\"\n        );\n\n        string memory _url = string(\n            abi.encodePacked(\n                FLIGHT_STATUS_URL,\n                _flightNumber,\n                \"/timestamp=\",\n                _date\n            )\n        );\n        bytes32 requestId = createRequestTo(\n            oracleAddress,\n            jobId,\n            fee,\n            _url,\n            _path,\n            1\n        );\n        requestList[requestId] = _policyOrder;\n        policyList[_policyId].isUsed = true;\n    }\n\n    /**\n     * @notice check the policy and then determine whether we can afford it\n     * @param _payoff: the payoff of the policy sold\n     * @param _userAddress: user's address\n     * @param _policyId: the unique policy ID\n     */\n    function policyCheck(\n        uint256 _premium,\n        uint256 _payoff,\n        address _userAddress,\n        bytes32 _policyId\n    ) internal {\n        // Whether there are enough capacity in the pool\n        bool _isAccepted = insurancePool.checkCapacity(_payoff);\n\n        if (_isAccepted) {\n            insurancePool.updateWhenBuy(_premium, _payoff, _userAddress);\n            policyList[_policyId].status = PolicyStatus.SOLD;\n            emit PolicySold(_policyId, _userAddress);\n\n            policyToken.mintPolicyToken(_userAddress);\n        } else {\n            policyList[_policyId].status = PolicyStatus.DECLINED;\n            emit PolicyDeclined(_policyId, _userAddress);\n            revert(\"not sufficient capacity in the insurance pool\");\n        }\n    }\n\n    /**\n     * @notice Creates a request to the specified Oracle contract address\n     * @dev This function ignores the stored Oracle contract address and\n     * will instead send the request to the address specified\n     * @param _oracle The Oracle contract address to send the request to\n     * @param _jobId The bytes32 JobID to be executed\n     * @param _url The URL to fetch data from\n     * @param _path The dot-delimited path to parse of the response\n     * @param _times The number to multiply the result by\n     */\n    function createRequestTo(\n        address _oracle,\n        bytes32 _jobId,\n        uint256 _payment,\n        string memory _url,\n        string memory _path,\n        int256 _times\n    ) private returns (bytes32) {\n        Chainlink.Request memory req = buildChainlinkRequest(\n            _jobId,\n            address(this),\n            this.fulfill.selector\n        );\n        req.add(\"url\", _url);\n        req.add(\"path\", _path);\n        req.addInt(\"times\", _times);\n        return sendChainlinkRequestTo(_oracle, req, _payment);\n    }\n\n    /**\n     * @notice The fulfill method from requests created by this contract\n     * @dev The recordChainlinkFulfillment protects this function from being called\n     * by anyone other than the oracle address that the request was sent to\n     * @param _requestId The ID that was generated for the request\n     * @param _data The answer provided by the oracle\n     */\n    function fulfill(bytes32 _requestId, uint256 _data)\n        public\n        recordChainlinkFulfillment(_requestId)\n    {\n        oracleResponse = _data;\n\n        uint256 order = requestList[_requestId];\n        bytes32 policyId = policyOrderList[order];\n        policyList[policyId].delayResult = _data;\n\n        if (_data == 0) {\n            // 0: on time\n            policyExpired(\n                policyList[policyId].premium,\n                policyList[policyId].payoff,\n                policyList[policyId].buyerAddress,\n                policyId\n            );\n        } else if (_data <= DELAY_THRESHOLD) {\n            uint256 payoff = calcPayoff(_data);\n            if (payoff < policyList[policyId].payoff) {\n                policyClaimed(\n                    policyList[policyId].premium,\n                    payoff,\n                    policyList[policyId].buyerAddress,\n                    policyId\n                );\n            } else {\n                policyClaimed(\n                    policyList[policyId].premium,\n                    policyList[policyId].payoff,\n                    policyList[policyId].buyerAddress,\n                    policyId\n                );\n            }\n        } else if (_data == 400) {\n            // 400: cancelled\n            policyClaimed(\n                policyList[policyId].premium,\n                policyList[policyId].payoff,\n                policyList[policyId].buyerAddress,\n                policyId\n            );\n        } else {\n            policyExpired(\n                policyList[policyId].premium,\n                policyList[policyId].payoff,\n                policyList[policyId].buyerAddress,\n                policyId\n            );\n        }\n\n        emit FulfilledOracleRequest(policyId, _requestId);\n    }\n\n    /**\n     * @notice update the policy when it is expired\n     * @param _premium: the premium of the policy sold\n     * @param _payoff: the payoff of the policy sold\n     * @param _userAddress: user's address\n     * @param _policyId: the unique policy ID\n     */\n    function policyExpired(\n        uint256 _premium,\n        uint256 _payoff,\n        address _userAddress,\n        bytes32 _policyId\n    ) internal {\n        insurancePool.updateWhenExpire(_premium, _payoff);\n        policyList[_policyId].status = PolicyStatus.EXPIRED;\n        emit PolicyExpired(_policyId, _userAddress);\n    }\n\n    /**\n     * @notice update the policy when it is claimed\n     * @param _premium: the premium of the policy sold\n     * @param _payoff: the payoff of the policy sold\n     * @param _userAddress: user's address\n     * @param _policyId: the unique policy ID\n     */\n    function policyClaimed(\n        uint256 _premium,\n        uint256 _payoff,\n        address _userAddress,\n        bytes32 _policyId\n    ) internal {\n        insurancePool.payClaim(_premium, _payoff, _userAddress);\n        policyList[_policyId].status = PolicyStatus.CLAIMED;\n        emit PolicyClaimed(_policyId, _userAddress);\n    }\n\n    /**\n     * @notice The payoff formula\n     * @param _delay Delay in minutes\n     * @return the final payoff volume\n     */\n    function calcPayoff(uint256 _delay) internal pure returns (uint256) {\n        uint256 payoff = 0;\n\n        // payoff model 1 - linear\n        if (_delay <= 60) {\n            payoff = _delay;\n        } else if (_delay > 60 && _delay <= 120) {\n            payoff = 60 + (_delay - 60) * 2;\n        } else if (_delay > 120 && _delay <= 240) {\n            payoff = 180 + (_delay - 120) * 3;\n        }\n\n        payoff = payoff * 1e18;\n        return payoff;\n    }\n\n    function policyOwnerTransfer(\n        uint256 _tokenId,\n        address _oldOwner,\n        address _newOwner\n    ) external {\n        require(\n            msg.sender == address(policyToken),\n            \"only called from the policy token contract\"\n        );\n\n        bytes32 policyId = policyOrderList[_tokenId];\n        require(\n            _oldOwner == policyList[policyId].buyerAddress,\n            \"the previous owner is wrong\"\n        );\n\n        policyList[policyId].buyerAddress = _newOwner;\n        emit PolicyOwnerTransfer(_tokenId, _newOwner);\n    }\n\n    function encodePack1(\n        uint256 _order,\n        string memory _flightNumber,\n        bytes32 _policyId,\n        uint256 _productId,\n        address _userAddress\n    ) internal pure returns (string memory _result1) {\n        _result1 = string(\n            abi.encodePacked(\n                \"\\nPolicy\",\n                _order.toString(),\n                \": \\n{FlightNumber: \",\n                _flightNumber,\n                \": \\nPolicyId: \",\n                bytes32ToString(_policyId),\n                \", \\nProductId: \",\n                _productId.toString(),\n                \", \\nBuyerAddress: \",\n                addressToString(_userAddress)\n            )\n        );\n    }\n\n    function encodePack2(\n        uint256 _premium,\n        uint256 _payoff,\n        uint256 _purchaseDate,\n        uint256 _departureDate,\n        uint256 _landingDate,\n        uint256 _status,\n        string memory _isUsed,\n        uint256 _delayResult\n    ) internal pure returns (string memory _result2) {\n        _result2 = string(\n            abi.encodePacked(\n                \", \\nPremium: \",\n                (_premium / 10**18).toString(),\n                \", \\nPayoff: \",\n                (_payoff / 10**18).toString(),\n                \", \\nPurchaseDate: \",\n                (_purchaseDate).toString(),\n                \", \\nDepartureDate: \",\n                (_departureDate).toString(),\n                \", \\nLandingDate: \",\n                (_landingDate).toString(),\n                \", \\nStatus: \",\n                uint256(_status).toString(),\n                \", \\nIsUsed: \",\n                _isUsed,\n                \", \\nDelay Results: \",\n                _delayResult.toString(),\n                \"}\"\n            )\n        );\n    }\n}\n",
  "sourcePath": "/Volumes/Store/src/Degis-Contracts-1/contracts/PolicyFlow.sol",
  "compiler": {
    "name": "solc",
    "version": "0.8.5+commit.a4f2e591.Emscripten.clang"
  },
  "schemaVersion": "3.4.3",
  "updatedAt": "2021-10-20T11:20:37.796Z",
  "devdoc": {
    "kind": "dev",
    "methods": {
      "addressToString(address)": {
        "params": {
          "_addr": ": input address"
        },
        "returns": {
          "_0": "string form of _addr"
        }
      },
      "bytes32ToHumanString(bytes32)": {
        "params": {
          "_bytes": ": input bytes32"
        },
        "returns": {
          "_0": "string form of _bytes"
        }
      },
      "bytes32ToString(bytes32)": {
        "params": {
          "_bytes": ": input bytes32"
        },
        "returns": {
          "_0": "string form of _bytes"
        }
      },
      "bytesToUint(bytes32)": {
        "params": {
          "s": "input bytes"
        },
        "returns": {
          "_0": "the number"
        }
      },
      "changeFee(uint256)": {
        "params": {
          "_fee": ": new fee"
        }
      },
      "changeJobId(bytes32)": {
        "params": {
          "_jobId": ": new job Id"
        }
      },
      "changeOrcaleAddress(address)": {
        "params": {
          "_oracleAddress": ": new oracle address"
        }
      },
      "fulfill(bytes32,uint256)": {
        "details": "The recordChainlinkFulfillment protects this function from being called by anyone other than the oracle address that the request was sent to",
        "params": {
          "_data": "The answer provided by the oracle",
          "_requestId": "The ID that was generated for the request"
        }
      },
      "getChainlinkToken()": {
        "details": "This is the public implementation for chainlinkTokenAddress, which is an internal method of the ChainlinkClient contract"
      },
      "getPolicyIdByCount(uint256)": {
        "params": {
          "_count": ": total count"
        },
        "returns": {
          "_0": "policyId (bytes32)"
        }
      },
      "getPolicyInfoByCount(uint256)": {
        "params": {
          "_count": ": total count"
        }
      },
      "getUserPolicyCount(address)": {
        "params": {
          "_userAddress": ": user's address"
        }
      },
      "newApplication(address,uint256,string,uint256,uint256,uint256,uint256)": {
        "params": {
          "_departureDate": ": expiry date of this policy (unix timestamp)",
          "_payoff": ": payoff of this policy (decimal 18)",
          "_premium": ": premium of this policy (decimal 18)",
          "_productId": ": ID of the purchased product (0: flightdelay; 1,2,3...: others) (different products)",
          "_userAddress": ": user's address (buyer)"
        }
      },
      "newClaimRequest(uint256,string,string,string,bool)": {
        "params": {
          "_date": "The flight date",
          "_flightNumber": "The flight number",
          "_forceUpdate": "Owner can force to update",
          "_path": "Which data in json needs to get",
          "_policyOrder": "The total order of the policy"
        }
      },
      "viewPolicy(address)": {
        "params": {
          "_userAddress": ": user's address (buyer)"
        },
        "returns": {
          "_0": "user's policy details"
        }
      }
    },
    "version": 1
  },
  "userdoc": {
    "kind": "user",
    "methods": {
      "addressToString(address)": {
        "notice": "transfer an address to a string"
      },
      "bytes32ToHumanString(bytes32)": {
        "notice": "transfer bytes32 to string (human-readable form)"
      },
      "bytes32ToString(bytes32)": {
        "notice": "transfer bytes32 to string (not change the content)"
      },
      "bytesToUint(bytes32)": {
        "notice": "Transfer a bytes(ascii) to uint"
      },
      "changeFee(uint256)": {
        "notice": "change the oracle fee"
      },
      "changeJobId(bytes32)": {
        "notice": "change the job id"
      },
      "changeOrcaleAddress(address)": {
        "notice": "change the oracle address"
      },
      "findPolicyBuyerById(bytes32)": {
        "notice": "get the policy buyer by policyId"
      },
      "fulfill(bytes32,uint256)": {
        "notice": "The fulfill method from requests created by this contract"
      },
      "getChainlinkToken()": {
        "notice": "Returns the address of the LINK token"
      },
      "getPolicyIdByCount(uint256)": {
        "notice": "get the policyId (bytes32) from its count/order"
      },
      "getPolicyInfoByCount(uint256)": {
        "notice": "get the policyInfo from its count/order"
      },
      "getUserPolicyCount(address)": {
        "notice": "get a user's policy amount"
      },
      "newApplication(address,uint256,string,uint256,uint256,uint256,uint256)": {
        "notice": "start a new policy application"
      },
      "newClaimRequest(uint256,string,string,string,bool)": {
        "notice": "calculate the flight status"
      },
      "setDelayThreshold(uint256)": {
        "notice": "set the new delay threshold"
      },
      "viewPolicy(address)": {
        "notice": "show a user's policies (all)"
      }
    },
    "version": 1
  }
}