{
    "contractName": "NaughtyRouter",
    "abi": [
        {
            "inputs": [
                {
                    "internalType": "address",
                    "name": "_factory",
                    "type": "address"
                }
            ],
            "stateMutability": "nonpayable",
            "type": "constructor"
        },
        {
            "inputs": [],
            "name": "factory",
            "outputs": [
                {
                    "internalType": "address",
                    "name": "",
                    "type": "address"
                }
            ],
            "stateMutability": "view",
            "type": "function",
            "constant": true
        },
        {
            "inputs": [],
            "name": "owner",
            "outputs": [
                {
                    "internalType": "address",
                    "name": "",
                    "type": "address"
                }
            ],
            "stateMutability": "view",
            "type": "function",
            "constant": true
        },
        {
            "inputs": [],
            "name": "policyCore",
            "outputs": [
                {
                    "internalType": "address",
                    "name": "",
                    "type": "address"
                }
            ],
            "stateMutability": "view",
            "type": "function",
            "constant": true
        },
        {
            "inputs": [
                {
                    "internalType": "address",
                    "name": "_coreAddress",
                    "type": "address"
                }
            ],
            "name": "setPolicyCore",
            "outputs": [],
            "stateMutability": "nonpayable",
            "type": "function"
        },
        {
            "inputs": [
                {
                    "internalType": "address",
                    "name": "_token0",
                    "type": "address"
                },
                {
                    "internalType": "address",
                    "name": "_token1",
                    "type": "address"
                },
                {
                    "internalType": "uint256",
                    "name": "_amountADesired",
                    "type": "uint256"
                },
                {
                    "internalType": "uint256",
                    "name": "_amountBDesired",
                    "type": "uint256"
                },
                {
                    "internalType": "uint256",
                    "name": "_amountAMin",
                    "type": "uint256"
                },
                {
                    "internalType": "uint256",
                    "name": "_amountBMin",
                    "type": "uint256"
                },
                {
                    "internalType": "address",
                    "name": "_to",
                    "type": "address"
                },
                {
                    "internalType": "uint256",
                    "name": "_deadline",
                    "type": "uint256"
                }
            ],
            "name": "addLiquidity",
            "outputs": [
                {
                    "internalType": "uint256",
                    "name": "amountA",
                    "type": "uint256"
                },
                {
                    "internalType": "uint256",
                    "name": "amountB",
                    "type": "uint256"
                },
                {
                    "internalType": "uint256",
                    "name": "liquidity",
                    "type": "uint256"
                }
            ],
            "stateMutability": "nonpayable",
            "type": "function"
        },
        {
            "inputs": [
                {
                    "internalType": "address",
                    "name": "_tokenA",
                    "type": "address"
                },
                {
                    "internalType": "address",
                    "name": "_tokenB",
                    "type": "address"
                },
                {
                    "internalType": "uint256",
                    "name": "_liquidity",
                    "type": "uint256"
                },
                {
                    "internalType": "uint256",
                    "name": "_amountAMin",
                    "type": "uint256"
                },
                {
                    "internalType": "uint256",
                    "name": "_amountBMin",
                    "type": "uint256"
                },
                {
                    "internalType": "address",
                    "name": "_to",
                    "type": "address"
                },
                {
                    "internalType": "uint256",
                    "name": "_deadline",
                    "type": "uint256"
                }
            ],
            "name": "removeLiquidity",
            "outputs": [
                {
                    "internalType": "uint256",
                    "name": "amount0",
                    "type": "uint256"
                },
                {
                    "internalType": "uint256",
                    "name": "amount1",
                    "type": "uint256"
                }
            ],
            "stateMutability": "nonpayable",
            "type": "function"
        },
        {
            "inputs": [
                {
                    "internalType": "uint256",
                    "name": "_amountInMax",
                    "type": "uint256"
                },
                {
                    "internalType": "uint256",
                    "name": "_amountOut",
                    "type": "uint256"
                },
                {
                    "internalType": "address",
                    "name": "_tokenIn",
                    "type": "address"
                },
                {
                    "internalType": "address",
                    "name": "_tokenOut",
                    "type": "address"
                },
                {
                    "internalType": "address",
                    "name": "_to",
                    "type": "address"
                },
                {
                    "internalType": "uint256",
                    "name": "_deadline",
                    "type": "uint256"
                }
            ],
            "name": "swapTokensforExactTokens",
            "outputs": [
                {
                    "internalType": "uint256",
                    "name": "amounts",
                    "type": "uint256"
                }
            ],
            "stateMutability": "nonpayable",
            "type": "function"
        },
        {
            "inputs": [
                {
                    "internalType": "uint256",
                    "name": "_amountIn",
                    "type": "uint256"
                },
                {
                    "internalType": "uint256",
                    "name": "_amountOutMin",
                    "type": "uint256"
                },
                {
                    "internalType": "address",
                    "name": "_tokenIn",
                    "type": "address"
                },
                {
                    "internalType": "address",
                    "name": "_tokenOut",
                    "type": "address"
                },
                {
                    "internalType": "address",
                    "name": "_to",
                    "type": "address"
                },
                {
                    "internalType": "uint256",
                    "name": "_deadline",
                    "type": "uint256"
                }
            ],
            "name": "swapExactTokensforTokens",
            "outputs": [
                {
                    "internalType": "uint256",
                    "name": "amounts",
                    "type": "uint256"
                }
            ],
            "stateMutability": "nonpayable",
            "type": "function"
        }
    ],
    "bytecode": "0x608060405234801561001057600080fd5b5060405161194638038061194683398101604081905261002f91610062565b60028054336001600160a01b031991821617909155600080549091166001600160a01b0392909216919091179055610092565b60006020828403121561007457600080fd5b81516001600160a01b038116811461008b57600080fd5b9392505050565b6118a5806100a16000396000f3fe608060405234801561001057600080fd5b50600436106100885760003560e01c8063baa2abde1161005b578063baa2abde14610106578063c45a01551461012e578063e30145e014610141578063e8e337001461015457600080fd5b80630a7af5c61461008d5780631a771f0a146100b357806337864999146100c65780638da5cb5b146100db575b600080fd5b6100a061009b36600461146b565b610182565b6040519081526020015b60405180910390f35b6100a06100c136600461146b565b610495565b6100d96100d43660046114d2565b610718565b005b6002546100ee906001600160a01b031681565b6040516001600160a01b0390911681526020016100aa565b6101196101143660046114ef565b6107a2565b604080519283526020830191909152016100aa565b6000546100ee906001600160a01b031681565b6001546100ee906001600160a01b031681565b610167610162366004611561565b6109ac565b604080519384526020840192909252908201526060016100aa565b6000818042106101ad5760405162461bcd60e51b81526004016101a4906115dd565b60405180910390fd5b60008054604051630a49a03f60e31b815273__NaughtyLibrary________________________9163524d01f8916101f4916001600160a01b0316908b908b9060040161160a565b60206040518083038186803b15801561020c57600080fd5b505af4158015610220573d6000803e3d6000fd5b505050506040513d601f19601f82011682018060405250810190610244919061162d565b90506000816001600160a01b03166329dcb0cf6040518163ffffffff1660e01b815260040160206040518083038186803b15801561028157600080fd5b505afa158015610295573d6000803e3d6000fd5b505050506040513d601f19601f820116820180604052508101906102b9919061164a565b9050804211156102db5760405162461bcd60e51b81526004016101a490611663565b6000546102f3906001600160a01b03168b8a8a610b2e565b9350888410156103455760405162461bcd60e51b815260206004820152601760248201527f657863657373697665206f757470757420616d6f756e7400000000000000000060448201526064016101a4565b61035a6001600160a01b03891633848d610b6a565b60015460405163bf4a1b5f60e01b81526001600160a01b039182166004820152908916602482015260009073__NaughtyLibrary________________________9063bf4a1b5f9060440160206040518083038186803b1580156103bc57600080fd5b505af41580156103d0573d6000803e3d6000fd5b505050506040513d601f19601f820116820180604052508101906103f491906116a9565b9050600081610404576000610406565b855b90506000826104155786610418565b60005b6040516336cd320560e11b815260048101849052602481018290526001600160a01b038b8116604483015291925090861690636d9a640a90606401600060405180830381600087803b15801561046d57600080fd5b505af1158015610481573d6000803e3d6000fd5b505050505050505050509695505050505050565b6000818042106104b75760405162461bcd60e51b81526004016101a4906115dd565b60008054604051630a49a03f60e31b815273__NaughtyLibrary________________________9163524d01f8916104fe916001600160a01b0316908b908b9060040161160a565b60206040518083038186803b15801561051657600080fd5b505af415801561052a573d6000803e3d6000fd5b505050506040513d601f19601f8201168201806040525081019061054e919061162d565b90506000816001600160a01b03166329dcb0cf6040518163ffffffff1660e01b815260040160206040518083038186803b15801561058b57600080fd5b505afa15801561059f573d6000803e3d6000fd5b505050506040513d601f19601f820116820180604052508101906105c3919061164a565b9050804211156105e55760405162461bcd60e51b81526004016101a490611663565b6000546105fd906001600160a01b03168a8a8a610bca565b9350898411156106485760405162461bcd60e51b8152602060048201526016602482015275195e18d95cdcda5d99481a5b9c1d5d08185b5bdd5b9d60521b60448201526064016101a4565b61065d6001600160a01b038916338487610b6a565b60015460405163bf4a1b5f60e01b81526001600160a01b039182166004820152908916602482015260009073__NaughtyLibrary________________________9063bf4a1b5f9060440160206040518083038186803b1580156106bf57600080fd5b505af41580156106d3573d6000803e3d6000fd5b505050506040513d601f19601f820116820180604052508101906106f791906116a9565b9050600081610707576000610709565b8a5b9050600082610415578b610418565b6002546001600160a01b031633146107805760405162461bcd60e51b815260206004820152602560248201527f4f6e6c7920746865206f776e65722063616e2063616c6c20746869732066756e60448201526431ba34b7b760d91b60648201526084016101a4565b600180546001600160a01b0319166001600160a01b0392909216919091179055565b600080828042106107c55760405162461bcd60e51b81526004016101a4906115dd565b60008054604051630a49a03f60e31b815273__NaughtyLibrary________________________9163524d01f89161080c916001600160a01b0316908f908f9060040161160a565b60206040518083038186803b15801561082457600080fd5b505af4158015610838573d6000803e3d6000fd5b505050506040513d601f19601f8201168201806040525081019061085c919061162d565b90506108736001600160a01b03821633838c610b6a565b60405163226bf2d160e21b81526001600160a01b0387811660048301528216906389afcb44906024016040805180830381600087803b1580156108b557600080fd5b505af11580156108c9573d6000803e3d6000fd5b505050506040513d601f19601f820116820180604052508101906108ed91906116cb565b90945092508784101561094e5760405162461bcd60e51b815260206004820152602360248201527f496e73756666696369656e7420696e737572616e636520746f6b656e20616d6f6044820152621d5b9d60ea1b60648201526084016101a4565b8683101561099e5760405162461bcd60e51b815260206004820152601760248201527f496e73756666696369656e74205553445420746f6b656e00000000000000000060448201526064016101a4565b505097509795505050505050565b6000806000838042106109d15760405162461bcd60e51b81526004016101a4906115dd565b6109df8c8c8c8c8c8c610bfb565b8094508195505050600073__NaughtyLibrary________________________63524d01f860008054906101000a90046001600160a01b03168f8f6040518463ffffffff1660e01b8152600401610a379392919061160a565b60206040518083038186803b158015610a4f57600080fd5b505af4158015610a63573d6000803e3d6000fd5b505050506040513d601f19601f82011682018060405250810190610a87919061162d565b9050610a958d338388610ed7565b610aa18c338387610ed7565b6040516335313c2160e11b81526001600160a01b038881166004830152821690636a62784290602401602060405180830381600087803b158015610ae457600080fd5b505af1158015610af8573d6000803e3d6000fd5b505050506040513d601f19601f82011682018060405250810190610b1c919061164a565b92505050985098509895505050505050565b6000806000610b3e878686610eec565b6001600160701b031691506001600160701b03169150610b5f868383610ff4565b979650505050505050565b604080516001600160a01b0385811660248301528416604482015260648082018490528251808303909101815260849091019091526020810180516001600160e01b03166323b872dd60e01b179052610bc49085906110b4565b50505050565b6000806000610bda878686610eec565b6001600160701b031691506001600160701b03169150610b5f86838361118b565b60015460405163bf4a1b5f60e01b81526001600160a01b03918216600482015290861660248201526000908190819073__NaughtyLibrary________________________9063bf4a1b5f9060440160206040518083038186803b158015610c6157600080fd5b505af4158015610c75573d6000803e3d6000fd5b505050506040513d601f19601f82011682018060405250810190610c9991906116a9565b905080610cfa5760405162461bcd60e51b815260206004820152602960248201527f706c656173652070757420737461626c65636f696e20617320746f6b656e42206044820152683830b930b6b2ba32b960b91b60648201526084016101a4565b60008054604051633274946160e01b8152829173__NaughtyLibrary________________________91633274946191610d45916001600160a01b03909116908f908f9060040161160a565b604080518083038186803b158015610d5c57600080fd5b505af4158015610d70573d6000803e3d6000fd5b505050506040513d601f19601f82011682018060405250810190610d94919061170b565b6001600160701b031691506001600160701b03169150816000148015610db8575080155b15610dc857889450879350610ec9565b6000610dd58a848461125b565b9050888111610e315786811015610e265760405162461bcd60e51b8152602060048201526015602482015274125394d551919250d251539517d097d05353d55395605a1b60448201526064016101a4565b899550935083610ec7565b6000610e3e8a848661125b565b90508a811115610e795760405162461bcd60e51b81526020600482015260066024820152656e6f6e6f6e6f60d01b60448201526064016101a4565b88811015610ec15760405162461bcd60e51b8152602060048201526015602482015274125394d551919250d251539517d057d05353d55395605a1b60448201526064016101a4565b95508894505b505b505050965096945050505050565b610bc46001600160a01b038516848484610b6a565b60405163b4f69a2f60e01b81526001600160a01b0383811660048301528281166024830152600091829182919087169063b4f69a2f9060440160206040518083038186803b158015610f3d57600080fd5b505afa158015610f51573d6000803e3d6000fd5b505050506040513d601f19601f82011682018060405250810190610f75919061162d565b9050806001600160a01b0316630902f1ac6040518163ffffffff1660e01b8152600401604080518083038186803b158015610faf57600080fd5b505afa158015610fc3573d6000803e3d6000fd5b505050506040513d601f19601f82011682018060405250810190610fe7919061170b565b9097909650945050505050565b60008084116110455760405162461bcd60e51b815260206004820152601960248201527f696e73756666696369656e7420696e70757420616d6f756e740000000000000060448201526064016101a4565b6000831180156110555750600082115b6110715760405162461bcd60e51b81526004016101a49061173e565b600061107f856103de611784565b9050600061108d8483611784565b905060008261109e876103e8611784565b6110a891906117a3565b9050610b5f81836117bb565b6000611109826040518060400160405280602081526020017f5361666545524332303a206c6f772d6c6576656c2063616c6c206661696c6564815250856001600160a01b03166112eb9092919063ffffffff16565b805190915015611186578080602001905181019061112791906116a9565b6111865760405162461bcd60e51b815260206004820152602a60248201527f5361666545524332303a204552433230206f7065726174696f6e20646964206e6044820152691bdd081cdd58d8d9595960b21b60648201526084016101a4565b505050565b60008084116111dc5760405162461bcd60e51b815260206004820152601a60248201527f696e73756666696369656e74206f757470757420616d6f756e7400000000000060448201526064016101a4565b6000831180156111ec5750600082115b6112085760405162461bcd60e51b81526004016101a49061173e565b60006112148585611784565b611220906103e8611784565b9050600061122e86856117dd565b61123a906103de611784565b905061124681836117bb565b6112519060016117a3565b9695505050505050565b60008084116112a25760405162461bcd60e51b81526020600482015260136024820152721a5b9cdd59999a58da595b9d08185b5bdd5b9d606a1b60448201526064016101a4565b6000831180156112b25750600082115b6112ce5760405162461bcd60e51b81526004016101a49061173e565b826112d98386611784565b6112e391906117bb565b949350505050565b60606112e38484600085611301565b9392505050565b606030318311156113635760405162461bcd60e51b815260206004820152602660248201527f416464726573733a20696e73756666696369656e742062616c616e636520666f6044820152651c8818d85b1b60d21b60648201526084016101a4565b843b6113b15760405162461bcd60e51b815260206004820152601d60248201527f416464726573733a2063616c6c20746f206e6f6e2d636f6e747261637400000060448201526064016101a4565b600080866001600160a01b031685876040516113cd9190611820565b60006040518083038185875af1925050503d806000811461140a576040519150601f19603f3d011682016040523d82523d6000602084013e61140f565b606091505b5091509150610b5f828286606083156114295750816112fa565b8251156114395782518084602001fd5b8160405162461bcd60e51b81526004016101a4919061183c565b6001600160a01b038116811461146857600080fd5b50565b60008060008060008060c0878903121561148457600080fd5b8635955060208701359450604087013561149d81611453565b935060608701356114ad81611453565b925060808701356114bd81611453565b8092505060a087013590509295509295509295565b6000602082840312156114e457600080fd5b81356112fa81611453565b600080600080600080600060e0888a03121561150a57600080fd5b873561151581611453565b9650602088013561152581611453565b955060408801359450606088013593506080880135925060a088013561154a81611453565b8092505060c0880135905092959891949750929550565b600080600080600080600080610100898b03121561157e57600080fd5b883561158981611453565b9750602089013561159981611453565b965060408901359550606089013594506080890135935060a0890135925060c08901356115c581611453565b8092505060e089013590509295985092959890939650565b60208082526013908201527232bc3834b932b2103a3930b739b0b1ba34b7b760691b604082015260600190565b6001600160a01b0393841681529183166020830152909116604082015260600190565b60006020828403121561163f57600080fd5b81516112fa81611453565b60006020828403121561165c57600080fd5b5051919050565b60208082526026908201527f5468697320706f6f6c20686173206265656e2066726f7a656e20666f72207377604082015265617070696e6760d01b606082015260800190565b6000602082840312156116bb57600080fd5b815180151581146112fa57600080fd5b600080604083850312156116de57600080fd5b505080516020909101519092909150565b80516001600160701b038116811461170657600080fd5b919050565b6000806040838503121561171e57600080fd5b611727836116ef565b9150611735602084016116ef565b90509250929050565b602080825260169082015275696e73756666696369656e74206c697175696469747960501b604082015260600190565b634e487b7160e01b600052601160045260246000fd5b600081600019048311821515161561179e5761179e61176e565b500290565b600082198211156117b6576117b661176e565b500190565b6000826117d857634e487b7160e01b600052601260045260246000fd5b500490565b6000828210156117ef576117ef61176e565b500390565b60005b8381101561180f5781810151838201526020016117f7565b83811115610bc45750506000910152565b600082516118328184602087016117f4565b9190910192915050565b602081526000825180602084015261185b8160408501602087016117f4565b601f01601f1916919091016040019291505056fea2646970667358221220aae2651a73250da4ea271fd077d74abe5cf29d1b13d471ae5d069fb0883e601864736f6c63430008090033",
    "immutableReferences": {},
    "source": "// SPDX-License-Identifier: MIT\npragma solidity 0.8.9;\nimport \"@openzeppelin/contracts/token/ERC20/IERC20.sol\";\nimport \"@openzeppelin/contracts/token/ERC721/IERC721.sol\";\nimport \"@openzeppelin/contracts/token/ERC20/utils/SafeERC20.sol\";\n\nimport \"./libraries/NaughtyLibrary.sol\";\n\nimport \"./interfaces/IPolicyToken.sol\";\n\n/**\n * @title NaughtyRouter\n * @notice Router for the pool, you can add/remove liquidity or swap A for B.\n */\ncontract NaughtyRouter {\n    using SafeERC20 for IERC20;\n    using SafeERC20 for INaughtyPair;\n\n    // Some other contracts\n    address public factory;\n    address public policyCore;\n\n    address public owner;\n\n    mapping(address => mapping(uint256 => uint256)) userQuota;\n\n    constructor(address _factory) {\n        owner = msg.sender;\n        factory = _factory;\n    }\n\n    modifier beforeDeadline(uint256 _deadLine) {\n        require(block.timestamp < _deadLine, \"expired transaction\");\n        _;\n    }\n\n    modifier onlyOwner() {\n        require(msg.sender == owner, \"Only the owner can call this function\");\n        _;\n    }\n\n    function setPolicyCore(address _coreAddress) public onlyOwner {\n        policyCore = _coreAddress;\n    }\n\n    /**\n     * @notice Add liquidity function\n     * @param _token0: Address of policyToken\n     * @param _token1: Address of USDT\n     * @param _amountADesired: Amount of policyToken desired\n     * @param _amountBDesired: Amount of USDT desired\n     * @param _amountAMin: Minimum amoutn of policy token\n     * @param _amountBMin: Minimum amount of stablecoin\n     * @param _to: Address that receive the lp token, normally the user himself\n     * @param _deadline: Transaction will revert after this deadline\n     * @return amountA Amount of tokenA to be input\n     * @return amountB Amount of tokenB to be input\n     * @return liquidity LP token to be mint\n     */\n    function addLiquidity(\n        address _token0,\n        address _token1,\n        uint256 _amountADesired,\n        uint256 _amountBDesired,\n        uint256 _amountAMin,\n        uint256 _amountBMin,\n        address _to,\n        uint256 _deadline\n    )\n        external\n        beforeDeadline(_deadline)\n        returns (\n            uint256 amountA,\n            uint256 amountB,\n            uint256 liquidity\n        )\n    {\n        {\n            (amountA, amountB) = _addLiquidity(\n                _token0,\n                _token1,\n                _amountADesired,\n                _amountBDesired,\n                _amountAMin,\n                _amountBMin\n            );\n        }\n\n        address pair = NaughtyLibrary.getPairAddress(factory, _token0, _token1);\n\n        transferHelper(_token0, msg.sender, pair, amountA);\n        transferHelper(_token1, msg.sender, pair, amountB);\n\n        liquidity = INaughtyPair(pair).mint(_to);\n    }\n\n    /**\n     * @notice Remove liquidity from the pool\n     * @param _tokenA Address of tokenA\n     * @param _tokenB Address of tokenB\n     * @param _liquidity The lptoken amount to be removed\n     * @param _amountAMin Minimum amount of tokenA given out\n     * @param _amountBMin Minimum amount of tokenB given out\n     * @param _to User address\n     * @param _deadline Deadline of this transaction\n     * @return amount0 Amount of token0 given out\n     * @return amount1 Amount of token1 given out\n     */\n    function removeLiquidity(\n        address _tokenA,\n        address _tokenB,\n        uint256 _liquidity,\n        uint256 _amountAMin,\n        uint256 _amountBMin,\n        address _to,\n        uint256 _deadline\n    )\n        public\n        beforeDeadline(_deadline)\n        returns (uint256 amount0, uint256 amount1)\n    {\n        address pair = NaughtyLibrary.getPairAddress(factory, _tokenA, _tokenB);\n\n        INaughtyPair(pair).safeTransferFrom(msg.sender, pair, _liquidity); // send liquidity to pair\n\n        // Amount0: insurance token\n        (amount0, amount1) = INaughtyPair(pair).burn(_to);\n\n        require(amount0 >= _amountAMin, \"Insufficient insurance token amount\");\n        require(amount1 >= _amountBMin, \"Insufficient USDT token\");\n    }\n\n    /**\n     * @notice Amount out is fixed\n     * @param _amountInMax Maximum token input\n     * @param _amountOut Fixed token output\n     * @param _tokenIn Address of input token\n     * @param _tokenOut Address of output token\n     * @param _to User address\n     * @param _deadline Deadline for this specific swap\n     * @return amounts Amounts to be really put in\n     */\n    function swapTokensforExactTokens(\n        uint256 _amountInMax,\n        uint256 _amountOut,\n        address _tokenIn,\n        address _tokenOut,\n        address _to,\n        uint256 _deadline\n    ) external beforeDeadline(_deadline) returns (uint256 amounts) {\n        address pair = NaughtyLibrary.getPairAddress(\n            factory,\n            _tokenIn,\n            _tokenOut\n        );\n        // Each pool has a deadline\n        uint256 poolDeadline = INaughtyPair(pair).deadline();\n        require(\n            block.timestamp <= poolDeadline,\n            \"This pool has been frozen for swapping\"\n        );\n\n        // Get how many tokens should be put in\n        amounts = NaughtyLibrary.getAmountsIn(\n            factory,\n            _amountOut,\n            _tokenIn,\n            _tokenOut\n        );\n\n        require(amounts <= _amountInMax, \"excessive input amount\");\n\n        IERC20(_tokenIn).safeTransferFrom(msg.sender, pair, amounts);\n\n        // If tokenIn is usd then amount0Out = amountOut\n        bool isStablecoin = NaughtyLibrary.checkStablecoin(\n            policyCore,\n            _tokenIn\n        );\n        uint256 amount0Out = isStablecoin ? _amountOut : 0;\n        uint256 amount1Out = isStablecoin ? 0 : _amountOut;\n\n        INaughtyPair(pair).swap(amount0Out, amount1Out, _to);\n    }\n\n    /**\n     * @notice Amount in is fixed\n     * @param _amountIn Fixed token input\n     * @param _amountOutMin Minimum token output\n     * @param _tokenIn Address of input token\n     * @param _tokenOut Address of output token\n     * @param _to User address\n     * @param _deadline Deadline for this specific swap\n     * @return amounts Amounts to be really given out\n     */\n    function swapExactTokensforTokens(\n        uint256 _amountIn,\n        uint256 _amountOutMin,\n        address _tokenIn,\n        address _tokenOut,\n        address _to,\n        uint256 _deadline\n    ) external beforeDeadline(_deadline) returns (uint256 amounts) {\n        address pair = NaughtyLibrary.getPairAddress(\n            factory,\n            _tokenIn,\n            _tokenOut\n        );\n        // Each pool has a deadline\n        uint256 poolDeadline = INaughtyPair(pair).deadline();\n        require(\n            block.timestamp <= poolDeadline,\n            \"This pool has been frozen for swapping\"\n        );\n\n        amounts = NaughtyLibrary.getAmountsOut(\n            factory,\n            _amountIn,\n            _tokenIn,\n            _tokenOut\n        );\n\n        require(amounts >= _amountOutMin, \"excessive output amount\");\n\n        IERC20(_tokenIn).safeTransferFrom(msg.sender, pair, _amountIn);\n\n        // Check if the tokenIn is stablecoin\n        bool isStablecoin = NaughtyLibrary.checkStablecoin(\n            policyCore,\n            _tokenIn\n        );\n\n        uint256 amount0Out = isStablecoin ? amounts : 0;\n        uint256 amount1Out = isStablecoin ? 0 : amounts;\n\n        INaughtyPair(pair).swap(amount0Out, amount1Out, _to);\n    }\n\n    /**\n     * @notice Internal function to finish adding liquidity\n     * @param _tokenA Address of tokenA\n     * @param _tokenB Address of tokenB\n     * @param _amountADesired Amount of tokenA to be added\n     * @param _amountBDesired Amount of tokenB to be added\n     * @param _amountAMin Minimum amount of tokenA\n     * @param _amountBMin Minimum amount of tokenB\n     * @return amountA Real amount of tokenA\n     * @return amountB Real amount of tokenB\n     */\n    function _addLiquidity(\n        address _tokenA,\n        address _tokenB,\n        uint256 _amountADesired,\n        uint256 _amountBDesired,\n        uint256 _amountAMin,\n        uint256 _amountBMin\n    ) private view returns (uint256 amountA, uint256 amountB) {\n        bool isStablecoin = NaughtyLibrary.checkStablecoin(policyCore, _tokenB);\n        require(isStablecoin, \"please put stablecoin as tokenB parameter\");\n\n        (uint256 reserveA, uint256 reserveB) = NaughtyLibrary.getReserves(\n            factory,\n            _tokenA,\n            _tokenB\n        );\n        if (reserveA == 0 && reserveB == 0) {\n            (amountA, amountB) = (_amountADesired, _amountBDesired);\n        } else {\n            uint256 amountBOptimal = NaughtyLibrary.quote(\n                _amountADesired,\n                reserveA,\n                reserveB\n            );\n            if (amountBOptimal <= _amountBDesired) {\n                require(amountBOptimal >= _amountBMin, \"INSUFFICIENT_B_AMOUNT\");\n                (amountA, amountB) = (_amountADesired, amountBOptimal);\n            } else {\n                uint256 amountAOptimal = NaughtyLibrary.quote(\n                    _amountBDesired,\n                    reserveB,\n                    reserveA\n                );\n                require(amountAOptimal <= _amountADesired, \"nonono\");\n                require(amountAOptimal >= _amountAMin, \"INSUFFICIENT_A_AMOUNT\");\n                (amountA, amountB) = (amountAOptimal, _amountBDesired);\n            }\n        }\n    }\n\n    /**\n     * @notice Finish the erc20 transfer operation\n     * @param _token ERC20 token address\n     * @param _from Address to give out the token\n     * @param _to Pair address to receive the token\n     * @param _amount Transfer amount\n     */\n    function transferHelper(\n        address _token,\n        address _from,\n        address _to,\n        uint256 _amount\n    ) internal {\n        IERC20(_token).safeTransferFrom(_from, _to, _amount);\n    }\n}\n",
    "sourcePath": "/Users/ZZ/01_blockchain/NaughtyPrice-Contracts/contracts/NaughtyRouter.sol",
    "compiler": {
        "name": "solc",
        "version": "0.8.9+commit.e5eed63a.Emscripten.clang"
    },
    "schemaVersion": "3.4.1",
    "updatedAt": "2021-11-22T05:42:38.441Z",
    "networkType": "ethereum",
    "devdoc": {
        "kind": "dev",
        "methods": {
            "addLiquidity(address,address,uint256,uint256,uint256,uint256,address,uint256)": {
                "params": {
                    "_amountADesired": ": Amount of policyToken desired",
                    "_amountAMin": ": Minimum amoutn of policy token",
                    "_amountBDesired": ": Amount of USDT desired",
                    "_amountBMin": ": Minimum amount of stablecoin",
                    "_deadline": ": Transaction will revert after this deadline",
                    "_to": ": Address that receive the lp token, normally the user himself",
                    "_token0": ": Address of policyToken",
                    "_token1": ": Address of USDT"
                },
                "returns": {
                    "amountA": "Amount of tokenA to be input",
                    "amountB": "Amount of tokenB to be input",
                    "liquidity": "LP token to be mint"
                }
            },
            "removeLiquidity(address,address,uint256,uint256,uint256,address,uint256)": {
                "params": {
                    "_amountAMin": "Minimum amount of tokenA given out",
                    "_amountBMin": "Minimum amount of tokenB given out",
                    "_deadline": "Deadline of this transaction",
                    "_liquidity": "The lptoken amount to be removed",
                    "_to": "User address",
                    "_tokenA": "Address of tokenA",
                    "_tokenB": "Address of tokenB"
                },
                "returns": {
                    "amount0": "Amount of token0 given out",
                    "amount1": "Amount of token1 given out"
                }
            },
            "swapExactTokensforTokens(uint256,uint256,address,address,address,uint256)": {
                "params": {
                    "_amountIn": "Fixed token input",
                    "_amountOutMin": "Minimum token output",
                    "_deadline": "Deadline for this specific swap",
                    "_to": "User address",
                    "_tokenIn": "Address of input token",
                    "_tokenOut": "Address of output token"
                },
                "returns": {
                    "amounts": "Amounts to be really given out"
                }
            },
            "swapTokensforExactTokens(uint256,uint256,address,address,address,uint256)": {
                "params": {
                    "_amountInMax": "Maximum token input",
                    "_amountOut": "Fixed token output",
                    "_deadline": "Deadline for this specific swap",
                    "_to": "User address",
                    "_tokenIn": "Address of input token",
                    "_tokenOut": "Address of output token"
                },
                "returns": {
                    "amounts": "Amounts to be really put in"
                }
            }
        },
        "title": "NaughtyRouter",
        "version": 1
    },
    "userdoc": {
        "kind": "user",
        "methods": {
            "addLiquidity(address,address,uint256,uint256,uint256,uint256,address,uint256)": {
                "notice": "Add liquidity function"
            },
            "removeLiquidity(address,address,uint256,uint256,uint256,address,uint256)": {
                "notice": "Remove liquidity from the pool"
            },
            "swapExactTokensforTokens(uint256,uint256,address,address,address,uint256)": {
                "notice": "Amount in is fixed"
            },
            "swapTokensforExactTokens(uint256,uint256,address,address,address,uint256)": {
                "notice": "Amount out is fixed"
            }
        },
        "notice": "Router for the pool, you can add/remove liquidity or swap A for B.",
        "version": 1
    }
}