{
    "contractName": "NaughtyFactory",
    "abi": [
        {
            "inputs": [
                {
                    "internalType": "address",
                    "name": "_feeToSetter",
                    "type": "address"
                }
            ],
            "stateMutability": "nonpayable",
            "type": "constructor"
        },
        {
            "inputs": [],
            "name": "_nextId",
            "outputs": [
                {
                    "internalType": "uint256",
                    "name": "",
                    "type": "uint256"
                }
            ],
            "stateMutability": "view",
            "type": "function",
            "constant": true
        },
        {
            "inputs": [],
            "name": "feeTo",
            "outputs": [
                {
                    "internalType": "address",
                    "name": "",
                    "type": "address"
                }
            ],
            "stateMutability": "view",
            "type": "function",
            "constant": true
        },
        {
            "inputs": [],
            "name": "feeToSetter",
            "outputs": [
                {
                    "internalType": "address",
                    "name": "",
                    "type": "address"
                }
            ],
            "stateMutability": "view",
            "type": "function",
            "constant": true
        },
        {
            "inputs": [],
            "name": "policyCore",
            "outputs": [
                {
                    "internalType": "address",
                    "name": "",
                    "type": "address"
                }
            ],
            "stateMutability": "view",
            "type": "function",
            "constant": true
        },
        {
            "inputs": [],
            "name": "getLatestTokenAddress",
            "outputs": [
                {
                    "internalType": "address",
                    "name": "",
                    "type": "address"
                }
            ],
            "stateMutability": "view",
            "type": "function",
            "constant": true
        },
        {
            "inputs": [
                {
                    "internalType": "address",
                    "name": "_tokenAddress1",
                    "type": "address"
                },
                {
                    "internalType": "address",
                    "name": "_tokenAddress2",
                    "type": "address"
                }
            ],
            "name": "getPairAddress",
            "outputs": [
                {
                    "internalType": "address",
                    "name": "",
                    "type": "address"
                }
            ],
            "stateMutability": "view",
            "type": "function",
            "constant": true
        },
        {
            "inputs": [
                {
                    "internalType": "address",
                    "name": "_policyCore",
                    "type": "address"
                }
            ],
            "name": "setPolicyCoreAddress",
            "outputs": [],
            "stateMutability": "nonpayable",
            "type": "function"
        },
        {
            "inputs": [
                {
                    "internalType": "address",
                    "name": "_feeTo",
                    "type": "address"
                }
            ],
            "name": "setFeeTo",
            "outputs": [],
            "stateMutability": "nonpayable",
            "type": "function"
        },
        {
            "inputs": [
                {
                    "internalType": "address",
                    "name": "_feeToSetter",
                    "type": "address"
                }
            ],
            "name": "setFeeToSetter",
            "outputs": [],
            "stateMutability": "nonpayable",
            "type": "function"
        },
        {
            "inputs": [
                {
                    "internalType": "address",
                    "name": "_policyTokenAddress",
                    "type": "address"
                },
                {
                    "internalType": "address",
                    "name": "_stablecoin",
                    "type": "address"
                },
                {
                    "internalType": "uint256",
                    "name": "_deadline",
                    "type": "uint256"
                }
            ],
            "name": "deployPool",
            "outputs": [
                {
                    "internalType": "address",
                    "name": "",
                    "type": "address"
                }
            ],
            "stateMutability": "nonpayable",
            "type": "function"
        },
        {
            "inputs": [
                {
                    "internalType": "string",
                    "name": "_policyTokenName",
                    "type": "string"
                }
            ],
            "name": "deployPolicyToken",
            "outputs": [
                {
                    "internalType": "address",
                    "name": "",
                    "type": "address"
                }
            ],
            "stateMutability": "nonpayable",
            "type": "function"
        }
    ],
    "bytecode": "0x608060405234801561001057600080fd5b50604051613f13380380613f1383398101604081905261002f91610054565b600680546001600160a01b0319166001600160a01b0392909216919091179055610084565b60006020828403121561006657600080fd5b81516001600160a01b038116811461007d57600080fd5b9392505050565b613e80806100936000396000f3fe60806040523480156200001157600080fd5b5060043610620000b75760003560e01c8063a3232bf3116200007a578063a3232bf31462000157578063b4f69a2f146200016e578063e30145e01462000185578063f03c61321462000199578063f2f2fff514620001b0578063f46901ed14620001c957600080fd5b8063017e7e5814620000bc578063094b741514620000ed57806361c8f99d14620001015780639fd2650e1462000136578063a2e74af61462000140575b600080fd5b600554620000d0906001600160a01b031681565b6040516001600160a01b0390911681526020015b60405180910390f35b600654620000d0906001600160a01b031681565b620001346200011236600462000961565b600480546001600160a01b0319166001600160a01b0392909216919091179055565b005b620000d0620001e0565b620001346200015136600462000961565b62000227565b620000d0620001683660046200097f565b6200027f565b620000d06200017f366004620009c0565b620004de565b600454620000d0906001600160a01b031681565b620000d0620001aa36600462000a0e565b620005a8565b620001ba60035481565b604051908152602001620000e4565b62000134620001da36600462000961565b6200065e565b6000806001600354620001f4919062000adf565b9050600281815481106200020c576200020c62000af9565b6000918252602090912001546001600160a01b031692915050565b6006546001600160a01b031633146200025d5760405162461bcd60e51b8152600401620002549062000b0f565b60405180910390fd5b600680546001600160a01b0319166001600160a01b0392909216919091179055565b6004805460405163237dd6ed60e11b81526001600160a01b0385811693820193909352600092909116906346fbadda9060240160206040518083038186803b158015620002cb57600080fd5b505afa158015620002e0573d6000803e3d6000fd5b505050506040513d601f19601f8201168201806040525081019062000306919062000b56565b1515600114620003785760405162461bcd60e51b815260206004820152603660248201527f596f752067697665207468652077726f6e67206f72646572206f6620706f6c6960448201527531bcaa37b5b2b71030b7321039ba30b13632b1b7b4b760511b606482015260840162000254565b6000604051806020016200038c9062000928565b601f1982820381018352601f9091011660405290506000620003ae86620006ad565b620003b986620006ad565b604051602001620003cc92919062000bad565b6040516020818303038152906040528051906020012090506000620003f28383620006c5565b6040516305e52ecf60e21b81526001600160a01b03898116600483015288811660248301526044820188905291925090821690631794bb3c90606401600060405180830381600087803b1580156200044957600080fd5b505af11580156200045e573d6000803e3d6000fd5b5050506001600160a01b038089166000908152602081815260408083208b85168452909152812080549285166001600160a01b0319938416811790915560018054808201825592527fb10e2d527612073b26eecdfd717e6a320cf44b4afac2b0732d9fcbe2b7fa0cf6909101805490921617905550925050509392505050565b6004805460405163237dd6ed60e11b81526001600160a01b0384811693820193909352600092839283929116906346fbadda9060240160206040518083038186803b1580156200052d57600080fd5b505afa15801562000542573d6000803e3d6000fd5b505050506040513d601f19601f8201168201806040525081019062000568919062000b56565b6200057557838562000578565b84845b6001600160a01b039182166000908152602081815260408083209385168352929052205416925050505b92915050565b60008082604051602001620005be919062000be0565b6040516020818303038152906040528051906020012090506000620005e384620006df565b90506000620005f38284620006c5565b6002805460018101825560009182527f405787fa12a823e0f2b7631cc41b3ba8828b3321ca811111fa75cd3aa3bb5ace0180546001600160a01b0319166001600160a01b0384161790556003805492935090620006508362000bfe565b909155509095945050505050565b6006546001600160a01b031633146200068b5760405162461bcd60e51b8152600401620002549062000b0f565b600580546001600160a01b0319166001600160a01b0392909216919091179055565b6060620005a26001600160a01b038316601462000767565b6000818351602085016000f59050803b620005a257600080fd5b6060600060405180602001620006f59062000936565b601f1982820381018352601f90910116604081905260045491925082916200073091869182916001600160a01b039091169060200162000c4a565b60408051601f198184030181529082905262000750929160200162000bad565b604051602081830303815290604052915050919050565b606060006200077883600262000c8c565b6200078590600262000cae565b67ffffffffffffffff811115620007a057620007a0620009f8565b6040519080825280601f01601f191660200182016040528015620007cb576020820181803683370190505b509050600360fc1b81600081518110620007e957620007e962000af9565b60200101906001600160f81b031916908160001a905350600f60fb1b816001815181106200081b576200081b62000af9565b60200101906001600160f81b031916908160001a90535060006200084184600262000c8c565b6200084e90600162000cae565b90505b6001811115620008d0576f181899199a1a9b1b9c1cb0b131b232b360811b85600f166010811062000886576200088662000af9565b1a60f81b8282815181106200089f576200089f62000af9565b60200101906001600160f81b031916908160001a90535060049490941c93620008c88162000cc9565b905062000851565b508315620009215760405162461bcd60e51b815260206004820181905260248201527f537472696e67733a20686578206c656e67746820696e73756666696369656e74604482015260640162000254565b9392505050565b6121028062000ce483390190565b6110658062002de683390190565b80356001600160a01b03811681146200095c57600080fd5b919050565b6000602082840312156200097457600080fd5b620009218262000944565b6000806000606084860312156200099557600080fd5b620009a08462000944565b9250620009b06020850162000944565b9150604084013590509250925092565b60008060408385031215620009d457600080fd5b620009df8362000944565b9150620009ef6020840162000944565b90509250929050565b634e487b7160e01b600052604160045260246000fd5b60006020828403121562000a2157600080fd5b813567ffffffffffffffff8082111562000a3a57600080fd5b818401915084601f83011262000a4f57600080fd5b81358181111562000a645762000a64620009f8565b604051601f8201601f19908116603f0116810190838211818310171562000a8f5762000a8f620009f8565b8160405282815287602084870101111562000aa957600080fd5b826020860160208301376000928101602001929092525095945050505050565b634e487b7160e01b600052601160045260246000fd5b60008282101562000af45762000af462000ac9565b500390565b634e487b7160e01b600052603260045260246000fd5b60208082526027908201527f4f6e6c7920666565546f5365747465722063616e2063616c6c207468697320666040820152663ab731ba34b7b760c91b606082015260800190565b60006020828403121562000b6957600080fd5b815180151581146200092157600080fd5b60005b8381101562000b9757818101518382015260200162000b7d565b8381111562000ba7576000848401525b50505050565b6000835162000bc181846020880162000b7a565b83519083019062000bd781836020880162000b7a565b01949350505050565b6000825162000bf481846020870162000b7a565b9190910192915050565b600060001982141562000c155762000c1562000ac9565b5060010190565b6000815180845262000c3681602086016020860162000b7a565b601f01601f19169290920160200192915050565b60608152600062000c5f606083018662000c1c565b828103602084015262000c73818662000c1c565b91505060018060a01b0383166040830152949350505050565b600081600019048311821515161562000ca95762000ca962000ac9565b500290565b6000821982111562000cc45762000cc462000ac9565b500190565b60008162000cdb5762000cdb62000ac9565b50600019019056fe60806040526008805460ff60e01b19167c01000000000000000000000000000000000000000000000000000000001790553480156200003d57600080fd5b506040518060400160405280600f81526020017f4e61756768747920506f6f6c204c5000000000000000000000000000000000008152506040518060400160405280600381526020017f4e4c5000000000000000000000000000000000000000000000000000000000008152508160039080519060200190620000c2929190620000f3565b508051620000d8906004906020840190620000f3565b5050600580546001600160a01b0319163317905550620001ef565b828054620001019062000199565b90600052602060002090601f01602090048101928262000125576000855562000170565b82601f106200014057805160ff191683800117855562000170565b8280016001018555821562000170579182015b828111156200017057825182559160200191906001019062000153565b506200017e92915062000182565b5090565b5b808211156200017e576000815560010162000183565b600181811c90821680620001ae57607f821691505b60208210811415620001e9577f4e487b7100000000000000000000000000000000000000000000000000000000600052602260045260246000fd5b50919050565b611f0380620001ff6000396000f3fe608060405234801561001057600080fd5b506004361061018e5760003560e01c80636a627842116100de578063a9059cbb11610097578063d21220a711610071578063d21220a714610389578063dd62ed3e1461039c578063f952f01a146102ee578063fff6cae9146103d557600080fd5b8063a9059cbb1461035a578063ba9a7a561461036d578063c45a01551461037657600080fd5b80636a627842146102c85780636d9a640a146102db57806370a08231146102ee57806389afcb441461031757806395d89b411461033f578063a457c2d71461034757600080fd5b806323b872dd1161014b5780633950935111610125578063395093511461027b5780633c756e141461028e578063570c7c39146102a15780636a5e2650146102b457600080fd5b806323b872dd1461025057806329dcb0cf14610263578063313ce5671461026c57600080fd5b806306fdde03146101935780630902f1ac146101b1578063095ea7b3146101db5780630dfe1681146101fe5780631794bb3c1461022957806318160ddd1461023e575b600080fd5b61019b6103dd565b6040516101a89190611c47565b60405180910390f35b600854604080516001600160701b038084168252600160701b9093049092166020830152016101a8565b6101ee6101e9366004611c96565b61046f565b60405190151581526020016101a8565b600654610211906001600160a01b031681565b6040516001600160a01b0390911681526020016101a8565b61023c610237366004611cc0565b610485565b005b6002545b6040519081526020016101a8565b6101ee61025e366004611cc0565b610531565b61024260095481565b604051601281526020016101a8565b6101ee610289366004611c96565b6105dd565b61023c61029c366004611c96565b610619565b61023c6102af366004611c96565b610627565b6008546101ee90600160e01b900460ff1681565b6102426102d6366004611cfc565b610631565b61023c6102e9366004611d17565b610884565b6102426102fc366004611cfc565b6001600160a01b031660009081526020819052604090205490565b61032a610325366004611cfc565b610d18565b604080519283526020830191909152016101a8565b61019b61107f565b6101ee610355366004611c96565b61108e565b6101ee610368366004611c96565b611127565b6102426103e881565b600554610211906001600160a01b031681565b600754610211906001600160a01b031681565b6102426103aa366004611d4c565b6001600160a01b03918216600090815260016020908152604080832093909416825291909152205490565b61023c611134565b6060600380546103ec90611d7f565b80601f016020809104026020016040519081016040528092919081815260200182805461041890611d7f565b80156104655780601f1061043a57610100808354040283529160200191610465565b820191906000526020600020905b81548152906001019060200180831161044857829003601f168201915b5050505050905090565b600061047c338484611281565b50600192915050565b6005546001600160a01b031633146104fc5760405162461bcd60e51b815260206004820152602f60248201527f63616e206f6e6c7920626520696e697469616c697a656420627920746865206660448201526e1858dd1bdc9e4818dbdb9d1c9858dd608a1b60648201526084015b60405180910390fd5b600680546001600160a01b039485166001600160a01b0319918216179091556007805493909416921691909117909155600955565b600061053e8484846113a6565b6001600160a01b0384166000908152600160209081526040808320338452909152902054828110156105c35760405162461bcd60e51b815260206004820152602860248201527f45524332303a207472616e7366657220616d6f756e74206578636565647320616044820152676c6c6f77616e636560c01b60648201526084016104f3565b6105d08533858403611281565b60019150505b9392505050565b3360008181526001602090815260408083206001600160a01b0387168452909152812054909161047c918590610614908690611dd0565b611281565b6106238282611576565b5050565b61062382826116c1565b60008060006106546008546001600160701b0380821692600160701b9092041690565b6006546040516370a0823160e01b81523060048201529294509092506000916001600160a01b03909116906370a082319060240160206040518083038186803b1580156106a057600080fd5b505afa1580156106b4573d6000803e3d6000fd5b505050506040513d601f19601f820116820180604052508101906106d89190611de8565b6007546040516370a0823160e01b81523060048201529192506000916001600160a01b03909116906370a082319060240160206040518083038186803b15801561072157600080fd5b505afa158015610735573d6000803e3d6000fd5b505050506040513d601f19601f820116820180604052508101906107599190611de8565b905060006107706001600160701b03861684611e01565b905060006107876001600160701b03861684611e01565b9050600061079460025490565b9050806107cd576103e86107b06107ab8486611e18565b6117a0565b6107ba9190611e01565b97506107c8306103e8610627565b610814565b6108116001600160701b0388166107e48386611e18565b6107ee9190611e4d565b6001600160701b0388166108028486611e18565b61080c9190611e4d565b61191b565b97505b600088116108645760405162461bcd60e51b815260206004820152601d60248201527f696e73756666696369656e74206c6971756964697479206d696e74656400000060448201526064016104f3565b61086e8989610627565b6108788585611931565b50505050505050919050565b600854600160e01b900460ff1615156001146108b25760405162461bcd60e51b81526004016104f390611e6f565b6008805460ff60e01b19169055821515806108cd5750600082115b6109195760405162461bcd60e51b815260206004820152601b60248201527f4f757470757420616d6f756e74206e65656420746f206265203e30000000000060448201526064016104f3565b60008061093a6008546001600160701b0380821692600160701b9092041690565b6001600160701b031691506001600160701b03169150818510801561095e57508084105b6109a15760405162461bcd60e51b81526020600482015260146024820152734e6f7420656e6f756768206c697175696469747960601b60448201526064016104f3565b60065460075460009182916001600160a01b039182169190811690871682148015906109df5750806001600160a01b0316876001600160a01b031614155b610a185760405162461bcd60e51b815260206004820152600a602482015269494e56414c49445f544f60b01b60448201526064016104f3565b8815610a3257610a326001600160a01b038316888b611a03565b8715610a4c57610a4c6001600160a01b038216888a611a03565b6040516370a0823160e01b81523060048201526001600160a01b038316906370a082319060240160206040518083038186803b158015610a8b57600080fd5b505afa158015610a9f573d6000803e3d6000fd5b505050506040513d601f19601f82011682018060405250810190610ac39190611de8565b6040516370a0823160e01b81523060048201529094506001600160a01b038216906370a082319060240160206040518083038186803b158015610b0557600080fd5b505afa158015610b19573d6000803e3d6000fd5b505050506040513d601f19601f82011682018060405250810190610b3d9190611de8565b9250505060008785610b4f9190611e01565b8311610b5c576000610b70565b610b668886611e01565b610b709084611e01565b90506000610b7e8886611e01565b8311610b8b576000610b9f565b610b958886611e01565b610b9f9084611e01565b90506000821180610bb05750600081115b610bfc5760405162461bcd60e51b815260206004820152601960248201527f494e53554646494349454e545f494e5055545f414d4f554e540000000000000060448201526064016104f3565b6000610c09836032611e18565b610c15866103e8611e18565b610c1f9190611e01565b90506000610c2e836032611e18565b610c3a866103e8611e18565b610c449190611e01565b9050610c508789611e18565b610c5d90620f4240611e18565b610c678284611e18565b1015610c995760405162461bcd60e51b81526020600482015260016024820152604b60f81b60448201526064016104f3565b5050610ca58484611931565b60408051838152602081018390529081018a9052606081018990526001600160a01b0388169033907fd78ad95fa46c994b6551d0da85fc275fe613ce37657fb8d5e3d130840159d8229060800160405180910390a350506008805460ff60e01b1916600160e01b17905550505050505050565b6000806008601c9054906101000a900460ff1615156001151514610d4e5760405162461bcd60e51b81526004016104f390611e6f565b6008805460ff60e01b19169055600080610d7c6008546001600160701b0380821692600160701b9092041690565b6006546040516370a0823160e01b81523060048201529294509092506000916001600160a01b03909116906370a082319060240160206040518083038186803b158015610dc857600080fd5b505afa158015610ddc573d6000803e3d6000fd5b505050506040513d601f19601f82011682018060405250810190610e009190611de8565b6007546040516370a0823160e01b81523060048201529192506000916001600160a01b03909116906370a082319060240160206040518083038186803b158015610e4957600080fd5b505afa158015610e5d573d6000803e3d6000fd5b505050506040513d601f19601f82011682018060405250810190610e819190611de8565b306000908152602081905260409020546002549192509080610ea38584611e18565b610ead9190611e4d565b975080610eba8484611e18565b610ec49190611e4d565b9650600088118015610ed65750600087115b610f225760405162461bcd60e51b815260206004820152601d60248201527f496e73756666696369656e74206c6971756964697479206275726e656400000060448201526064016104f3565b610f2c3083610619565b600654610f43906001600160a01b03168a8a611a03565b600754610f5a906001600160a01b03168a89611a03565b6006546040516370a0823160e01b81523060048201526001600160a01b03909116906370a082319060240160206040518083038186803b158015610f9d57600080fd5b505afa158015610fb1573d6000803e3d6000fd5b505050506040513d601f19601f82011682018060405250810190610fd59190611de8565b6007546040516370a0823160e01b81523060048201529195506001600160a01b0316906370a082319060240160206040518083038186803b15801561101957600080fd5b505afa15801561102d573d6000803e3d6000fd5b505050506040513d601f19601f820116820180604052508101906110519190611de8565b925061105d8484611931565b50506008805460ff60e01b1916600160e01b1790555093959294509192505050565b6060600480546103ec90611d7f565b3360009081526001602090815260408083206001600160a01b0386168452909152812054828110156111105760405162461bcd60e51b815260206004820152602560248201527f45524332303a2064656372656173656420616c6c6f77616e63652062656c6f77604482015264207a65726f60d81b60648201526084016104f3565b61111d3385858403611281565b5060019392505050565b600061047c3384846113a6565b600854600160e01b900460ff1615156001146111625760405162461bcd60e51b81526004016104f390611e6f565b6008805460ff60e01b191690556006546040516370a0823160e01b815230600482015261126c916001600160a01b0316906370a082319060240160206040518083038186803b1580156111b457600080fd5b505afa1580156111c8573d6000803e3d6000fd5b505050506040513d601f19601f820116820180604052508101906111ec9190611de8565b6007546040516370a0823160e01b81523060048201526001600160a01b03909116906370a082319060240160206040518083038186803b15801561122f57600080fd5b505afa158015611243573d6000803e3d6000fd5b505050506040513d601f19601f820116820180604052508101906112679190611de8565b611931565b6008805460ff60e01b1916600160e01b179055565b6001600160a01b0383166112e35760405162461bcd60e51b8152602060048201526024808201527f45524332303a20617070726f76652066726f6d20746865207a65726f206164646044820152637265737360e01b60648201526084016104f3565b6001600160a01b0382166113445760405162461bcd60e51b815260206004820152602260248201527f45524332303a20617070726f766520746f20746865207a65726f206164647265604482015261737360f01b60648201526084016104f3565b6001600160a01b0383811660008181526001602090815260408083209487168084529482529182902085905590518481527f8c5be1e5ebec7d5bd14f71427d1e84f3dd0314c0f7b2291e5b200ac8c7c3b92591015b60405180910390a3505050565b6001600160a01b03831661140a5760405162461bcd60e51b815260206004820152602560248201527f45524332303a207472616e736665722066726f6d20746865207a65726f206164604482015264647265737360d81b60648201526084016104f3565b6001600160a01b03821661146c5760405162461bcd60e51b815260206004820152602360248201527f45524332303a207472616e7366657220746f20746865207a65726f206164647260448201526265737360e81b60648201526084016104f3565b6001600160a01b038316600090815260208190526040902054818110156114e45760405162461bcd60e51b815260206004820152602660248201527f45524332303a207472616e7366657220616d6f756e7420657863656564732062604482015265616c616e636560d01b60648201526084016104f3565b6001600160a01b0380851660009081526020819052604080822085850390559185168152908120805484929061151b908490611dd0565b92505081905550826001600160a01b0316846001600160a01b03167fddf252ad1be2c89b69c2b068fc378daa952ba7f163c4a11628f55a4df523b3ef8460405161156791815260200190565b60405180910390a35b50505050565b6001600160a01b0382166115d65760405162461bcd60e51b815260206004820152602160248201527f45524332303a206275726e2066726f6d20746865207a65726f206164647265736044820152607360f81b60648201526084016104f3565b6001600160a01b0382166000908152602081905260409020548181101561164a5760405162461bcd60e51b815260206004820152602260248201527f45524332303a206275726e20616d6f756e7420657863656564732062616c616e604482015261636560f01b60648201526084016104f3565b6001600160a01b0383166000908152602081905260408120838303905560028054849290611679908490611e01565b90915550506040518281526000906001600160a01b038516907fddf252ad1be2c89b69c2b068fc378daa952ba7f163c4a11628f55a4df523b3ef90602001611399565b505050565b6001600160a01b0382166117175760405162461bcd60e51b815260206004820152601f60248201527f45524332303a206d696e7420746f20746865207a65726f20616464726573730060448201526064016104f3565b80600260008282546117299190611dd0565b90915550506001600160a01b03821660009081526020819052604081208054839290611756908490611dd0565b90915550506040518181526001600160a01b038316906000907fddf252ad1be2c89b69c2b068fc378daa952ba7f163c4a11628f55a4df523b3ef9060200160405180910390a35050565b6000816117af57506000919050565b50600181600160801b81106117c95760409190911b9060801c5b6801000000000000000081106117e45760209190911b9060401c5b64010000000081106117fb5760109190911b9060201c5b6201000081106118105760089190911b9060101c5b61010081106118245760049190911b9060081c5b601081106118375760029190911b9060041c5b6008811061184757600182901b91505b600182848161185857611858611e37565b048301901c9150600182848161187057611870611e37565b048301901c9150600182848161188857611888611e37565b048301901c915060018284816118a0576118a0611e37565b048301901c915060018284816118b8576118b8611e37565b048301901c915060018284816118d0576118d0611e37565b048301901c915060018284816118e8576118e8611e37565b048301901c9150600082848161190057611900611e37565b049050808310156119115782611913565b805b949350505050565b600081831061192a57816105d6565b5090919050565b6001600160701b038083118015906119525750806001600160701b03168211155b6119915760405162461bcd60e51b815260206004820152601060248201526f55696e74313132204f564552464c4f5760801b60448201526064016104f3565b600880546001600160701b03848116600160701b9081026001600160e01b0319909316878316179290921792839055604080518483168152929093041660208201527f32dc813d3f262a05478ad1165d5701040e411d9a6e1684c8c2da1c8e6f3b8022910160405180910390a1505050565b604080516001600160a01b03848116602483015260448083018590528351808403909101815260649092018352602080830180516001600160e01b031663a9059cbb60e01b17905283518085019094528084527f5361666545524332303a206c6f772d6c6576656c2063616c6c206661696c6564908401526116bc92869291600091611a93918516908490611b10565b8051909150156116bc5780806020019051810190611ab19190611e8f565b6116bc5760405162461bcd60e51b815260206004820152602a60248201527f5361666545524332303a204552433230206f7065726174696f6e20646964206e6044820152691bdd081cdd58d8d9595960b21b60648201526084016104f3565b6060611913848460008585843b611b695760405162461bcd60e51b815260206004820152601d60248201527f416464726573733a2063616c6c20746f206e6f6e2d636f6e747261637400000060448201526064016104f3565b600080866001600160a01b03168587604051611b859190611eb1565b60006040518083038185875af1925050503d8060008114611bc2576040519150601f19603f3d011682016040523d82523d6000602084013e611bc7565b606091505b5091509150611bd7828286611be2565b979650505050505050565b60608315611bf15750816105d6565b825115611c015782518084602001fd5b8160405162461bcd60e51b81526004016104f39190611c47565b60005b83811015611c36578181015183820152602001611c1e565b838111156115705750506000910152565b6020815260008251806020840152611c66816040850160208701611c1b565b601f01601f19169190910160400192915050565b80356001600160a01b0381168114611c9157600080fd5b919050565b60008060408385031215611ca957600080fd5b611cb283611c7a565b946020939093013593505050565b600080600060608486031215611cd557600080fd5b611cde84611c7a565b9250611cec60208501611c7a565b9150604084013590509250925092565b600060208284031215611d0e57600080fd5b6105d682611c7a565b600080600060608486031215611d2c57600080fd5b8335925060208401359150611d4360408501611c7a565b90509250925092565b60008060408385031215611d5f57600080fd5b611d6883611c7a565b9150611d7660208401611c7a565b90509250929050565b600181811c90821680611d9357607f821691505b60208210811415611db457634e487b7160e01b600052602260045260246000fd5b50919050565b634e487b7160e01b600052601160045260246000fd5b60008219821115611de357611de3611dba565b500190565b600060208284031215611dfa57600080fd5b5051919050565b600082821015611e1357611e13611dba565b500390565b6000816000190483118215151615611e3257611e32611dba565b500290565b634e487b7160e01b600052601260045260246000fd5b600082611e6a57634e487b7160e01b600052601260045260246000fd5b500490565b6020808252600690820152651313d0d2d15160d21b604082015260600190565b600060208284031215611ea157600080fd5b815180151581146105d657600080fd5b60008251611ec3818460208701611c1b565b919091019291505056fea2646970667358221220127f29bf751b5142d744744f18f0d470224b9c8e29b0c0d33332c54a40b94f3964736f6c6343000809003360806040523480156200001157600080fd5b506040516200106538038062001065833981016040819052620000349162000226565b8251839083906200004d9060039060208501906200009a565b508051620000639060049060208401906200009a565b5050600580546001600160a01b039093166001600160a01b0319938416811790915560068054909316179091555062000309915050565b828054620000a890620002b3565b90600052602060002090601f016020900481019282620000cc576000855562000117565b82601f10620000e757805160ff191683800117855562000117565b8280016001018555821562000117579182015b8281111562000117578251825591602001919060010190620000fa565b506200012592915062000129565b5090565b5b808211156200012557600081556001016200012a565b7f4e487b7100000000000000000000000000000000000000000000000000000000600052604160045260246000fd5b600082601f8301126200018157600080fd5b81516001600160401b03808211156200019e576200019e62000140565b604051601f8301601f19908116603f01168101908282118183101715620001c957620001c962000140565b81604052838152602092508683858801011115620001e657600080fd5b600091505b838210156200020a5785820183015181830184015290820190620001eb565b838211156200021c5760008385830101525b9695505050505050565b6000806000606084860312156200023c57600080fd5b83516001600160401b03808211156200025457600080fd5b62000262878388016200016f565b945060208601519150808211156200027957600080fd5b5062000288868287016200016f565b604086015190935090506001600160a01b0381168114620002a857600080fd5b809150509250925092565b600181811c90821680620002c857607f821691505b6020821081141562000303577f4e487b7100000000000000000000000000000000000000000000000000000000600052602260045260246000fd5b50919050565b610d4c80620003196000396000f3fe608060405234801561001057600080fd5b50600436106101005760003560e01c806370a0823111610097578063a457c2d711610066578063a457c2d714610224578063a9059cbb14610237578063d7fc5b151461024a578063dd62ed3e1461025d57600080fd5b806370a08231146101cd5780638da5cb5b146101f657806395d89b41146102095780639dc29fac1461021157600080fd5b806323b872dd116100d357806323b872dd14610183578063313ce5671461019657806339509351146101a557806340c10f19146101b857600080fd5b806306fdde03146101055780630754617214610123578063095ea7b31461014e57806318160ddd14610171575b600080fd5b61010d610296565b60405161011a9190610b28565b60405180910390f35b600654610136906001600160a01b031681565b6040516001600160a01b03909116815260200161011a565b61016161015c366004610b99565b610328565b604051901515815260200161011a565b6002545b60405190815260200161011a565b610161610191366004610bc3565b61033e565b6040516012815260200161011a565b6101616101b3366004610b99565b6103ed565b6101cb6101c6366004610b99565b610429565b005b6101756101db366004610bff565b6001600160a01b031660009081526020819052604090205490565b600554610136906001600160a01b031681565b61010d610461565b6101cb61021f366004610b99565b610470565b610161610232366004610b99565b6104a4565b610161610245366004610b99565b61053d565b6101cb610258366004610bff565b61054a565b61017561026b366004610c21565b6001600160a01b03918216600090815260016020908152604080832093909416825291909152205490565b6060600380546102a590610c54565b80601f01602080910402602001604051908101604052809291908181526020018280546102d190610c54565b801561031e5780601f106102f35761010080835404028352916020019161031e565b820191906000526020600020905b81548152906001019060200180831161030157829003601f168201915b5050505050905090565b600061033533848461060f565b50600192915050565b600061034b848484610734565b6001600160a01b0384166000908152600160209081526040808320338452909152902054828110156103d55760405162461bcd60e51b815260206004820152602860248201527f45524332303a207472616e7366657220616d6f756e74206578636565647320616044820152676c6c6f77616e636560c01b60648201526084015b60405180910390fd5b6103e2853385840361060f565b506001949350505050565b3360008181526001602090815260408083206001600160a01b03871684529091528120549091610335918590610424908690610ca5565b61060f565b6006546001600160a01b031633146104535760405162461bcd60e51b81526004016103cc90610cbd565b61045d8282610903565b5050565b6060600480546102a590610c54565b6006546001600160a01b0316331461049a5760405162461bcd60e51b81526004016103cc90610cbd565b61045d82826109e2565b3360009081526001602090815260408083206001600160a01b0386168452909152812054828110156105265760405162461bcd60e51b815260206004820152602560248201527f45524332303a2064656372656173656420616c6c6f77616e63652062656c6f77604482015264207a65726f60d81b60648201526084016103cc565b610533338585840361060f565b5060019392505050565b6000610335338484610734565b6005546001600160a01b031633146105ae5760405162461bcd60e51b815260206004820152602160248201527f6f6e6c79206f776e65722063616e2063616c6c20746869732066756e6374696f6044820152603760f91b60648201526084016103cc565b600680546001600160a01b038381166001600160a01b031983168117909355604080519190921680825260208201939093527f7d18367aacbd671e57a27b568d6e1afbcc4c28b30a1b898aacf1e3a4b7d19cd1910160405180910390a15050565b6001600160a01b0383166106715760405162461bcd60e51b8152602060048201526024808201527f45524332303a20617070726f76652066726f6d20746865207a65726f206164646044820152637265737360e01b60648201526084016103cc565b6001600160a01b0382166106d25760405162461bcd60e51b815260206004820152602260248201527f45524332303a20617070726f766520746f20746865207a65726f206164647265604482015261737360f01b60648201526084016103cc565b6001600160a01b0383811660008181526001602090815260408083209487168084529482529182902085905590518481527f8c5be1e5ebec7d5bd14f71427d1e84f3dd0314c0f7b2291e5b200ac8c7c3b92591015b60405180910390a3505050565b6001600160a01b0383166107985760405162461bcd60e51b815260206004820152602560248201527f45524332303a207472616e736665722066726f6d20746865207a65726f206164604482015264647265737360d81b60648201526084016103cc565b6001600160a01b0382166107fa5760405162461bcd60e51b815260206004820152602360248201527f45524332303a207472616e7366657220746f20746865207a65726f206164647260448201526265737360e81b60648201526084016103cc565b6001600160a01b038316600090815260208190526040902054818110156108725760405162461bcd60e51b815260206004820152602660248201527f45524332303a207472616e7366657220616d6f756e7420657863656564732062604482015265616c616e636560d01b60648201526084016103cc565b6001600160a01b038085166000908152602081905260408082208585039055918516815290812080548492906108a9908490610ca5565b92505081905550826001600160a01b0316846001600160a01b03167fddf252ad1be2c89b69c2b068fc378daa952ba7f163c4a11628f55a4df523b3ef846040516108f591815260200190565b60405180910390a350505050565b6001600160a01b0382166109595760405162461bcd60e51b815260206004820152601f60248201527f45524332303a206d696e7420746f20746865207a65726f20616464726573730060448201526064016103cc565b806002600082825461096b9190610ca5565b90915550506001600160a01b03821660009081526020819052604081208054839290610998908490610ca5565b90915550506040518181526001600160a01b038316906000907fddf252ad1be2c89b69c2b068fc378daa952ba7f163c4a11628f55a4df523b3ef9060200160405180910390a35050565b6001600160a01b038216610a425760405162461bcd60e51b815260206004820152602160248201527f45524332303a206275726e2066726f6d20746865207a65726f206164647265736044820152607360f81b60648201526084016103cc565b6001600160a01b03821660009081526020819052604090205481811015610ab65760405162461bcd60e51b815260206004820152602260248201527f45524332303a206275726e20616d6f756e7420657863656564732062616c616e604482015261636560f01b60648201526084016103cc565b6001600160a01b0383166000908152602081905260408120838303905560028054849290610ae5908490610cff565b90915550506040518281526000906001600160a01b038516907fddf252ad1be2c89b69c2b068fc378daa952ba7f163c4a11628f55a4df523b3ef90602001610727565b600060208083528351808285015260005b81811015610b5557858101830151858201604001528201610b39565b81811115610b67576000604083870101525b50601f01601f1916929092016040019392505050565b80356001600160a01b0381168114610b9457600080fd5b919050565b60008060408385031215610bac57600080fd5b610bb583610b7d565b946020939093013593505050565b600080600060608486031215610bd857600080fd5b610be184610b7d565b9250610bef60208501610b7d565b9150604084013590509250925092565b600060208284031215610c1157600080fd5b610c1a82610b7d565b9392505050565b60008060408385031215610c3457600080fd5b610c3d83610b7d565b9150610c4b60208401610b7d565b90509250929050565b600181811c90821680610c6857607f821691505b60208210811415610c8957634e487b7160e01b600052602260045260246000fd5b50919050565b634e487b7160e01b600052601160045260246000fd5b60008219821115610cb857610cb8610c8f565b500190565b60208082526022908201527f6f6e6c79206d696e7465722063616e2063616c6c20746869732066756e63746960408201526137b760f11b606082015260800190565b600082821015610d1157610d11610c8f565b50039056fea2646970667358221220f9ef82f6e77f4e2ddc82ac01fa2e084acd47687f90376eedd385d8b82cea2d3464736f6c63430008090033a264697066735822122091f31e3c602e5a30ccf1253759aea87dc5732b3c46062c106f3bc691004e845364736f6c63430008090033",
    "immutableReferences": {},
    "source": "// SPDX-License-Identifier: MIT\npragma solidity 0.8.9;\n\nimport \"./PolicyToken.sol\";\nimport \"./NaughtyPair.sol\";\n\nimport \"@openzeppelin/contracts/token/ERC20/IERC20.sol\";\nimport \"./interfaces/INaughtyPair.sol\";\nimport \"./interfaces/INaughtyFactory.sol\";\nimport \"./interfaces/IPolicyCore.sol\";\n\nimport \"@openzeppelin/contracts/utils/Strings.sol\";\n\n/**\n * @title Naughty Factory\n * @dev Factory contract to deploy new pools periodically\n *      Each pool(product) will have a unique naughtyId\n *      Each pool will have its pool token\n *      PolicyToken - Stablecoin\n *      Token 0 may change but Token 1 is always stablecoin.\n */\n\ncontract NaughtyFactory is INaughtyFactory {\n    using Strings for uint256;\n\n    // PolicyToken Address => StableCoin Address => Pool Address\n    mapping(address => mapping(address => address)) getPair;\n\n    address[] allPairs;\n    address[] allTokens;\n\n    uint256 public _nextId;\n\n    address public policyCore;\n\n    address public feeTo;\n    address public feeToSetter;\n\n    constructor(address _feeToSetter) {\n        feeToSetter = _feeToSetter;\n    }\n\n    /**\n     * @notice Only feeToSetter can call some functions\n     */\n    modifier onlyFeeToSetter() {\n        require(\n            msg.sender == feeToSetter,\n            \"Only feeToSetter can call this function\"\n        );\n        _;\n    }\n\n    /**\n     * @notice Next token to be deployed\n     * @return Latest token address\n     */\n    function getLatestTokenAddress() public view returns (address) {\n        uint256 currentToken = _nextId - 1;\n        return allTokens[currentToken];\n    }\n\n    /**\n     * @notice Get the pair address deployed by the factory\n     *         PolicyToken address first, and then stablecoin address\n     *         The order of the token not matters\n     * @return Pool address of the two tokens\n     */\n    function getPairAddress(address _tokenAddress1, address _tokenAddress2)\n        public\n        view\n        returns (address)\n    {\n        // Policy token address at the first place\n        (address token0, address token1) = IPolicyCore(policyCore)\n            .isStablecoinAddress(_tokenAddress2)\n            ? (_tokenAddress1, _tokenAddress2)\n            : (_tokenAddress2, _tokenAddress1);\n\n        address _pairAddress = getPair[token0][token1];\n\n        return _pairAddress;\n    }\n\n    /**\n     * @notice Remember to call this function to set the policyCore address\n     *         < PolicyCore should be the owner of policyToken >\n     * @param _policyCore: Address of policyCore contract\n     */\n    function setPolicyCoreAddress(address _policyCore) external {\n        policyCore = _policyCore;\n    }\n\n    /**\n     * @notice Set feeTo address\n     * @param _feeTo Address to receive the fee\n     */\n    function setFeeTo(address _feeTo) external onlyFeeToSetter {\n        feeTo = _feeTo;\n    }\n\n    /**\n     * @notice Set feeToSetter address\n     * @param _feeToSetter Address to control the feeTo\n     */\n    function setFeeToSetter(address _feeToSetter) external onlyFeeToSetter {\n        feeToSetter = _feeToSetter;\n    }\n\n    /**\n     * @notice After deploy the policytoken and get the address,\n     *         we deploy the policyToken - stablecoin pool contract\n     * @param _policyTokenAddress: Address of policy token\n     * @param _stablecoin: Address of the stable coin\n     * @return Address of the pool\n     */\n    function deployPool(\n        address _policyTokenAddress,\n        address _stablecoin,\n        uint256 _deadline\n    ) public returns (address) {\n        require(\n            IPolicyCore(policyCore).isStablecoinAddress(_stablecoin) == true,\n            \"You give the wrong order of policyToken and stablecoin\"\n        );\n\n        bytes memory bytecode = type(NaughtyPair).creationCode;\n\n        bytes32 salt = keccak256(\n            abi.encodePacked(\n                addressToString(_policyTokenAddress),\n                addressToString(_stablecoin)\n            )\n        );\n\n        address _poolAddress = _deploy(bytecode, salt);\n\n        INaughtyPair(_poolAddress).initialize(\n            _policyTokenAddress,\n            _stablecoin,\n            _deadline\n        );\n\n        getPair[_policyTokenAddress][_stablecoin] = _poolAddress;\n\n        allPairs.push(_poolAddress);\n\n        return _poolAddress;\n    }\n\n    /**\n     * @notice For each round we need to first create the policytoken(ERC20)\n     * @param _policyTokenName: Name of the policyToken\n     * @return PolicyToken address\n     */\n    function deployPolicyToken(string memory _policyTokenName)\n        public\n        returns (address)\n    {\n        bytes32 salt = keccak256(abi.encodePacked(_policyTokenName));\n\n        bytes memory bytecode = getPolicyTokenBytecode(_policyTokenName);\n\n        address _policTokenAddress = _deploy(bytecode, salt);\n\n        allTokens.push(_policTokenAddress);\n\n        _nextId++;\n\n        return _policTokenAddress;\n    }\n\n    /**\n     * @notice Deploy function with create2\n     */\n    function _deploy(bytes memory code, bytes32 salt)\n        internal\n        returns (address addr)\n    {\n        assembly {\n            addr := create2(0, add(code, 0x20), mload(code), salt)\n            if iszero(extcodesize(addr)) {\n                revert(0, 0)\n            }\n        }\n    }\n\n    /**\n     * @notice Transfer address to string\n     * @param _addr: Input address\n     * @return Output string form\n     */\n    function addressToString(address _addr)\n        internal\n        pure\n        returns (string memory)\n    {\n        return (uint256(uint160(_addr))).toHexString(20);\n    }\n\n    /**\n     * @notice Get the policyToken bytecode (with parameters)\n     * @param _tokenName: Name of policyToken\n     */\n    function getPolicyTokenBytecode(string memory _tokenName)\n        internal\n        view\n        returns (bytes memory)\n    {\n        bytes memory bytecode = type(PolicyToken).creationCode;\n\n        // Encodepacked the parameters\n        // The owner & minter is set to be the policyCore address\n        return\n            abi.encodePacked(\n                bytecode,\n                abi.encode(_tokenName, _tokenName, policyCore)\n            );\n    }\n}\n",
    "sourcePath": "/Users/ZZ/01_blockchain/NaughtyPrice-Contracts/contracts/NaughtyFactory.sol",
    "compiler": {
        "name": "solc",
        "version": "0.8.9+commit.e5eed63a.Emscripten.clang"
    },
    "schemaVersion": "3.4.1",
    "updatedAt": "2021-11-22T05:42:38.427Z",
    "networkType": "ethereum",
    "devdoc": {
        "details": "Factory contract to deploy new pools periodically      Each pool(product) will have a unique naughtyId      Each pool will have its pool token      PolicyToken - Stablecoin      Token 0 may change but Token 1 is always stablecoin.",
        "kind": "dev",
        "methods": {
            "deployPolicyToken(string)": {
                "params": {
                    "_policyTokenName": ": Name of the policyToken"
                },
                "returns": {
                    "_0": "PolicyToken address"
                }
            },
            "deployPool(address,address,uint256)": {
                "params": {
                    "_policyTokenAddress": ": Address of policy token",
                    "_stablecoin": ": Address of the stable coin"
                },
                "returns": {
                    "_0": "Address of the pool"
                }
            },
            "getLatestTokenAddress()": {
                "returns": {
                    "_0": "Latest token address"
                }
            },
            "getPairAddress(address,address)": {
                "returns": {
                    "_0": "Pool address of the two tokens"
                }
            },
            "setFeeTo(address)": {
                "params": {
                    "_feeTo": "Address to receive the fee"
                }
            },
            "setFeeToSetter(address)": {
                "params": {
                    "_feeToSetter": "Address to control the feeTo"
                }
            },
            "setPolicyCoreAddress(address)": {
                "params": {
                    "_policyCore": ": Address of policyCore contract"
                }
            }
        },
        "title": "Naughty Factory",
        "version": 1
    },
    "userdoc": {
        "kind": "user",
        "methods": {
            "deployPolicyToken(string)": {
                "notice": "For each round we need to first create the policytoken(ERC20)"
            },
            "deployPool(address,address,uint256)": {
                "notice": "After deploy the policytoken and get the address,         we deploy the policyToken - stablecoin pool contract"
            },
            "getLatestTokenAddress()": {
                "notice": "Next token to be deployed"
            },
            "getPairAddress(address,address)": {
                "notice": "Get the pair address deployed by the factory         PolicyToken address first, and then stablecoin address         The order of the token not matters"
            },
            "setFeeTo(address)": {
                "notice": "Set feeTo address"
            },
            "setFeeToSetter(address)": {
                "notice": "Set feeToSetter address"
            },
            "setPolicyCoreAddress(address)": {
                "notice": "Remember to call this function to set the policyCore address         < PolicyCore should be the owner of policyToken >"
            }
        },
        "version": 1
    }
}