{
    "contractName": "PolicyCore",
    "abi": [
        {
            "inputs": [
                {
                    "internalType": "address",
                    "name": "_usdt",
                    "type": "address"
                },
                {
                    "internalType": "address",
                    "name": "_factory",
                    "type": "address"
                },
                {
                    "internalType": "address",
                    "name": "_router",
                    "type": "address"
                },
                {
                    "internalType": "address",
                    "name": "_priceGetter",
                    "type": "address"
                },
                {
                    "internalType": "address",
                    "name": "_degis",
                    "type": "address"
                }
            ],
            "stateMutability": "nonpayable",
            "type": "constructor"
        },
        {
            "anonymous": false,
            "inputs": [
                {
                    "indexed": false,
                    "internalType": "address",
                    "name": "_newStablecoin",
                    "type": "address"
                }
            ],
            "name": "NewStablecoinAdded",
            "type": "event"
        },
        {
            "anonymous": false,
            "inputs": [
                {
                    "indexed": false,
                    "internalType": "uint256",
                    "name": "_newRatio",
                    "type": "uint256"
                }
            ],
            "name": "PurchaseIncentiveRatioSet",
            "type": "event"
        },
        {
            "anonymous": false,
            "inputs": [
                {
                    "indexed": false,
                    "internalType": "string",
                    "name": "_policyTokenName",
                    "type": "string"
                },
                {
                    "indexed": false,
                    "internalType": "int256",
                    "name": "price",
                    "type": "int256"
                },
                {
                    "indexed": false,
                    "internalType": "bool",
                    "name": "isHappened",
                    "type": "bool"
                }
            ],
            "name": "SettleFinalResult",
            "type": "event"
        },
        {
            "inputs": [
                {
                    "internalType": "address",
                    "name": "",
                    "type": "address"
                },
                {
                    "internalType": "uint256",
                    "name": "",
                    "type": "uint256"
                }
            ],
            "name": "allDepositors",
            "outputs": [
                {
                    "internalType": "address",
                    "name": "",
                    "type": "address"
                }
            ],
            "stateMutability": "view",
            "type": "function",
            "constant": true
        },
        {
            "inputs": [],
            "name": "degis",
            "outputs": [
                {
                    "internalType": "address",
                    "name": "",
                    "type": "address"
                }
            ],
            "stateMutability": "view",
            "type": "function",
            "constant": true
        },
        {
            "inputs": [],
            "name": "factory",
            "outputs": [
                {
                    "internalType": "address",
                    "name": "",
                    "type": "address"
                }
            ],
            "stateMutability": "view",
            "type": "function",
            "constant": true
        },
        {
            "inputs": [],
            "name": "owner",
            "outputs": [
                {
                    "internalType": "address",
                    "name": "",
                    "type": "address"
                }
            ],
            "stateMutability": "view",
            "type": "function",
            "constant": true
        },
        {
            "inputs": [],
            "name": "priceGetter",
            "outputs": [
                {
                    "internalType": "address",
                    "name": "",
                    "type": "address"
                }
            ],
            "stateMutability": "view",
            "type": "function",
            "constant": true
        },
        {
            "inputs": [],
            "name": "purchaseIncentiveRatio",
            "outputs": [
                {
                    "internalType": "uint256",
                    "name": "",
                    "type": "uint256"
                }
            ],
            "stateMutability": "view",
            "type": "function",
            "constant": true
        },
        {
            "inputs": [],
            "name": "router",
            "outputs": [
                {
                    "internalType": "address",
                    "name": "",
                    "type": "address"
                }
            ],
            "stateMutability": "view",
            "type": "function",
            "constant": true
        },
        {
            "inputs": [
                {
                    "internalType": "string",
                    "name": "_policyTokenName",
                    "type": "string"
                }
            ],
            "name": "findAddressbyName",
            "outputs": [
                {
                    "internalType": "address",
                    "name": "",
                    "type": "address"
                }
            ],
            "stateMutability": "view",
            "type": "function",
            "constant": true
        },
        {
            "inputs": [
                {
                    "internalType": "string",
                    "name": "_policyTokenName",
                    "type": "string"
                }
            ],
            "name": "getPolicyTokenInfo",
            "outputs": [
                {
                    "components": [
                        {
                            "internalType": "address",
                            "name": "policyTokenAddress",
                            "type": "address"
                        },
                        {
                            "internalType": "bool",
                            "name": "isCall",
                            "type": "bool"
                        },
                        {
                            "internalType": "uint256",
                            "name": "strikePrice",
                            "type": "uint256"
                        },
                        {
                            "internalType": "uint256",
                            "name": "deadline",
                            "type": "uint256"
                        },
                        {
                            "internalType": "uint256",
                            "name": "settleTimestamp",
                            "type": "uint256"
                        }
                    ],
                    "internalType": "struct PolicyCore.PolicyTokenInfo",
                    "name": "",
                    "type": "tuple"
                }
            ],
            "stateMutability": "view",
            "type": "function",
            "constant": true
        },
        {
            "inputs": [
                {
                    "internalType": "address",
                    "name": "_coinAddress",
                    "type": "address"
                }
            ],
            "name": "isStablecoinAddress",
            "outputs": [
                {
                    "internalType": "bool",
                    "name": "",
                    "type": "bool"
                }
            ],
            "stateMutability": "view",
            "type": "function",
            "constant": true
        },
        {
            "inputs": [
                {
                    "internalType": "address",
                    "name": "_newStablecoin",
                    "type": "address"
                }
            ],
            "name": "addStablecoin",
            "outputs": [],
            "stateMutability": "nonpayable",
            "type": "function"
        },
        {
            "inputs": [
                {
                    "internalType": "uint256",
                    "name": "_newRatio",
                    "type": "uint256"
                }
            ],
            "name": "setPurchaseIncentiveAmount",
            "outputs": [],
            "stateMutability": "nonpayable",
            "type": "function"
        },
        {
            "inputs": [
                {
                    "internalType": "string",
                    "name": "_policyTokenName",
                    "type": "string"
                },
                {
                    "internalType": "address",
                    "name": "_tokenAddress",
                    "type": "address"
                },
                {
                    "internalType": "bool",
                    "name": "_isCall",
                    "type": "bool"
                },
                {
                    "internalType": "uint256",
                    "name": "_strikePrice",
                    "type": "uint256"
                },
                {
                    "internalType": "uint256",
                    "name": "_deadline",
                    "type": "uint256"
                },
                {
                    "internalType": "uint256",
                    "name": "_settleTimestamp",
                    "type": "uint256"
                }
            ],
            "name": "deployPolicyToken",
            "outputs": [
                {
                    "internalType": "address",
                    "name": "",
                    "type": "address"
                }
            ],
            "stateMutability": "nonpayable",
            "type": "function"
        },
        {
            "inputs": [
                {
                    "internalType": "string",
                    "name": "_policyTokenName",
                    "type": "string"
                },
                {
                    "internalType": "address",
                    "name": "_stablecoin",
                    "type": "address"
                },
                {
                    "internalType": "uint256",
                    "name": "_poolDeadline",
                    "type": "uint256"
                }
            ],
            "name": "deployPool",
            "outputs": [
                {
                    "internalType": "address",
                    "name": "",
                    "type": "address"
                }
            ],
            "stateMutability": "nonpayable",
            "type": "function"
        },
        {
            "inputs": [
                {
                    "internalType": "string",
                    "name": "_policyTokenName",
                    "type": "string"
                },
                {
                    "internalType": "address",
                    "name": "_stablecoin",
                    "type": "address"
                },
                {
                    "internalType": "uint256",
                    "name": "_amount",
                    "type": "uint256"
                }
            ],
            "name": "deposit",
            "outputs": [],
            "stateMutability": "nonpayable",
            "type": "function"
        },
        {
            "inputs": [
                {
                    "internalType": "string",
                    "name": "_policyTokenName",
                    "type": "string"
                },
                {
                    "internalType": "address",
                    "name": "_stablecoin",
                    "type": "address"
                },
                {
                    "internalType": "uint256",
                    "name": "_amount",
                    "type": "uint256"
                }
            ],
            "name": "redeem",
            "outputs": [],
            "stateMutability": "nonpayable",
            "type": "function"
        },
        {
            "inputs": [
                {
                    "internalType": "string",
                    "name": "_policyTokenName",
                    "type": "string"
                },
                {
                    "internalType": "address",
                    "name": "_stablecoin",
                    "type": "address"
                },
                {
                    "internalType": "uint256",
                    "name": "_amount",
                    "type": "uint256"
                }
            ],
            "name": "claim",
            "outputs": [],
            "stateMutability": "nonpayable",
            "type": "function"
        },
        {
            "inputs": [
                {
                    "internalType": "string",
                    "name": "_policyTokenName",
                    "type": "string"
                }
            ],
            "name": "settleFinalResult",
            "outputs": [],
            "stateMutability": "nonpayable",
            "type": "function"
        },
        {
            "inputs": [
                {
                    "internalType": "address",
                    "name": "_policyTokenAddress",
                    "type": "address"
                },
                {
                    "internalType": "address",
                    "name": "_stablecoin",
                    "type": "address"
                },
                {
                    "internalType": "uint256",
                    "name": "_startIndex",
                    "type": "uint256"
                },
                {
                    "internalType": "uint256",
                    "name": "_stopIndex",
                    "type": "uint256"
                }
            ],
            "name": "settleAllPolicyTokens",
            "outputs": [],
            "stateMutability": "nonpayable",
            "type": "function"
        }
    ],
    "bytecode": "0x60806040523480156200001157600080fd5b50604051620021eb380380620021eb8339810160408190526200003491620000cc565b6001600160a01b039485166000908152600760205260408120805460ff1916600190811790915581549587166001600160a01b0319968716179091558054938616938516939093179092556002805491851691841691909117905560038054919093169082161790915560048054909116331790556200013c565b80516001600160a01b0381168114620000c757600080fd5b919050565b600080600080600060a08688031215620000e557600080fd5b620000f086620000af565b94506200010060208701620000af565b93506200011060408701620000af565b92506200012060608701620000af565b91506200013060808701620000af565b90509295509295909350565b61209f806200014c6000396000f3fe608060405234801561001057600080fd5b50600436106101215760003560e01c80637336c38d116100ad578063c45a015511610071578063c45a01551461027c578063ceed1b901461028f578063d9e85c84146102a2578063dd767534146102fd578063f887ea401461031057600080fd5b80637336c38d146102195780638da5cb5b1461022c57806390196d421461023f578063aeb5134a14610256578063bf72c0c71461026957600080fd5b806329fd2007116100f457806329fd2007146101915780632a48ac9a146101a457806341792a9b146101b757806346fbadda146101ca5780634e75ce891461020657600080fd5b806303844097146101265780630418945a1461013b57806308d89d5f1461014e5780631306c0a514610161575b600080fd5b610139610134366004611b97565b610323565b005b610139610149366004611bec565b6106a3565b61013961015c366004611c09565b610728565b61017461016f366004611c63565b6109f6565b6040516001600160a01b0390911681526020015b60405180910390f35b600354610174906001600160a01b031681565b6101396101b2366004611c09565b610a2e565b6101396101c5366004611c8f565b610c02565b6101f66101d8366004611bec565b6001600160a01b031660009081526007602052604090205460ff1690565b6040519015158152602001610188565b610174610214366004611b97565b610d9e565b610139610227366004611c09565b610dcf565b600454610174906001600160a01b031681565b61024860055481565b604051908152602001610188565b610139610264366004611cd5565b610f5e565b610174610277366004611cfc565b610fbd565b600054610174906001600160a01b031681565b600254610174906001600160a01b031681565b6102b56102b0366004611b97565b611141565b604051610188919081516001600160a01b0316815260208083015115159082015260408083015190820152606080830151908201526080918201519181019190915260a00190565b61017461030b366004611c09565b6111ed565b600154610174906001600160a01b031681565b8060006006826040516103369190611da6565b9081526020016040518091039020600301549050804210156103735760405162461bcd60e51b815260040161036a90611dc2565b60405180910390fd5b8260006006826040516103869190611da6565b9081526040805160209281900383019020546001600160a01b03166000818152600c909352912060010154909150610100900460ff16156104155760405162461bcd60e51b8152602060048201526024808201527f5468697320706f6c6963792068617320616c7265616479206265656e207365746044820152631d1b195960e21b606482015260840161036a565b60006006866040516104279190611da6565b908152604051908190036020019020546001600160a01b03169050806104b55760405162461bcd60e51b815260206004820152603e60248201527f5468697320706f6c69637920746f6b656e20646f6573206e6f7420657869737460448201527f2c206d6179626520796f7520696e70757420612077726f6e67206e616d650000606482015260840161036a565b6001600160a01b038082166000908152600c6020526040808220600254915163f66a1b7160e01b81529093919091169063f66a1b71906104f9908b90600401611e44565b602060405180830381600087803b15801561051357600080fd5b505af1158015610527573d6000803e3d6000fd5b505050506040513d601f19601f8201168201806040525081019061054b9190611e57565b9050600081136105955760405162461bcd60e51b8152602060048201526015602482015274050726963652063616e206e6f74206265203c3d203605c1b604482015260640161036a565b8082556040516000906006906105ac908b90611da6565b9081526020016040518091039020600101549050600060068a6040516105d29190611da6565b9081526040519081900360200190205460ff600160a01b90910416905060008284108015906105fe5750815b90506000838511158015610610575082155b9050818061061b5750805b15610635576001868101805460ff19169091179055610642565b60018601805460ff191690555b60018601805461ff00198116610100179091556040517f639fed5ae06a48ce867d646d8911e75557ab217d1e52edaea607bafa77c9ba809161068d918f91899160ff90911690611e70565b60405180910390a1505050505050505050505050565b6004546001600160a01b031633146106cd5760405162461bcd60e51b815260040161036a90611e9a565b6001600160a01b038116600081815260076020908152604091829020805460ff1916600117905590519182527f86b377b6d485043d4a8b2b0c26051f82529ea2d7c23b1188598416473c12309391015b60405180910390a150565b6040516370a0823160e01b81523060048201528290829081906001600160a01b038416906370a082319060240160206040518083038186803b15801561076d57600080fd5b505afa158015610781573d6000803e3d6000fd5b505050506040513d601f19601f820116820180604052508101906107a59190611e57565b10156107c35760405162461bcd60e51b815260040161036a90611edf565b8460006006826040516107d69190611da6565b90815260200160405180910390206003015490508042101561080a5760405162461bcd60e51b815260040161036a90611dc2565b600060068860405161081c9190611da6565b9081526040805160209281900383019020546001600160a01b03166000818152600c909352912060019081015491925061010090910460ff161515146108a45760405162461bcd60e51b815260206004820152601e60248201527f48617665206e6f7420676f7420746865206f7261636c6520726573756c740000604482015260640161036a565b60006103e86108b5886103de611f3f565b6108bf9190611f5e565b6001600160a01b0383166000908152600c6020526040902060019081015491925060ff909116151514156109e1576040516370a0823160e01b8152336004820152829088906001600160a01b038316906370a082319060240160206040518083038186803b15801561093057600080fd5b505afa158015610944573d6000803e3d6000fd5b505050506040513d601f19601f820116820180604052508101906109689190611e57565b10156109d05760405162461bcd60e51b815260206004820152603160248201527f596f7520646f206e6f7420686176652073756666696369656e7420706f6c69636044820152707920746f6b656e7320746f20636c61696d60781b606482015260840161036a565b6109db838a84611431565b506109eb565b6109eb8282611532565b505050505050505050565b600b6020528160005260406000208181548110610a1257600080fd5b6000918252602090912001546001600160a01b03169150829050565b826000600682604051610a419190611da6565b908152602001604051809103902060020154905080421115610a755760405162461bcd60e51b815260040161036a90611f80565b6000600686604051610a879190611da6565b9081526040805160209281900383019020546001600160a01b03908116600081815260089094529190922054909250868216911614610b175760405162461bcd60e51b815260206004820152602660248201527f506f6c696379546f6b656e20616e6420737461626c65636f696e206e6f74206d604482015265185d18da195960d21b606482015260840161036a565b6040516370a0823160e01b815233600482015284906001600160a01b038716906370a082319060240160206040518083038186803b158015610b5857600080fd5b505afa158015610b6c573d6000803e3d6000fd5b505050506040513d601f19601f82011682018060405250810190610b909190611e57565b1015610bef5760405162461bcd60e51b815260206004820152602860248201527f55736572277320737461626c65636f696e2062616c616e6365206e6f7420737560448201526719999a58da595b9d60c21b606482015260840161036a565b610bfa818686611605565b505050505050565b6004546001600160a01b03163314610c2c5760405162461bcd60e51b815260040161036a90611e9a565b6001600160a01b0384166000908152600c60209081526040918290208251606081018452815480825260019092015460ff80821615159483019490945261010090049092161515928201929092529015801590610c8f5750604081015115156001145b610cdb5760405162461bcd60e51b815260206004820152601e60248201527f48617665206e6f7420676f7420746865206f7261636c6520726573756c740000604482015260640161036a565b602081015115610d4c5760405162461bcd60e51b815260206004820152603660248201527f4f6e6c792063616c6c20746869732066756e6374696f6e207768656e207468656044820152751032bb32b73a103237b2b9903737ba103430b83832b760511b606482015260840161036a565b82158015610d58575081155b15610d8b576001600160a01b0385166000908152600b602052604081205490610d8590879087908461171e565b50610d97565b610d978585858561171e565b5050505050565b6000600682604051610db09190611da6565b908152604051908190036020019020546001600160a01b031692915050565b6040516370a0823160e01b81523060048201528290829081906001600160a01b038416906370a082319060240160206040518083038186803b158015610e1457600080fd5b505afa158015610e28573d6000803e3d6000fd5b505050506040513d601f19601f82011682018060405250810190610e4c9190611e57565b1015610e6a5760405162461bcd60e51b815260040161036a90611edf565b846000600682604051610e7d9190611da6565b908152602001604051809103902060020154905080421115610eb15760405162461bcd60e51b815260040161036a90611f80565b6000600688604051610ec39190611da6565b908152604080516020928190038301902054336000908152600a84528281206001600160a01b0390921680825291909352912054909150861115610f495760405162461bcd60e51b815260206004820152601b60248201527f5573657227732071756f7461206e6f742073756666696369656e740000000000604482015260640161036a565b610f54818888611431565b5050505050505050565b6004546001600160a01b03163314610f885760405162461bcd60e51b815260040161036a90611e9a565b60058190556040518181527fb9f2b8e9116ed9601970d7b0d39ca2db09a26814bf5f2ff94258f2294cf248789060200161071d565b6004546000906001600160a01b03163314610fea5760405162461bcd60e51b815260040161036a90611e9a565b6000805460405163781e309960e11b81526001600160a01b039091169063f03c61329061101b908b90600401611e44565b602060405180830381600087803b15801561103557600080fd5b505af1158015611049573d6000803e3d6000fd5b505050506040513d601f19601f8201168201806040525081019061106d9190611fcf565b90506040518060a00160405280826001600160a01b031681526020018715158152602001868152602001858152602001848152506006896040516110b19190611da6565b9081526040805191829003602090810190922083518154858501511515600160a01b026001600160a81b03199091166001600160a01b03928316171782558483015160018301556060850151600283015560809094015160039091015583831660009081526009909252902080549189166001600160a01b03199290921691909117905590509695505050505050565b61117e6040518060a0016040528060006001600160a01b031681526020016000151581526020016000815260200160008152602001600081525090565b60068260405161118e9190611da6565b90815260408051918290036020908101832060a08401835280546001600160a01b038116855260ff600160a01b909104161515918401919091526001810154918301919091526002810154606083015260030154608082015292915050565b6004546000906001600160a01b0316331461121a5760405162461bcd60e51b815260040161036a90611e9a565b6001600160a01b038316600090815260076020526040902054839060ff16151560011461129a5760405162461bcd60e51b815260206004820152602860248201527f446f206e6f7420737570706f7274207468697320737461626c65636f696e2063604482015267757272656e746c7960c01b606482015260840161036a565b8460006001600160a01b03166006826040516112b69190611da6565b908152604051908190036020019020546001600160a01b031614156113435760405162461bcd60e51b815260206004820152603f60248201527f5468697320706f6c69637920746f6b656e20686173206e6f74206265656e206460448201527f65706c6f7965642c20706c65617365206465706c6f7920697420666972737400606482015260840161036a565b60006006876040516113559190611da6565b908152604051908190036020018120546000805463a3232bf360e01b84526001600160a01b03928316600485018190528a84166024860152604485018a90529450909291169063a3232bf390606401602060405180830381600087803b1580156113be57600080fd5b505af11580156113d2573d6000803e3d6000fd5b505050506040513d601f19601f820116820180604052508101906113f69190611fcf565b6001600160a01b03928316600090815260086020526040902080546001600160a01b0319169890931697909717909155509395945050505050565b826114466001600160a01b0384163384611807565b604051632770a7eb60e21b8152336004820152602481018390526001600160a01b03821690639dc29fac90604401600060405180830381600087803b15801561148e57600080fd5b505af11580156114a2573d6000803e3d6000fd5b5050336000908152600a602090815260408083206001600160a01b038a168452909152812080548694509092506114da908490611fec565b9091555050336000908152600a602090815260408083206001600160a01b038816845290915290205461152c57336000908152600a602090815260408083206001600160a01b03881684529091528120555b50505050565b6000600554826115429190611f5e565b6003546040516340c10f1960e01b8152336004820152602481018390529192506001600160a01b0316906340c10f1990604401600060405180830381600087803b15801561158f57600080fd5b505af11580156115a3573d6000803e3d6000fd5b5050604051632770a7eb60e21b8152336004820152602481018590528592506001600160a01b0383169150639dc29fac90604401600060405180830381600087803b1580156115f157600080fd5b505af1158015610f54573d6000803e3d6000fd5b8261161b6001600160a01b03841633308561186f565b6040516340c10f1960e01b8152336004820152602481018390526001600160a01b038216906340c10f1990604401600060405180830381600087803b15801561166357600080fd5b505af1158015611677573d6000803e3d6000fd5b5050336000908152600a602090815260408083206001600160a01b038a168452909152902054151591506116e09050576001600160a01b0384166000908152600b602090815260408220805460018101825590835291200180546001600160a01b031916331790555b336000908152600a602090815260408083206001600160a01b038816845290915281208054849290611713908490612003565b909155505050505050565b815b81811015610d97576001600160a01b0385166000908152600b602052604081208054839081106117525761175261201b565b60009182526020808320909101546001600160a01b03908116808452600a83526040808520928b16855291909252822054909250906103e8611796836103de611f3f565b6117a09190611f5e565b905080156117e9576117bc6001600160a01b0388168483611807565b6001600160a01b038084166000908152600a60209081526040808320938c168352929052908120556117f1565b5050506117f5565b5050505b806117ff81612031565b915050611720565b6040516001600160a01b03831660248201526044810182905261186a90849063a9059cbb60e01b906064015b60408051601f198184030181529190526020810180516001600160e01b03166001600160e01b0319909316929092179091526118a7565b505050565b6040516001600160a01b038085166024830152831660448201526064810182905261152c9085906323b872dd60e01b90608401611833565b60006118fc826040518060400160405280602081526020017f5361666545524332303a206c6f772d6c6576656c2063616c6c206661696c6564815250856001600160a01b03166119799092919063ffffffff16565b80519091501561186a578080602001905181019061191a919061204c565b61186a5760405162461bcd60e51b815260206004820152602a60248201527f5361666545524332303a204552433230206f7065726174696f6e20646964206e6044820152691bdd081cdd58d8d9595960b21b606482015260840161036a565b60606119888484600085611992565b90505b9392505050565b606030318311156119f45760405162461bcd60e51b815260206004820152602660248201527f416464726573733a20696e73756666696369656e742062616c616e636520666f6044820152651c8818d85b1b60d21b606482015260840161036a565b843b611a425760405162461bcd60e51b815260206004820152601d60248201527f416464726573733a2063616c6c20746f206e6f6e2d636f6e7472616374000000604482015260640161036a565b600080866001600160a01b03168587604051611a5e9190611da6565b60006040518083038185875af1925050503d8060008114611a9b576040519150601f19603f3d011682016040523d82523d6000602084013e611aa0565b606091505b5091509150611ab0828286611abb565b979650505050505050565b60608315611aca57508161198b565b825115611ada5782518084602001fd5b8160405162461bcd60e51b815260040161036a9190611e44565b634e487b7160e01b600052604160045260246000fd5b600082601f830112611b1b57600080fd5b813567ffffffffffffffff80821115611b3657611b36611af4565b604051601f8301601f19908116603f01168101908282118183101715611b5e57611b5e611af4565b81604052838152866020858801011115611b7757600080fd5b836020870160208301376000602085830101528094505050505092915050565b600060208284031215611ba957600080fd5b813567ffffffffffffffff811115611bc057600080fd5b611bcc84828501611b0a565b949350505050565b6001600160a01b0381168114611be957600080fd5b50565b600060208284031215611bfe57600080fd5b813561198b81611bd4565b600080600060608486031215611c1e57600080fd5b833567ffffffffffffffff811115611c3557600080fd5b611c4186828701611b0a565b9350506020840135611c5281611bd4565b929592945050506040919091013590565b60008060408385031215611c7657600080fd5b8235611c8181611bd4565b946020939093013593505050565b60008060008060808587031215611ca557600080fd5b8435611cb081611bd4565b93506020850135611cc081611bd4565b93969395505050506040820135916060013590565b600060208284031215611ce757600080fd5b5035919050565b8015158114611be957600080fd5b60008060008060008060c08789031215611d1557600080fd5b863567ffffffffffffffff811115611d2c57600080fd5b611d3889828a01611b0a565b9650506020870135611d4981611bd4565b94506040870135611d5981611cee565b959894975094956060810135955060808101359460a0909101359350915050565b60005b83811015611d95578181015183820152602001611d7d565b8381111561152c5750506000910152565b60008251611db8818460208701611d7a565b9190910192915050565b60208082526036908201527f43616e206e6f7420736574746c652f636c61696d2c2068617665206e6f742072604082015275065616368656420736574746c6554696d657374616d760541b606082015260800190565b60008151808452611e30816020860160208601611d7a565b601f01601f19169290920160200192915050565b60208152600061198b6020830184611e18565b600060208284031215611e6957600080fd5b5051919050565b606081526000611e836060830186611e18565b602083019490945250901515604090910152919050565b60208082526025908201527f4f6e6c7920746865206f776e65722063616e2063616c6c20746869732066756e60408201526431ba34b7b760d91b606082015260800190565b6020808252602a908201527f4e6f742073756666696369656e7420737461626c65636f696e7320696e207468604082015269194818dbdb9d1c9858dd60b21b606082015260800190565b634e487b7160e01b600052601160045260246000fd5b6000816000190483118215151615611f5957611f59611f29565b500290565b600082611f7b57634e487b7160e01b600052601260045260246000fd5b500490565b6020808252602f908201527f43616e206e6f74206465706f7369742f72656465656d2c20686173207061737360408201526e65642074686520646561646c696e6560881b606082015260800190565b600060208284031215611fe157600080fd5b815161198b81611bd4565b600082821015611ffe57611ffe611f29565b500390565b6000821982111561201657612016611f29565b500190565b634e487b7160e01b600052603260045260246000fd5b600060001982141561204557612045611f29565b5060010190565b60006020828403121561205e57600080fd5b815161198b81611cee56fea2646970667358221220e0310046f02b34b8168e8e7668c693481c0a46fbb1020c157f4d72466953d5b764736f6c63430008090033",
    "immutableReferences": {},
    "source": "// SPDX-License-Identifier: MIT\npragma solidity 0.8.9;\n\nimport \"@openzeppelin/contracts/token/ERC20/IERC20.sol\";\nimport \"@openzeppelin/contracts/token/ERC20/utils/SafeERC20.sol\";\nimport \"./libraries/NaughtyLibrary.sol\";\nimport \"./interfaces/IPolicyToken.sol\";\nimport \"./interfaces/INaughtyRouter.sol\";\nimport \"./interfaces/INaughtyFactory.sol\";\nimport \"./interfaces/IPriceGetter.sol\";\nimport \"./interfaces/IPolicyCore.sol\";\nimport \"./interfaces/IDegisToken.sol\";\n\n/**\n * @title  PolicyCore\n * @notice Core logic of Naughty Price Product\n *         Preset:\n *              (Done in the naughtyFactory contract)\n *              1. Deploy policyToken contract\n *              2. Deploy policyToken-Stablecoin pool contract\n *         User Interaction:\n *              1. Deposit Stablecoin and mint PolicyTokens\n *              2. Redeem their Stablecoin and burn the PolicyTokens (before settlement)\n *              3. Claim for payout with PolicyTokens (after settlement)\n *         PolicyTokens are minted with the ratio 1:1 to Stablecoin\n *         The PolicyTokens are traded in the pool with CFMM (xy=k)\n *         When the event happens, a PolicyToken can be burned for claiming 1 Stablecoin.\n *         When the event does not happen, the PolicyToken depositors can\n *         redeem their 1 deposited Stablecoin\n * @dev    Most of the functions to be called from outside will use the name of policyToken\n *         rather than the address(easy to read).\n *         Other variables or functions still use address to index.\n *         The rule of policyToken naming is Original Token Name + Strike Price + Lower or Higher + Date\n *         E.g.  AVAX30L202101, BTC30000L202102, ETH8000H202109\n */\ncontract PolicyCore is IPolicyCore {\n    using SafeERC20 for IERC20;\n\n    // Factory contract, responsible for deploying new contracts\n    address public factory;\n\n    // Router contract, responsible for pair swapping\n    address public router;\n\n    // Oracle contract, responsible for getting the final price\n    address public priceGetter;\n\n    // Degis token address, used for purchase incentive\n    address public degis;\n\n    // Owner address\n    address public owner;\n\n    // Ratio =\n    uint256 public purchaseIncentiveRatio;\n\n    struct PolicyTokenInfo {\n        address policyTokenAddress;\n        bool isCall;\n        uint256 strikePrice;\n        uint256 deadline;\n        uint256 settleTimestamp;\n    }\n    // Policy toke name => Policy token information\n    mapping(string => PolicyTokenInfo) policyTokenInfoMapping;\n\n    // Stablecoin address => Supported or not\n    mapping(address => bool) stablecoin;\n\n    // Policy token address => Stablecoin address\n    mapping(address => address) whichStablecoin;\n\n    // PolicyToken => Strike Token (e.g. AVAX30L202101 address => AVAX address)\n    mapping(address => address) policyTokenToOriginal;\n\n    // User Address => Token Address => User Quota Amount\n    mapping(address => mapping(address => uint256)) userQuota;\n\n    // Policy token address => All the depositors for this round (store all the depositors in an array)\n    mapping(address => address[]) public allDepositors;\n\n    struct SettlementInfo {\n        int256 price;\n        bool isHappened;\n        bool alreadySettled;\n    }\n    // Policy token address => Settlement result information\n    mapping(address => SettlementInfo) settleResult;\n\n    /**\n     * @notice Constructor, for some addresses\n     * @param _usdt Stablecoin (first supported) in the pool\n     * @param _factory Address of naughty factory\n     * @param _router Address of naughty router\n     * @param _priceGetter Address of the oracle contract\n     * @param _degis Address of degis token, used for purchase incentive\n     */\n    constructor(\n        address _usdt,\n        address _factory,\n        address _router,\n        address _priceGetter,\n        address _degis\n    ) {\n        stablecoin[_usdt] = true;\n\n        factory = _factory;\n        router = _router;\n        priceGetter = _priceGetter;\n        degis = _degis;\n\n        owner = msg.sender;\n    }\n\n    // ---------------------------------------------------------------------------------------- //\n    // ************************************** Modifiers *************************************** //\n    // ---------------------------------------------------------------------------------------- //\n\n    /**\n     * @notice Only the owner can call some functions\n     */\n    modifier onlyOwner() {\n        require(msg.sender == owner, \"Only the owner can call this function\");\n        _;\n    }\n\n    /**\n     * @notice Check if this stablecoin is supported\n     * @param _stablecoin Stablecoin address\n     */\n    modifier supportedStablecoin(address _stablecoin) {\n        require(\n            stablecoin[_stablecoin] == true,\n            \"Do not support this stablecoin currently\"\n        );\n        _;\n    }\n\n    /**\n     * @notice Check if the policy token has been deployed, used when deploying pools\n     * @param _policyTokenName Name of the policy token inside the pair\n     */\n    modifier deployedPolicy(string memory _policyTokenName) {\n        require(\n            policyTokenInfoMapping[_policyTokenName].policyTokenAddress !=\n                address(0),\n            \"This policy token has not been deployed, please deploy it first\"\n        );\n        _;\n    }\n\n    /**\n     * @notice Check if there are enough stablecoins in this contract\n     * @param _stablecoin Address of the stablecoin\n     * @param _amount Amount to be checked\n     */\n    modifier enoughUSD(address _stablecoin, uint256 _amount) {\n        require(\n            IERC20(_stablecoin).balanceOf(address(this)) >= _amount,\n            \"Not sufficient stablecoins in the contract\"\n        );\n        _;\n    }\n\n    /**\n     * @notice Deposit/Redeem/Swap only before deadline\n     * @dev Each pool will also have this deadline\n     *      That needs to be set inside naughtyFactory\n     * @param _policyTokenName Name of the policy token\n     */\n    modifier beforeDeadline(string memory _policyTokenName) {\n        uint256 deadline = policyTokenInfoMapping[_policyTokenName].deadline;\n        require(\n            block.timestamp <= deadline,\n            \"Can not deposit/redeem, has passed the deadline\"\n        );\n        _;\n    }\n\n    /**\n     * @notice Can only settle the result after the \"_settleTimestamp\"\n     * @param _policyTokenName Name of the policy token\n     */\n    modifier afterSettlement(string memory _policyTokenName) {\n        uint256 settleTimestamp = policyTokenInfoMapping[_policyTokenName]\n            .settleTimestamp;\n        require(\n            block.timestamp >= settleTimestamp,\n            \"Can not settle/claim, have not reached settleTimestamp\"\n        );\n        _;\n    }\n\n    /**\n     * @notice Avoid multiple settlements\n     * @param _policyTokenName Name of the policy token\n     */\n    modifier notAlreadySettled(string memory _policyTokenName) {\n        address policyTokenAddress = policyTokenInfoMapping[_policyTokenName]\n            .policyTokenAddress;\n        require(\n            settleResult[policyTokenAddress].alreadySettled == false,\n            \"This policy has already been settled\"\n        );\n        _;\n    }\n\n    // ---------------------------------------------------------------------------------------- //\n    // ************************************ View Functions ************************************ //\n    // ---------------------------------------------------------------------------------------- //\n\n    /**\n     * @notice Find the token address by its name\n     * @param _policyTokenName Name of the policy token (e.g. \"AVAX30L202103\")\n     * @return policyTokenAddress Address of the policy token\n     */\n    function findAddressbyName(string memory _policyTokenName)\n        external\n        view\n        returns (address)\n    {\n        return policyTokenInfoMapping[_policyTokenName].policyTokenAddress;\n    }\n\n    /**\n     * @notice Find the token information by its name\n     * @param _policyTokenName Name of the policy token (e.g. \"AVAX30L202103\")\n     * @return policyTokenInfo PolicyToken detail information\n     */\n    function getPolicyTokenInfo(string memory _policyTokenName)\n        external\n        view\n        returns (PolicyTokenInfo memory)\n    {\n        return policyTokenInfoMapping[_policyTokenName];\n    }\n\n    /**\n     * @notice Check if this is a stablecoin address supported, used in naughtyFactory\n     * @param _coinAddress Address of the stablecoin\n     * @return Whether it is a supported stablecoin\n     */\n    function isStablecoinAddress(address _coinAddress)\n        external\n        view\n        returns (bool)\n    {\n        return stablecoin[_coinAddress];\n    }\n\n    // ---------------------------------------------------------------------------------------- //\n    // ************************************ Set Functions ************************************* //\n    // ---------------------------------------------------------------------------------------- //\n\n    /**\n     * @notice Add a newly supported stablecoin\n     * @param _newStablecoin Address of the new stablecoin\n     */\n    function addStablecoin(address _newStablecoin) external onlyOwner {\n        stablecoin[_newStablecoin] = true;\n        emit NewStablecoinAdded(_newStablecoin);\n    }\n\n    /**\n     * @notice Change the purchase incentive amount\n     * @dev policyToken amount(not happened) / ratio = incentive amount (in DEG)\n     * @param _newRatio The amount is calculated by this ratio\n     */\n    function setPurchaseIncentiveAmount(uint256 _newRatio) external onlyOwner {\n        purchaseIncentiveRatio = _newRatio;\n        emit PurchaseIncentiveRatioSet(_newRatio);\n    }\n\n    // ---------------------------------------------------------------------------------------- //\n    // ************************************ Main Functions ************************************ //\n    // ---------------------------------------------------------------------------------------- //\n\n    /**\n     * @notice Deploy a new policy token and return the token address\n     * @dev Only the owner can deploy new policy token\n     * @param _policyTokenName Token name of policy token (e.g. \"AVAX30L202101\")\n     * @param _tokenAddress Address of the original token (e.g. AVAX, BTC, ETH...)\n     * @param _isCall The policy is for higher or lower than the strike price (call / put)\n     * @param _strikePrice Strike price of the policy\n     * @param _deadline Deadline of this policy token (deposit / redeem / swap)\n     * @param _settleTimestamp Can settle after this timestamp (for oracle)\n     * @return policyTokenAddress The address of the policy token just deployed\n     */\n    function deployPolicyToken(\n        string memory _policyTokenName,\n        address _tokenAddress,\n        bool _isCall,\n        uint256 _strikePrice,\n        uint256 _deadline,\n        uint256 _settleTimestamp\n    ) public onlyOwner returns (address) {\n        // Deploy a new policy token by the factory contract\n        address policyTokenAddress = INaughtyFactory(factory).deployPolicyToken(\n            _policyTokenName\n        );\n\n        // Store the policyToken information in the mapping\n        policyTokenInfoMapping[_policyTokenName] = PolicyTokenInfo(\n            policyTokenAddress,\n            _isCall,\n            _strikePrice,\n            _deadline,\n            _settleTimestamp\n        );\n\n        // Keep the record from policy token to original token\n        policyTokenToOriginal[policyTokenAddress] = _tokenAddress;\n\n        // You can not get the return value from outside, but keep it here.\n        return policyTokenAddress;\n    }\n\n    /**\n     * @notice Deploy a new pair (pool)\n     * @param _policyTokenName Name of the policy token\n     * @param _stablecoin Address of the stable coin\n     * @param _poolDeadline Swapping deadline of the pool\n     * @return poolAddress The address of the pool just deployed\n     */\n    function deployPool(\n        string memory _policyTokenName,\n        address _stablecoin,\n        uint256 _poolDeadline\n    )\n        public\n        onlyOwner\n        supportedStablecoin(_stablecoin)\n        deployedPolicy(_policyTokenName)\n        returns (address)\n    {\n        address policyTokenAddress = policyTokenInfoMapping[_policyTokenName]\n            .policyTokenAddress;\n\n        // Deploy a new pool (policyToken <=> stablecoin)\n        address poolAddress = INaughtyFactory(factory).deployPool(\n            policyTokenAddress,\n            _stablecoin,\n            _poolDeadline\n        );\n\n        whichStablecoin[policyTokenAddress] = _stablecoin;\n        return poolAddress;\n    }\n\n    /**\n     * @notice Deposit stablecoins and get policy tokens\n     * @param _policyTokenName Name of the policy token\n     * @param _stablecoin Address of the sable coin\n     * @param _amount Amount of stablecoin (also the amount of policy tokens)\n     */\n    function deposit(\n        string memory _policyTokenName,\n        address _stablecoin,\n        uint256 _amount\n    ) public beforeDeadline(_policyTokenName) {\n        address policyTokenAddress = policyTokenInfoMapping[_policyTokenName]\n            .policyTokenAddress;\n\n        // Check if the user give the right stablecoin\n        require(\n            whichStablecoin[policyTokenAddress] == _stablecoin,\n            \"PolicyToken and stablecoin not matched\"\n        );\n\n        // Check if the user has enough balance\n        require(\n            IERC20(_stablecoin).balanceOf(msg.sender) >= _amount,\n            \"User's stablecoin balance not sufficient\"\n        );\n\n        _mintPolicyToken(policyTokenAddress, _stablecoin, _amount);\n    }\n\n    /**\n     * @notice Burn policy tokens and redeem USDT\n     * @dev Redeem happens before the deadline and is different from claim/settle\n     * @param _policyTokenName Name of the policy token\n     * @param _stablecoin Address of the stablecoin\n     * @param _amount Amount of USDT (also the amount of policy tokens)\n     */\n    function redeem(\n        string memory _policyTokenName,\n        address _stablecoin,\n        uint256 _amount\n    ) public enoughUSD(_stablecoin, _amount) beforeDeadline(_policyTokenName) {\n        address policyTokenAddress = policyTokenInfoMapping[_policyTokenName]\n            .policyTokenAddress;\n\n        // Check if the user has enough quota (quota is only for those who mint policy tokens)\n        require(\n            userQuota[msg.sender][policyTokenAddress] >= _amount,\n            \"User's quota not sufficient\"\n        );\n\n        _redeemPolicyToken(policyTokenAddress, _stablecoin, _amount);\n    }\n\n    /**\n     * @notice Claim a payoff based on policy tokens\n     * @dev It is done after result settlement and only if the result is true\n     * @param _policyTokenName Name of the policy token\n     * @param _stablecoin Address of the stable coin\n     * @param _amount Amount of USDT (also the amount of policy tokens)\n     */\n    function claim(\n        string memory _policyTokenName,\n        address _stablecoin,\n        uint256 _amount\n    ) public enoughUSD(_stablecoin, _amount) afterSettlement(_policyTokenName) {\n        address policyTokenAddress = policyTokenInfoMapping[_policyTokenName]\n            .policyTokenAddress;\n\n        // Check if we have already settle the final price\n        require(\n            settleResult[policyTokenAddress].alreadySettled == true,\n            \"Have not got the oracle result\"\n        );\n\n        uint256 amountWithFee = (_amount * 990) / 1000;\n\n        // If the event happens, let users claim the payoff\n        if (settleResult[policyTokenAddress].isHappened == true) {\n            IPolicyToken policyToken = IPolicyToken(policyTokenAddress);\n            require(\n                policyToken.balanceOf(msg.sender) >= _amount,\n                \"You do not have sufficient policy tokens to claim\"\n            );\n\n            _claimPolicyToken(policyTokenAddress, _stablecoin, amountWithFee);\n        }\n        // If the event does not happen, let users get the purachse incentive (if any)\n        else {\n            _claimPurchaseIncentive(policyTokenAddress, amountWithFee);\n        }\n    }\n\n    /**\n     * @notice Get the final price from the PriceGetter contract\n     * @param _policyTokenName Name of the policy token\n     */\n    function settleFinalResult(string memory _policyTokenName)\n        public\n        afterSettlement(_policyTokenName)\n        notAlreadySettled(_policyTokenName)\n    {\n        address policyTokenAddress = policyTokenInfoMapping[_policyTokenName]\n            .policyTokenAddress;\n        require(\n            policyTokenAddress != address(0),\n            \"This policy token does not exist, maybe you input a wrong name\"\n        );\n\n        SettlementInfo storage result = settleResult[policyTokenAddress];\n\n        // Get the final price from oracle\n        int256 price = IPriceGetter(priceGetter).getLatestPrice(\n            _policyTokenName\n        );\n        require(price > 0, \"Price can not be <= 0\");\n        result.price = price;\n\n        // Get the final result\n        uint256 strike = policyTokenInfoMapping[_policyTokenName].strikePrice;\n        bool isCall = policyTokenInfoMapping[_policyTokenName].isCall;\n\n        bool situationT1 = (uint256(price) >= strike) && isCall;\n        bool situationT2 = (uint256(price) <= strike) && !isCall;\n\n        if (situationT1 || situationT2) {\n            result.isHappened = true;\n        } else {\n            result.isHappened = false;\n        }\n\n        result.alreadySettled = true;\n\n        emit SettleFinalResult(_policyTokenName, price, result.isHappened);\n    }\n\n    /**\n     * @notice Settle the policies when then insurance event do not happen\n     *         Funds are automatically distributed back to the depositors\n     * @dev    Take care of the gas cost and can use the _startIndex and _stopIndex to control the size\n     * @param _policyTokenAddress Address of policy token\n     * @param _stablecoin Address of stablecoin\n     * @param _startIndex Settlement start index\n     * @param _stopIndex Settlement stop index\n     */\n    function settleAllPolicyTokens(\n        address _policyTokenAddress,\n        address _stablecoin,\n        uint256 _startIndex,\n        uint256 _stopIndex\n    ) public onlyOwner {\n        // Copy to memory (will not change the result)\n        SettlementInfo memory result = settleResult[_policyTokenAddress];\n\n        // Must have got the final price\n        require(\n            result.price != 0 && result.alreadySettled == true,\n            \"Have not got the oracle result\"\n        );\n\n        // The event must be \"not happend\"\n        require(\n            result.isHappened == false,\n            \"Only call this function when the event does not happen\"\n        );\n\n        // Settle the policies in [_startIndex, _stopIndex)\n        if (_startIndex == 0 && _stopIndex == 0) {\n            uint256 length = allDepositors[_policyTokenAddress].length;\n            _settlePolicy(_policyTokenAddress, _stablecoin, 0, length);\n        } else {\n            _settlePolicy(\n                _policyTokenAddress,\n                _stablecoin,\n                _startIndex,\n                _stopIndex\n            );\n        }\n    }\n\n    // ---------------------------------------------------------------------------------------- //\n    // *********************************** Internal Functions ********************************* //\n    // ---------------------------------------------------------------------------------------- //\n\n    /**\n     * @notice Mint Policy Token 1:1 USD\n     *         The policy token need to be deployed first!\n     * @param _policyTokenAddress Address of the policy token\n     * @param _stablecoin Address of the stablecoin\n     * @param _amount Amount to mint\n     */\n    function _mintPolicyToken(\n        address _policyTokenAddress,\n        address _stablecoin,\n        uint256 _amount\n    ) internal {\n        IPolicyToken policyToken = IPolicyToken(_policyTokenAddress);\n\n        // Transfer stablecoins to this contract\n        IERC20(_stablecoin).safeTransferFrom(\n            msg.sender,\n            address(this),\n            _amount\n        );\n\n        // Mint new policy tokens\n        policyToken.mint(msg.sender, _amount);\n\n        // If this is the first deposit, store the user address\n        if (userQuota[msg.sender][_policyTokenAddress] == 0) {\n            allDepositors[_policyTokenAddress].push(msg.sender);\n        }\n\n        userQuota[msg.sender][_policyTokenAddress] += _amount;\n    }\n\n    /**\n     * @notice Redeem policy tokens back, only for depositors\n     * @param _policyTokenAddress Address of the policy token\n     * @param _stablecoin Address of the stablecoin\n     * @param _amount Amount to redeem\n     */\n    function _redeemPolicyToken(\n        address _policyTokenAddress,\n        address _stablecoin,\n        uint256 _amount\n    ) internal {\n        IPolicyToken policyToken = IPolicyToken(_policyTokenAddress);\n\n        // Give back the stablecoins\n        IERC20(_stablecoin).safeTransfer(msg.sender, _amount);\n\n        // Burn the policy tokens\n        policyToken.burn(msg.sender, _amount);\n\n        userQuota[msg.sender][_policyTokenAddress] -= _amount;\n\n        if (userQuota[msg.sender][_policyTokenAddress] == 0)\n            delete userQuota[msg.sender][_policyTokenAddress];\n    }\n\n    /**\n     * @notice Claim policies when the insurance event happens\n     * @param _policyTokenAddress Address of policy token\n     * @param _stablecoin Address of stable coin\n     * @param _amount Amount to claim\n     */\n    function _claimPolicyToken(\n        address _policyTokenAddress,\n        address _stablecoin,\n        uint256 _amount\n    ) internal {\n        IPolicyToken policyToken = IPolicyToken(_policyTokenAddress);\n\n        IERC20(_stablecoin).safeTransfer(msg.sender, _amount);\n\n        policyToken.burn(msg.sender, _amount);\n\n        userQuota[msg.sender][_policyTokenAddress] -= _amount;\n\n        if (userQuota[msg.sender][_policyTokenAddress] == 0)\n            delete userQuota[msg.sender][_policyTokenAddress];\n    }\n\n    /**\n     * @notice Claim the purchase incentive when the event does not happen\n     * @dev The incentive is in the form of DEG and there is a ratio\n     * @param _policyTokenAddress Address of the policy token\n     * @param _amount Amount of policy tokens to be claimed\n     */\n    function _claimPurchaseIncentive(\n        address _policyTokenAddress,\n        uint256 _amount\n    ) internal {\n        // Calculate the amount and mint\n        uint256 purchaseIncentiveAmount = _amount / purchaseIncentiveRatio;\n        IDegisToken(degis).mint(msg.sender, purchaseIncentiveAmount);\n\n        // Burn the policy token\n        IPolicyToken policyToken = IPolicyToken(_policyTokenAddress);\n        policyToken.burn(msg.sender, _amount);\n    }\n\n    /**\n     * @notice Settle the policy\n     * @param _policyTokenAddress Address of policy token\n     * @param _stablecoin Address of stable coin\n     * @param _start Start index\n     * @param _stop Stop index\n     */\n    function _settlePolicy(\n        address _policyTokenAddress,\n        address _stablecoin,\n        uint256 _start,\n        uint256 _stop\n    ) internal {\n        for (uint256 i = _start; i < _stop; i++) {\n            address user = allDepositors[_policyTokenAddress][i];\n            uint256 amount = userQuota[user][_policyTokenAddress];\n            uint256 amountWithFee = (amount * 990) / 1000;\n\n            if (amountWithFee > 0) {\n                IERC20(_stablecoin).safeTransfer(user, amountWithFee);\n\n                // userQuota[user][_policyTokenAddress] -= amount;\n                // if (userQuota[user][_policyTokenAddress] == 0)\n                delete userQuota[user][_policyTokenAddress];\n            } else continue;\n        }\n    }\n}\n",
    "sourcePath": "/Users/ZZ/01_blockchain/NaughtyPrice-Contracts/contracts/PolicyCore.sol",
    "compiler": {
        "name": "solc",
        "version": "0.8.9+commit.e5eed63a.Emscripten.clang"
    },
    "schemaVersion": "3.4.1",
    "updatedAt": "2021-11-22T05:42:38.458Z",
    "networkType": "ethereum",
    "devdoc": {
        "details": "Most of the functions to be called from outside will use the name of policyToken         rather than the address(easy to read).         Other variables or functions still use address to index.         The rule of policyToken naming is Original Token Name + Strike Price + Lower or Higher + Date         E.g.  AVAX30L202101, BTC30000L202102, ETH8000H202109",
        "kind": "dev",
        "methods": {
            "addStablecoin(address)": {
                "params": {
                    "_newStablecoin": "Address of the new stablecoin"
                }
            },
            "claim(string,address,uint256)": {
                "details": "It is done after result settlement and only if the result is true",
                "params": {
                    "_amount": "Amount of USDT (also the amount of policy tokens)",
                    "_policyTokenName": "Name of the policy token",
                    "_stablecoin": "Address of the stable coin"
                }
            },
            "constructor": {
                "params": {
                    "_degis": "Address of degis token, used for purchase incentive",
                    "_factory": "Address of naughty factory",
                    "_priceGetter": "Address of the oracle contract",
                    "_router": "Address of naughty router",
                    "_usdt": "Stablecoin (first supported) in the pool"
                }
            },
            "deployPolicyToken(string,address,bool,uint256,uint256,uint256)": {
                "details": "Only the owner can deploy new policy token",
                "params": {
                    "_deadline": "Deadline of this policy token (deposit / redeem / swap)",
                    "_isCall": "The policy is for higher or lower than the strike price (call / put)",
                    "_policyTokenName": "Token name of policy token (e.g. \"AVAX30L202101\")",
                    "_settleTimestamp": "Can settle after this timestamp (for oracle)",
                    "_strikePrice": "Strike price of the policy",
                    "_tokenAddress": "Address of the original token (e.g. AVAX, BTC, ETH...)"
                },
                "returns": {
                    "_0": "policyTokenAddress The address of the policy token just deployed"
                }
            },
            "deployPool(string,address,uint256)": {
                "params": {
                    "_policyTokenName": "Name of the policy token",
                    "_poolDeadline": "Swapping deadline of the pool",
                    "_stablecoin": "Address of the stable coin"
                },
                "returns": {
                    "_0": "poolAddress The address of the pool just deployed"
                }
            },
            "deposit(string,address,uint256)": {
                "params": {
                    "_amount": "Amount of stablecoin (also the amount of policy tokens)",
                    "_policyTokenName": "Name of the policy token",
                    "_stablecoin": "Address of the sable coin"
                }
            },
            "findAddressbyName(string)": {
                "params": {
                    "_policyTokenName": "Name of the policy token (e.g. \"AVAX30L202103\")"
                },
                "returns": {
                    "_0": "policyTokenAddress Address of the policy token"
                }
            },
            "getPolicyTokenInfo(string)": {
                "params": {
                    "_policyTokenName": "Name of the policy token (e.g. \"AVAX30L202103\")"
                },
                "returns": {
                    "_0": "policyTokenInfo PolicyToken detail information"
                }
            },
            "isStablecoinAddress(address)": {
                "params": {
                    "_coinAddress": "Address of the stablecoin"
                },
                "returns": {
                    "_0": "Whether it is a supported stablecoin"
                }
            },
            "redeem(string,address,uint256)": {
                "details": "Redeem happens before the deadline and is different from claim/settle",
                "params": {
                    "_amount": "Amount of USDT (also the amount of policy tokens)",
                    "_policyTokenName": "Name of the policy token",
                    "_stablecoin": "Address of the stablecoin"
                }
            },
            "setPurchaseIncentiveAmount(uint256)": {
                "details": "policyToken amount(not happened) / ratio = incentive amount (in DEG)",
                "params": {
                    "_newRatio": "The amount is calculated by this ratio"
                }
            },
            "settleAllPolicyTokens(address,address,uint256,uint256)": {
                "details": "Take care of the gas cost and can use the _startIndex and _stopIndex to control the size",
                "params": {
                    "_policyTokenAddress": "Address of policy token",
                    "_stablecoin": "Address of stablecoin",
                    "_startIndex": "Settlement start index",
                    "_stopIndex": "Settlement stop index"
                }
            },
            "settleFinalResult(string)": {
                "params": {
                    "_policyTokenName": "Name of the policy token"
                }
            }
        },
        "title": "PolicyCore",
        "version": 1
    },
    "userdoc": {
        "kind": "user",
        "methods": {
            "addStablecoin(address)": {
                "notice": "Add a newly supported stablecoin"
            },
            "claim(string,address,uint256)": {
                "notice": "Claim a payoff based on policy tokens"
            },
            "constructor": {
                "notice": "Constructor, for some addresses"
            },
            "deployPolicyToken(string,address,bool,uint256,uint256,uint256)": {
                "notice": "Deploy a new policy token and return the token address"
            },
            "deployPool(string,address,uint256)": {
                "notice": "Deploy a new pair (pool)"
            },
            "deposit(string,address,uint256)": {
                "notice": "Deposit stablecoins and get policy tokens"
            },
            "findAddressbyName(string)": {
                "notice": "Find the token address by its name"
            },
            "getPolicyTokenInfo(string)": {
                "notice": "Find the token information by its name"
            },
            "isStablecoinAddress(address)": {
                "notice": "Check if this is a stablecoin address supported, used in naughtyFactory"
            },
            "redeem(string,address,uint256)": {
                "notice": "Burn policy tokens and redeem USDT"
            },
            "setPurchaseIncentiveAmount(uint256)": {
                "notice": "Change the purchase incentive amount"
            },
            "settleAllPolicyTokens(address,address,uint256,uint256)": {
                "notice": "Settle the policies when then insurance event do not happen         Funds are automatically distributed back to the depositors"
            },
            "settleFinalResult(string)": {
                "notice": "Get the final price from the PriceGetter contract"
            }
        },
        "notice": "Core logic of Naughty Price Product         Preset:              (Done in the naughtyFactory contract)              1. Deploy policyToken contract              2. Deploy policyToken-Stablecoin pool contract         User Interaction:              1. Deposit Stablecoin and mint PolicyTokens              2. Redeem their Stablecoin and burn the PolicyTokens (before settlement)              3. Claim for payout with PolicyTokens (after settlement)         PolicyTokens are minted with the ratio 1:1 to Stablecoin         The PolicyTokens are traded in the pool with CFMM (xy=k)         When the event happens, a PolicyToken can be burned for claiming 1 Stablecoin.         When the event does not happen, the PolicyToken depositors can         redeem their 1 deposited Stablecoin",
        "version": 1
    }
}